:020000040000FA
:10000000B8EF1FF0C96E1200D7EF1BF0ACA2FED7FD
:10001000AD6E120051EF20F08EEF1DF0D9CFE5FF4D
:10002000E1CFD9FF00C0E5FF01C0E5FF02C0E5FF59
:1000300003C0E5FF04C0E5FF05C0E5FF06C0E5FF1E
:1000400007C0E5FF08C0E5FF09C0E5FF0AC0E5FFFE
:100050000BC0E5FF0CC0E5FF0DC0E5FF0EC0E5FFDE
:100060000FC0E5FF10C0E5FF11C0E5FF12C0E5FFBE
:1000700013C0E5FF14C0E5FF15C0E5FF16C0E5FF9E
:1000800017C0E5FF18C0E5FF19C0E5FF1AC0E5FF7E
:100090001BC0E5FF1CC0E5FF1DC0E5FF1EC0E5FF5E
:1000A000020EDBCF00F0030EDBCF01F0040EDBCF3E
:1000B00002F0050EDBCF03F0060EDBCF04F0070ED7
:1000C000DBCF05F0080EDBCF06F0090EDBCF07F023
:1000D0000A0EDBCF08F0096A0A6A02C00DF00D5063
:1000E000800A0DE102500A01E06F0150DF6F0050FD
:1000F000DE6F0A0E016EDE0E006E800E026E03C011
:10010000E9FF04C0F3FF055003EC20F00B6E0B5029
:10011000D8B4FCEF03F00B50250A02E0E3EF03F044
:100120000C6A0D6A0E6A0F6A106A0A0E116E126A64
:10013000136A146A200E156E1668176A2B0E186E55
:10014000032A02E3044A052A03C0E9FF04C0F3FFBF
:10015000055003EC20F0196E250A13E11950E56EE5
:100160000250E56E0150E56E0050E56E6DEC14F046
:10017000040EE126094A0A2A032A02E3044A052A50
:10018000BED71950300A06E1300E156E032A02E37D
:10019000044A052A03C0E9FF04C0F3FF055003EC3D
:1001A00020F02D0A06E1010E146E032A02E3044A30
:1001B000052A03C0E9FF04C0F3FF055003EC20F05B
:1001C000200A08E1010E176E200E186E032A02E3C2
:1001D000044A052A03C0E9FF04C0F3FF055003ECFD
:1001E00020F02B0A06E1010E176E032A02E3044AEF
:1001F000052A03C0E9FF04C0F3FF055003EC20F01B
:10020000196E800F4F0F2DE31950800F460F29E212
:1002100003C019F004C01AF005C01BF019C0E9FFB3
:100220001AC0F3FF1B5003EC20F01C6E800F500F20
:1002300012E31C50800F460F0EE213500A0DF3CF4D
:100240001DF01D501C26D00E1C24136E192A02E32B
:100250001A4A1B2AE3D719C003F01AC004F01BC0C6
:1002600005F003C0E9FF04C0F3FF055003EC20F0E4
:100270002E0A2EE1032A02E3044A052A166A03C065
:1002800019F004C01AF005C01BF019C0E9FF1AC02C
:10029000F3FF1B5003EC20F01C6E800F500F12E395
:1002A0001C50800F460F0EE216500A0DF3CF1DF0C2
:1002B0001D501C26D00E1C24166E192A02E31A4A61
:1002C0001B2AE3D719C003F01AC004F01BC005F0C5
:1002D00003C0E9FF04C0F3FF055003EC20F0196EE2
:1002E0006C0A07E1010E0C6E032A02E3044A052A98
:1002F00009D01950680A06E1010E0E6E032A02E3C6
:10030000044A052A03C0E9FF04C0F3FF055003ECCB
:1003100020F0750A06E1010E106E032A02E3044A7A
:10032000052A03C0E9FF04C0F3FF055003EC20F0E9
:10033000196E730A05E1010E0D6E200E156E3FD089
:100340001950780A03E1100E116E39D01950580A6D
:1003500005E1100E116E010E126E31D01950630AB4
:1003600002E1116A2CD019506F0A03E1080E116ED8
:1003700026D01950660A03E1010E0F6E20D01950E5
:10038000640A1DE01950690A1AE0105005E0FF0EDA
:1003900003260422052213D01950E56E0250E56EA3
:1003A0000150E56E0050E56E6DEC14F0040EE12690
:1003B000094A0A2A032A02E3044A052AA0D60D5054
:1003C00021E00650030F0D6E000E0720196E000E7F
:1003D00008201A6E0DC006F019C007F01AC008F008
:1003E000FD0E0D26FF0E19221A220DC0E9FF19C0BD
:1003F000F3FF1A50E3EC1EF00D6EF3CF19F0F4CFBB
:100400001AF032D10F50D8B43ED00650040F0F6E00
:10041000000E07201B6E000E08201C6E0FC006F099
:100420001BC007F01CC008F0FC0E0F26FF0E1B229D
:100430001C220FC0E9FF1BC0F3FF1C5069EC1EF02B
:100440000F6EF3CF1BF0F4CF1CF0E9CF1DF00F0EB1
:10045000196E000E0D6E800E1A6E1650E56E240E8B
:10046000E56E0F0EE56E000EE56E1D50E56E1C503C
:10047000E56E1B50E56E0F50E56E80EC0CF0080E3B
:10048000E1261668F1D016680C5023E00650040FE0
:100490000C6E000E07200F6E000E08201B6E0CC0A5
:1004A00006F00FC007F01BC008F0FC0E0C26FF0E74
:1004B0000F221B220CC0E9FF0FC0F3FF1B5069EC99
:1004C0001EF00C6EF3CF0FF0F4CF1BF0E9CF1CF051
:1004D0006AD00E5032E00650020F0E6E000E07205A
:1004E0001D6E000E08201E6E0EC006F01DC007F027
:1004F0001EC008F0FE0E0E26FF0E1D221E220EC08C
:10050000E9FF1DC0F3FF1E508CEC1FF00E6E0EC0F5
:100510000CF0E86A0EBEFF0E0F6E1B6E1C6E1150C3
:100520000A0A03E11050D8B43ED00C500E6E0EC033
:100530000CF00F6A1B6A1C6A36D00650020F0E6E52
:10054000000E07201D6E000E08201E6E0EC006F065
:100550001DC007F01EC008F0FE0E0E26FF0E1D2265
:100560001E220EC0E9FF1DC0F3FF1E508CEC1FF0D1
:100570000E6EF3CF1DF00EC00CF01DC00FF0E86A38
:100580001DBEFF0E1B6E1C6E11500A0A02E11050B8
:100590000AE00C500E6E0F501D6E0EC00CF01DC008
:1005A0000FF01B6A1C6A0F0E196E010E0D6E800E85
:1005B0001A6E1150D8B440D0105013E01150E56EAF
:1005C0000F0EE56E010EE56E1C50E56E1B50E56EDC
:1005D0000F50E56E0C50E56E9AEC0FF0070EE12619
:1005E00012D01150E56E0F0EE56E010EE56E1C5037
:1005F000E56E1B50E56E0F50E56E0C50E56EB1ECEC
:1006000017F0070EE12617502FE00DC0E9FF19C0C3
:10061000F3FF1A5003EC20F02D0A26E0FF0E0D2602
:1006200019221A2218C0E5FF0DC0E9FF19C0F3FF17
:100630001A508EEC20F018D00CC0E5FF0DC0E9FF79
:1006400019C0F3FF1A508EEC20F00D50010F0C6E04
:10065000000E19200E6E000E1A20E56A0CC0E9FF8C
:100660000EC0F3FF8EEC20F00DC00CF019C00EF0A0
:100670001AC00FF013C010F0105010E00CC0E9FFCA
:100680000EC0F3FF0F5003EC20F0176E175006E07A
:100690000C2A02E30E4A0F2A1006EED710C013F000
:1006A00014501EE109C00CF00AC00EF010C00FF08B
:1006B0000F5010E01550E56E0250E56E0150E56EEA
:1006C0000050E56E6DEC14F0040EE1260C4A0E2A83
:1006D0000F06EED70CC009F00EC00AF00FC013F0E1
:1006E00016C00CF00DC00DF019C00EF01AC00FF0BE
:1006F00009C010F00AC015F00DC0E9FF0EC0F3FFED
:100700000F5003EC20F0166E1650D8B43ED00CC03B
:1007100016F0176A161E171E1650171005E00CC0AB
:1007200016F00C06165031E00DC0E9FF0EC0F3FFC5
:100730000F5003EC20F0116E125010E01150E56ED6
:100740005FEC1FF0166EE652165004E01150166E64
:10075000169A02D011C016F016C011F01150E56EB5
:100760000250E56E0150E56E0050E56E6DEC14F040
:10077000040EE1260D2A02E30E4A0F2A104A152A1A
:100780001350D8B4B9D71306B7D710C009F015C0A5
:100790000AF014502BE010C00CF015C00DF013C07F
:1007A0000EF00E501FE0200EE56E0250E56E015077
:1007B000E56E0050E56E6DEC14F0040EE1260C4A77
:1007C0000D2A0E06EED70B50E56E0250E56E015075
:1007D000E56E0050E56E6DEC14F0040EE126094A5A
:1007E0000A2A04D00CC009F00DC00AF0032A02E363
:1007F000044A052A7FEF00F00AC0F3FF0950E4CF56
:100800001EF0E4CF1DF0E4CF1CF0E4CF1BF0E4CFEA
:100810001AF0E4CF19F0E4CF18F0E4CF17F0E4CFEA
:1008200016F0E4CF15F0E4CF14F0E4CF13F0E4CFEA
:1008300012F0E4CF11F0E4CF10F0E4CF0FF0E4CFEA
:100840000EF0E4CF0DF0E4CF0CF0E4CF0BF0E4CFEA
:100850000AF0E4CF09F0E4CF08F0E4CF07F0E4CFEA
:1008600006F0E4CF05F0E4CF04F0E4CF03F0E4CFEA
:1008700002F0E4CF01F0E4CF00F0E4CFD9FF1200A2
:1008800005C0E5FF06C0E5FF07C0E5FF08C0E5FFBE
:1008900009C0E5FF0AC0E5FF0BC0E5FF0CC0E5FF9E
:1008A0000DC0E5FF0EC0E5FF0FC0E5FF10C0E5FF7E
:1008B00011C0E5FF12C0E5FF13C0E5FF14C0E5FF5E
:1008C00015C0E5FF16C0E5FF17C0E5FF18C0E5FF3E
:1008D00019C0E5FF1AC0E5FF1BC0E5FF1CC0E5FF1E
:1008E0001DC0E5FF000E00B0050F066AF60F02E31B
:1008F000062AFCD70A0F056E042E03D0FB0F01E376
:10090000062A065000B0020F00B2050F076AF60F64
:1009100002E3072AFCD70A0F066E042E03D0FB0F52
:1009200001E3072A075000B0060F00B2020F00B41F
:10093000050F086AF60F02E3082AFCD70A0F076EB4
:10094000042E03D0FB0F01E3082A085000B2010F68
:1009500000B4020F00B6050F096AF60F02E3092A78
:10096000FCD70A0F086E042E03D0FB0F01E3092AFF
:10097000095000B0090F00B2080F00B4060F00B60E
:10098000020F00B8050F0A6AF60F02E30A2AFCD725
:100990000A0F096E042E03D0FB0F01E30A2A0A5046
:1009A00000B0030F00B2070F00B4050F00B6010F2F
:1009B00000B8020F00BA050F0B6AF60F02E30B2A0C
:1009C000FCD70A0F0A6E042E03D0FB0F01E30B2A9B
:1009D0000B5000B0050F00B4010F00B6030F00B8B4
:1009E000060F00BA020F00BC050F0C6AF60F02E3F7
:1009F0000C2AFCD70A0F0B6E042E03D0FB0F01E369
:100A00000C2A0C5000B0070F00B2050F00BA010FFE
:100A100000BC020F00BE050F0D6AF60F02E30D2A9F
:100A2000FCD70A0F0C6E042E03D0FB0F01E30D2A36
:100A30000D5000B0070F00B2050F00B4010F00B653
:100A4000020F00B8040F00BA080F00BC060F00BE6A
:100A5000020F01B0050F0E6AF60F02E30E2AFCD753
:100A60000A0F0D6E042E03D0FB0F01E30E2A0E5069
:100A700000B0040F00B2090F00B4090F00B6080F50
:100A800000B8060F00BA020F00BC050F00BE010F30
:100A900001B0020F01B2050F0F6AF60F02E30F2A31
:100AA000FCD70A0F0E6E042E03D0FB0F01E30F2AB2
:100AB0000F5000B0040F00B2080F00B4070F00B6CB
:100AC000050F00B8010F00BA030F00BC060F00BEEF
:100AD000030F01B0060F01B2020F01B4050F106A37
:100AE000F60F02E3102AFCD70A0F0F6E042E03D074
:100AF000FB0F01E3102A105000B0060F00B2020FE6
:100B000000B4050F00B6010F00B8030F00BA060FBE
:100B100000BC020F00BE050F01B2010F01B4020FAD
:100B200001B6050F116AF60F02E3112AFCD70A0F6E
:100B3000106E042E03D0FB0F01E3112A115000B0F8
:100B4000040F00B2090F00B4080F00B6070F00B879
:100B5000040F00BA080F00BC070F00BE040F01B05D
:100B6000090F01B2080F01B4060F01B6020F01B858
:100B7000050F126AF60F02E3122AFCD70A0F116E54
:100B8000042E03D0FB0F01E3122A125000B4010F10
:100B900000B6030F00B8070F00BA040F00BC090F1E
:100BA00000BE090F01B0080F01B2070F01B4050F15
:100BB00001B6010F01B8020F01BA050F136AF60F53
:100BC00002E3132AFCD70A0F126E042E03D0FB0F88
:100BD00001E3132A135000B0060F00B2020F00B455
:100BE000040F00B6080F00B8060F00BA030F00BCD0
:100BF000060F00BE030F01B0070F01B2050F01B4CD
:100C0000010F01B6030F01B8060F01BA020F01BCB4
:100C1000050F146AF60F02E3142AFCD70A0F136EAD
:100C2000042E03D0FB0F01E3142A145000B0090F67
:100C300000B2090F00B4080F00B6060F00B8030F8A
:100C400000BA070F00BC040F00BE090F01B0080F67
:100C500001B2070F01B4050F01BA010F01BC020F69
:100C600001BE050F156AF60F02E3152AFCD70A0F1D
:100C7000146E042E03D0FB0F01E3152A155000B0AB
:100C8000050F00B2010F00B4030F00B6070F00B844
:100C9000050F00BC010F00BE020F01B0050F01B22D
:100CA000010F01B4030F01B6070F01B8040F01BA19
:100CB000080F01BC060F01BE020F02B0050F166A35
:100CC000F60F02E3162AFCD70A0F156E042E03D086
:100CD000FB0F01E3162A165000B2010F00B4020FF9
:100CE00000B6040F00B8090F00BA090F00BC080FC6
:100CF00000BE060F01B0020F01B2050F01B8010FCF
:100D000001BA020F01BC050F01BE010F02B0020FB4
:100D100002B2050F176AF60F02E3172AFCD70A0F73
:100D2000166E042E03D0FB0F01E3172A175000BAEA
:100D3000010F00BC030F00BE070F01B0050F01B487
:100D4000010F01B6020F01B8040F01BA080F01BC70
:100D5000060F01BE030F02B0060F02B2020F02B46B
:100D6000050F186AF60F02E3182AFCD70A0F176E50
:100D7000042E03D0FB0F01E3182A185001B0010F15
:100D800001B2030F01B4060F01B6020F01B8040F40
:100D900001BA080F01BC070F01BE050F02B2010F17
:100DA00002B4020F02B6050F196AF60F02E3192A00
:100DB000FCD70A0F186E042E03D0FB0F01E3192A8B
:100DC000195001B6010F01B8020F01BA040F01BC9E
:100DD000090F01BE090F02B0090F02B2080F02B4D9
:100DE000060F02B6020F02B8050F1A6AF60F02E3E9
:100DF0001A2AFCD70A0F196E042E03D0FB0F01E349
:100E00001A2A1A5001BE010F02B0030F02B2070FD7
:100E100002B4050F02B6010F02B8020F02BA050FA5
:100E20001B6AF60F02E31B2AFCD70A0F1A6E042E68
:100E300003D0FB0F01E31B2A1B5002B4010F02B6C3
:100E4000030F02B8060F02BA020F02BC050F1C6A9C
:100E5000F60F02E31C2AFCD70A0F1B6E042E03D0E8
:100E6000FB0F01E31C2A1C5002BA010F02BC020F47
:100E700002BE050F1D6AF60F02E31D2AFCD70A0FFA
:100E80001C6E042E03D0FB0F01E31D2A300FEE6E03
:100E90001B50300FEE6E1A50300FEE6E1950300F9F
:100EA000EE6E1850300FEE6E1750300FEE6E16507B
:100EB000300FEE6E1550300FEE6E1450300FEE6E98
:100EC0001350300FEE6E1250300FEE6E1150300F87
:100ED000EE6E1050300FEE6E0F50300FEE6E0E5063
:100EE000300FEE6E0D50300FEE6E0C50300FEE6E78
:100EF0000B50300FEE6E0A50300FEE6E0950300F6F
:100F0000EE6E0850300FEE6E0750300FEE6E06504A
:100F1000300FEE6E0550300FEE6E170EE4CF1DF061
:100F2000E4CF1CF0E4CF1BF0E4CF1AF0E4CF19F0CB
:100F3000E4CF18F0E4CF17F0E4CF16F0E4CF15F0CB
:100F4000E4CF14F0E4CF13F0E4CF12F0E4CF11F0CB
:100F5000E4CF10F0E4CF0FF0E4CF0EF0E4CF0DF0CB
:100F6000E4CF0CF0E4CF0BF0E4CF0AF0E4CF09F0CB
:100F7000E4CF08F0E4CF07F0E4CF06F0E4CF05F0CB
:100F80001200D9CFE5FFE1CFD9FF00C0E5FF01C0D6
:100F9000E5FF02C0E5FF03C0E5FF04C0E5FF05C0B3
:100FA000E5FF06C0E5FF07C0E5FF08C0E5FF09C093
:100FB000E5FF0AC0E5FF0BC0E5FF0CC0E5FF0DC073
:100FC000E5FF0EC0E5FF020EDBCF00F0016A010E67
:100FD0000014026E040E0014036E020E0016046A62
:100FE000040E045CD8B0D8D10A01542B080E545D0D
:100FF00001E3546B0A015439E8441F0B056E066A7D
:10100000F50E05260A0E062205C0E9FF06C0EAFF16
:10101000EFCF05F0070E5415066E010E076E086A35
:10102000065006E0E86CD89007360836010FFCE35E
:10103000096A055007160950081607500810D0E035
:101040000A015451020DF450066EF3CF05F0240E40
:101050000524076E0F0E0620086E07C0E9FF08C0C2
:10106000EAFFEECF07F0EFCF08F00250D8B49DD0E2
:10107000840E0524096E0A0E06200A6E09C0E9FFD7
:101080000AC0EAFFEECF09F0EFCF0AF00850800F58
:10109000F36E0A50800FF35C02E10950075C03E233
:1010A000076A086A60D0940E05260A0E062205C05B
:1010B000E9FF06C0EAFFEECF05F0EFCF06F00650DD
:1010C000800FF36E0850800FF35C02E10750055C5F
:1010D00004E207683F0E086E46D00950075C0B6EAD
:1010E0000A5008580C6EE86A0CBEFF0E0D6EE56ED5
:1010F0000D50E56E0C50E56E0B50E56EE56AE56A45
:10110000400EE56E000EE56A92EC0DF00B6EF3CF2B
:101110000CF0F4CF0DF0E9CF0EF0080EE1260950E7
:10112000055C096E0A5006580A6EE86A0ABEFF0E90
:10113000056EE56E0550E56E0A50E56E0950E56EE8
:101140000E50E56E0D50E56E0C50E56E0B50E56EE1
:1011500058EC13F0056EF3CF06F0080EE1260550AB
:10116000076E0650086E0A015151800FF36E085049
:10117000800FF35C02E10750505D03E3076A086AE1
:1011800014D00A015051FF08056E3F0E5155066EEE
:101190000850800FF36E0650800FF35C02E105509B
:1011A000075C03E307683F0E086E0A015451020D05
:1011B000F450066EF3CF05F0740E05260A0E0622D3
:1011C00005C0E9FF06C0EAFFEECF05F0EFCF06F05D
:1011D0000550075C056E06500858066ED88006AEAE
:1011E000D89004E3061E056CD8B4062A042A0A0126
:1011F0005151800FF36E0650800FF35C02E10550F1
:10120000505DD8B0EDD60A015451020DF4500A6E6B
:10121000F3CF09F0740E09260A0E0A2209C0E9FF6D
:101220000AC0EAFF07C0EEFF08C0EFFF0350D8B4C2
:1012300059D05451020DF4500A6EF3CF09F0A40EA8
:1012400009240B6E0A0E0A200C6E0BC0E9FF0CC0BD
:10125000EAFFEECF0DF0EFCF0EF00D500E10D8B428
:1012600041D0640E09260A0E0A2209C0E9FF0AC00D
:10127000EAFFEECF09F0EFCF0AF00950075C056EE8
:101280000A500858066E05101CE00650800F800FAB
:1012900002E1010E055C096A09360E50800F800FCD
:1012A00002E1010E0D5C0D6A0D3609500D1809E1C1
:1012B0000BC0E9FF0CC0EAFF05C0EEFF06C0EFFF60
:1012C0008FD60A015451020DF450066EF3CF05F08B
:1012D000A40E05260A0E062205C0E9FF06C0EAFF95
:1012E000EE6AEF6A0050D8B443D001500EE101C05D
:1012F00005F0012A066A550E05260A0E062205C0CB
:10130000E9FF06C0EAFF420EEF6E01C005F0012AB8
:10131000066A550E05260A0E0622640E0A01542599
:10132000096E05C0E9FF06C0EAFF09C0EFFF01C072
:1013300005F0012A066A550E05260A0E06220850F7
:10134000096E05C0E9FF06C0EAFF09C0EFFF01C052
:1013500005F0012A066A550E05260A0E06220750D8
:10136000096E05C0E9FF06C0EAFF09C0EFFF38D6E5
:1013700054CA05F00850E56E0750E56EE56A055061
:10138000E56E000EE56E250EE56E5E0EE56EDFEC99
:101390001AF0070EE12624D604C002F001501CE02A
:1013A00000501AE001C000F0012A036A550E002621
:1013B0000A0E032200C0E9FF03C0EAFF0A0EEF6E27
:1013C0000150E56E800EE56E0A0EE56E550EE56E77
:1013D0007EEC15F0040EE1260250E4CF0EF0E4CFCF
:1013E0000DF0E4CF0CF0E4CF0BF0E4CF0AF0E4CF43
:1013F00009F0E4CF08F0E4CF07F0E4CF06F0E4CF43
:1014000005F0E4CF04F0E4CF03F0E4CF02F0E4CF42
:1014100001F0E4CF00F0E4CFD9FF120000C0E5FFF7
:1014200001C0E5FF02C0E5FF03C0E5FF04C0E5FF22
:1014300005C0E5FF06C0E5FF07C0E5FF08C0E5FF02
:1014400009C0E5FF0AC0E5FF0BC0E5FF0CC0E5FFE2
:101450000DC0E5FF0EC0E5FF000E00B0010F00B2A9
:10146000020F00B4040F00B6080F00B8060F00BA50
:10147000020F00BC040F00BE080F01B0060F01B23E
:10148000020F01B4040F01B6080F01B8060F01BA2C
:10149000020F01BC040F01BE080F02B0060F02B21A
:1014A000020F02B4040F02B6080F02B8060F02BA08
:1014B000020F02BC040F02BE080F056AF60F02E31A
:1014C000052AFCD70A0F046E055000B8010F00BAB8
:1014D000030F00BC060F00BE020F01B0050F01B2E2
:1014E000010F01B4020F01B6040F01B8090F01BAD0
:1014F000090F01BC080F01BE060F02B0030F02B2B4
:10150000070F02B4040F02B6080F02B8070F02BAA1
:10151000050F066AF60F02E3062AFCD70A0F056ECE
:10152000065000BE010F01B0020F01B2050F01BA53
:10153000010F01BC030F01BE070F02B0050F02B47B
:10154000010F02B6020F02B8050F02BA010F02BC6A
:10155000030F02BE060F076AF60F02E3072AFCD745
:101560000A0F066E075001B4010F01B6020F01B851
:10157000040F01BA080F01BC060F01BE020F02B032
:10158000050F02B2010F02B4020F02B6040F02B837
:10159000080F02BA070F02BC040F02BE080F086A48
:1015A000F60F02E3082AFCD70A0F076E085001BCA9
:1015B000010F01BE030F02B0060F02B2030F02B407
:1015C000060F02B6020F02B8040F02BA090F02BCDE
:1015D000090F02BE080F096AF60F02E3092AFCD7B9
:1015E0000A0F086E095002B2010F02B4020F02B6D0
:1015F000050F02BC010F02BE030F0A6AF60F02E3D9
:101600000A2AFCD70A0F096E0A5002B8010F02BA63
:10161000020F02BC040F02BE080F0B6AF60F02E3B2
:101620000B2AFCD70A0F0A6E0B500E6A0EE10A5005
:1016300010E1095012E1085014E1075016E106507C
:1016400018E105501AE104501CD00E2A300FEE6E3E
:101650000A500E2A300FEE6E09500E2A300FEE6E31
:1016600008500E2A300FEE6E07500E2A300FEE6E25
:1016700006500E2A300FEE6E05500E2A300FEE6E19
:1016800004500E2A300FEE6E0E50E4CF0EF0E4CF71
:101690000DF0E4CF0CF0E4CF0BF0E4CF0AF0E4CF90
:1016A00009F0E4CF08F0E4CF07F0E4CF06F0E4CF90
:1016B00005F0E4CF04F0E4CF03F0E4CF02F0E4CF90
:1016C00001F0E4CF00F0120000C0E5FF01C0E5FF2B
:1016D00002C0E5FF03C0E5FF04C0E5FF05C0E5FF6C
:1016E00006C0E5FF07C0E5FF08C0E5FF09C0E5FF4C
:1016F000C2B2F1D00A015351D8B4AAD00A01525152
:10170000020DF450016EF3CF00F0240E00260F0EF0
:10171000012200C0E9FF01C0EAFFEECF02F0EFCFE7
:1017200003F003340330056E0230046E05340532D5
:1017300004320450025C046E05500358056EC3CF9A
:1017400006F0076A0650042607500522C4CF06F0AB
:101750000650096E086A085004260950052200C088
:10176000E9FF01C0EAFF04C0EEFF05C0EFFF0A0178
:101770004F51010A01E06AD00A015251020DF450A2
:10178000016EF3CF00F0240E0024046E0F0E012032
:10179000056E04C0E9FF05C0EAFFEECF02F0EFCF0F
:1017A00003F0840E00260A0E012200C0E9FF01C0EA
:1017B000EAFFEECF04F0EFCF05F09C0E0426D8A090
:1017C00005060350800FF36E0550800FF35C02E1B5
:1017D0000450025C0EE20250640F046E000E0320FF
:1017E000056E00C0E9FF01C0EAFF04C0EEFF05C0BE
:1017F000EFFF0A015251020DF450016EF3CF00F0D9
:10180000940E00260A0E012200C0E9FF01C0EAFF83
:10181000EECF04F0EFCF05F0640E0426D8B0052A11
:101820000550800FF36E0350800FF35C02E102500D
:10183000045C0CE29C0E0226D8A0030600C0E9FF5F
:1018400001C0EAFF02C0EEFF03C0EFFF0A01536BC5
:101850000A01522B080E525D01E3526B0A01523904
:10186000E8441F0B006E016AF50E00260A0E0122E5
:1018700000C0E9FF01C0EAFFEFCF00F0070E5215EC
:10188000016E010E026E036A015006E0E86CD8900A
:1018900002360336010FFCE3046A005002160450BE
:1018A00003160250031017E0B40E0A015225006E11
:1018B000016A0A0E012200C0E9FF01C0EAFFEFCF72
:1018C00000F00044E844FC0B016E0128C26EC282A5
:1018D000010E0A01536FE4CF09F0E4CF08F0E4CF22
:1018E00007F0E4CF06F0E4CF05F0E4CF04F0E4CF56
:1018F00003F0E4CF02F0E4CF01F0E4CF00F01200F7
:10190000D9CFE5FFE1CFD9FF00C0E5FF01C0E5FF7A
:1019100002C0E5FF03C0E5FF04C0E5FF05C0E5FF29
:1019200006C0E5FF07C0E5FF08C0E5FF09C0E5FF09
:101930000AC0E5FF0BC0E5FF020EDBCF00F0030E8F
:10194000DBCF01F0040EDBCF02F0050EDBCF03F09E
:10195000060EDBCF04F0070EDBCF05F0080EDBCF61
:1019600006F0090EDBCF07F006C008F006060850A7
:101970000EE006500424086EE86A06BEE8680520FA
:10198000096E08C0E9FF09C0EAFFEF6AEDD7005011
:101990000A01D46F0150D56F0250D66F0350D76F34
:1019A000D4CA00F0D5CA01F0D6CA02F0D7CA03F0F3
:1019B000066A086A096A800E03140A6E065007E177
:1019C000085005E1095003E10A50800A01E012D0F5
:1019D000039E00500A01D46F0150D56F0250D66F9C
:1019E0000350D76F04C0E9FF05C0EAFF2D0EEF6E6C
:1019F000044A052A0A01D635D7357E08006ED4512F
:101A0000016ED551026E7F0ED615036E066A038EE7
:101A1000086A096A0A6A0B6A005019E0D88000AEA9
:101A2000D8900EE30850082609360A360B3603BE56
:101A3000088001500126023603360636002AECD70C
:101A4000D89006320332023201320006E5D7085040
:101A500009100A100B1012E00550E56E0450E56EF7
:101A60000B50E56E0A50E56E0950E56E0850E56EC4
:101A70000FEC1DF0006E060EE12608D004C0E9FF51
:101A800005C0EAFF300EEF6E010E006E0050042616
:101A9000E86A00BEE8680522075028E004C0E9FFB4
:101AA00005C0EAFF2E0EEF6E002A044A052A0750F1
:101AB0001808E56E0550E56E0450E56E0650E56EBB
:101AC0000350E56E0250E56E0150E56E7FEC1CF0B0
:101AD000016E070EE1260150002607500426E86A31
:101AE000052204C0E9FF05C0EAFFEF6A0050E4CF19
:101AF0000BF0E4CF0AF0E4CF09F0E4CF08F0E4CF34
:101B000007F0E4CF06F0E4CF05F0E4CF04F0E4CF33
:101B100003F0E4CF02F0E4CF01F0E4CF00F0E4CF33
:101B2000D9FF1200D9CFE5FFE1CFD9FF00C0E5FF13
:101B300001C0E5FF02C0E5FF03C0E5FF04C0E5FF0B
:101B400005C0E5FF06C0E5FF07C0E5FF020EDBCFDD
:101B500000F0030EDBCF01F0040EDBCF02F0050E28
:101B6000DBCF03F0060EDBCF04F0070EDBCF05F072
:101B7000080EDBCF06F0090EDBCF07F000500A019C
:101B8000C06F0150C16F0250C26F0350C36F045049
:101B90000A01C46F0550C56F0650C66F0750C76F66
:101BA0000A01C0510A01C603F4CF01F0F3CF00F0DF
:101BB00000500A01CA6F0150CB6F0A01C0510A01DF
:101BC000C403F4CF01F0F3CF00F000500A01C86F56
:101BD0000150C96F0A01C3510A01C403F3CF00F0D9
:101BE0000A01CB5100260050CB6F0A01C2510A01F5
:101BF000C503F3CF00F00A01CB5100260050CB6F94
:101C00000A01C2510A01C403F4CF01F0F3CF00F07E
:101C10000A01CA510026CB5101220050CA6F01505F
:101C2000CB6F0A01C1510A01C503F4CF01F0F3CF14
:101C300000F00A01CA510026CB5101220050CA6FA0
:101C40000150CB6F0A01C1510A01C603F3CF00F066
:101C500000500A01CF6F0A01C1510A01C403F4CF39
:101C600001F0F3CF00F000500A01CD6F0150CE6FAC
:101C70000A01C0510A01C703F3CF00F000500A0166
:101C8000D36F0A01C0510A01C503F4CF01F0F3CFAD
:101C900000F000500A01D16F0150D26F0A01CC6BE5
:101CA0000A01D06B0A01CC510A01C825006E0A0155
:101CB000CD510A01C921016E0A01CE510A01CA2182
:101CC000026E0A01CF510A01CB21036E0050C86F8A
:101CD0000150C96F0250CA6F0350CB6F0A01D05137
:101CE0000A01C825006E0A01D1510A01C921016EFD
:101CF0000A01D2510A01CA21026E0A01D3510A0116
:101D0000CB21036E03C0E9FF02C0F4FF01C0F3FF63
:101D10000050E4CF07F0E4CF06F0E4CF05F0E4CFC5
:101D200004F0E4CF03F0E4CF02F0E4CF01F0E4CF1D
:101D300000F0E4CFD9FF120000C0E5FF01C0E5FFCD
:101D40009DA81DD09EA81BD00A01ED510A01EA19D9
:101D500005E16CEC20F00A01EA6BE7D0000E0A0105
:101D6000ED25006E016A0A0E012200C0E9FF01C0E4
:101D7000EAFFEFCFE6FAED2BE6CAADFFD6D09EAA7A
:101D8000D4D0ABA205D00A01EB816CEC20F0CDD011
:101D9000ABA405D00A01EB836CEC20F0C6D0ABA05D
:101DA0003ED0AECFE6FA800E0A014D110A01E619C7
:101DB00004E10A01EB89AB96B8D00A01E65104E0D0
:101DC000E6510A014D1927E10A01EB99AB960A0188
:101DD000E65103E00A01EB9702D00A01EB87E6CA5D
:101DE000EFFAE8CAF0FA0A01E8050A01F16F600E9D
:101DF0000A01F025006E016A000E012200C0E9FF11
:101E000001C0EAFFE6CAEFFFF02BF051800A02E1C1
:101E10000A01F06B8AD00A01EB99AB8686D0AECF6F
:101E2000E6FA0A01EBA919D0800E0A014D110A0148
:101E3000E61911E18B909D9AAB980A01EA5104E1F1
:101E4000AD6A6CEC20F007D000CAADFF010E0A01AC
:101E5000ED6F9D886AD0AB8668D00A01E6510A0111
:101E6000EF270A01F0510A01F1191BE10A01EF51B4
:101E70000CE1F0CAE8FA0A01EBB712D08B909D9AF8
:101E8000AB98AD6A6CEC20F00BD00A01EB85EBB798
:101E900007D08B909D9AAB98010EAD6E6CEC20F044
:101EA00044D00A01F0510A01E91908E10A01E95197
:101EB0000A01E81903E06CEC20F037D0E8CA00F022
:101EC000016A004A012AE56A800EE56E0150E56E5E
:101ED0000050E56E70EC16F0006E040EE126005026
:101EE0000A01E76F0A01F0190CE11F0E0A01E6155D
:101EF0000A01F16FF12BF12B0A01E8510A01F127D8
:101F0000F19FF0CA00F00A01F02B016A600E002672
:101F1000000E012200C0E9FF01C0EAFFE6CAEFFFA0
:101F2000F051800A02E10A01F06BE4CF01F0E4CF46
:101F300000F01200D9CFE5FFE1CFD9FF00C0E5FFE7
:101F400001C0E5FF02C0E5FF03C0E5FF04C0E5FFF7
:101F500005C0E5FF06C0E5FF07C0E5FF08C0E5FFD7
:101F600009C0E5FF0AC0E5FF0BC0E5FF0CC0E5FFB7
:101F70000DC0E5FF0EC0E5FF0FC0E5FF020EDBCF91
:101F800000F0030EDBCF01F0040EDBCF02F0050EF4
:101F9000DBCF03F0060EDBCF04F0070EDBCF05F03E
:101FA000080EDBCF06F0200E076E086A06C009F0A7
:101FB0000A6A0B6A0C6AE56AE56AE56A0950E56E29
:101FC0000350E56E0250E56E0150E56E0050E56E7F
:101FD00017EC11F00D6E080EE126300E0D263A0EAC
:101FE0000D5C05E30D500E6E270E0E240D6EFF0ED8
:101FF00007260822E00E07240E6E000E08200F6E42
:102000000EC0E9FF0FC0EAFF0DC0EFFF0C50E56EF8
:102010000B50E56E0A50E56E0950E56E0350E56E13
:102020000250E56E0150E56E0050E56E58EC13F07D
:10203000006EF3CF01F0F4CF02F0E9CF03F0080E09
:10204000E1260050011002100310D8A4AFD707C03A
:1020500000F008C001F004C002F005C003F000C0A9
:1020600004F001C005F0004A012AE00E0426000E2B
:10207000052204C0E9FF05C0EAFFEFCF04F002C06B
:10208000E9FF03C0EAFF04C0EFFF024A032A000E83
:10209000015C02E1200E005CE2E302C0E9FF03C044
:1020A000EAFF000EEF6AE4CF0FF0E4CF0EF0E4CFCA
:1020B0000DF0E4CF0CF0E4CF0BF0E4CF0AF0E4CF66
:1020C00009F0E4CF08F0E4CF07F0E4CF06F0E4CF66
:1020D00005F0E4CF04F0E4CF03F0E4CF02F0E4CF66
:1020E00001F0E4CF00F0E4CFD9FF1200800EE56EDE
:1020F0000A0EE56E940EE56E76EC19F0030EE126FD
:10210000800EE56E0A0EE56E960EE56E76EC19F021
:10211000030EE126800EE56E0A0EE56E980EE56E62
:1021200076EC19F0030EE126800EE56E0A0EE56EE0
:102130009A0EE56E76EC19F0030EE126800EE56E40
:102140000A0EE56E9C0EE56E76EC19F0030EE126A4
:10215000800EE56E0A0EE56E9E0EE56E76EC19F0C9
:10216000030EE126800EE56E0A0EE56EA00EE56E0A
:1021700076EC19F0030EE126800EE56E0A0EE56E90
:10218000A20EE56E76EC19F0030EE126800EE56EE8
:102190000A0EE56E840EE56E76EC19F0030EE1266C
:1021A000800EE56E0A0EE56E860EE56E76EC19F091
:1021B000030EE126800EE56E0A0EE56E880EE56ED2
:1021C00076EC19F0030EE126800EE56E0A0EE56E40
:1021D0008A0EE56E76EC19F0030EE126800EE56EB0
:1021E0000A0EE56E8C0EE56E76EC19F0030EE12614
:1021F000800EE56E0A0EE56E8E0EE56E76EC19F039
:10220000030EE126800EE56E0A0EE56E900EE56E79
:1022100076EC19F0030EE126800EE56E0A0EE56EEF
:10222000920EE56E76EC19F0030EE1261200D9CF7E
:10223000E5FFE1CFD9FF00C0E5FF01C0E5FF02C027
:10224000E5FF03C0E5FF04C0E5FF05C0E5FF06C0EC
:10225000E5FF07C0E5FF08C0E5FF09C0E5FF0AC0CC
:10226000E5FF020EDBCF00F0030EDBCF01F0040E22
:10227000DBCF02F0050EDBCF03F0060EDBCF04F060
:10228000070EDBCF05F0080EDBCF06F0090EDBCF23
:1022900007F0086A096A0750800BE8440A6E0A5082
:1022A0001BE1045004260536063607360750035C4A
:1022B00008E10650025C05E10550015C02E10450B2
:1022C000005C06E2D890073206320532043204D0B0
:1022D000092A09C008F0DFD70750035C08E106505F
:1022E000025C05E10550015C02E10450005C08E37A
:1022F0000450005E0550015A0650025A0750035A16
:10230000D890073206320532043208C009F00806B8
:102310000950E2E103C0E9FF02C0F4FF01C0F3FF8E
:102320000050E4CF0AF0E4CF09F0E4CF08F0E4CFA6
:1023300007F0E4CF06F0E4CF05F0E4CF04F0E4CFFB
:1023400003F0E4CF02F0E4CF01F0E4CF00F0E4CFFB
:10235000D9FF120000C0E5FF01C0E5FF02C0E5FFA4
:1023600003C0E5FF04C0E5FF0A01E9510A01E819CD
:1023700001E163D0E9CA00F0002A009E600E00244B
:10238000016E026A000E022201C0E9FF02C0EAFFEC
:10239000EFCFF3FA1F0E0A01F317E9CAF2FAF3516D
:1023A0000A01F227F22BF22BF29F64EC1DF0016E72
:1023B000015003E1016A012A01D0016A64EC1DF0B9
:1023C0000A01F36F800EF315026E1F0EF315036EF4
:1023D00003C004F003C0F3FA045003E1E8CAE9FAC9
:1023E0003FD0015021E002501CE064EC1DF0006E73
:1023F0000A01F3070050420A03E1E3EC20F01BD08E
:1024000000504E0A03E15DEC1AF015D00050460A68
:1024100003E183EC20F00FD00050490A0CE1FF00EB
:102420000AD0E2EC20F007D0025003E071EC18F083
:1024300002D023EC19F0F2CAE9FA0A014A510A0162
:102440004B1906E00A01EA5103E1E4EC13F008D06D
:102450008BB006D00A01EA5103E1ACB26CEC20F07B
:10246000E4CF04F0E4CF03F0E4CF02F0E4CF01F0D6
:10247000E4CF00F0120000C0E5FF01C0E5FF02C09C
:10248000E5FF03C0E5FF04C0E5FF006AF50E002488
:10249000016E026A0A0E022201C0E9FF02C0EAFFD1
:1024A000EF6A002A010E005CF1E3006A016A026A29
:1024B000240E0124036E0F0E0220046E03C0E9FFF8
:1024C00004C0EAFFEE6AEF6A640E0124036E0A0E8E
:1024D0000220046E03C0E9FF04C0EAFFEE6AEF6A5F
:1024E000740E0124036E0A0E0220046E03C0E9FF7D
:1024F00004C0EAFFEE6AEF6A840E0124036E0A0E3E
:102500000220046E03C0E9FF04C0EAFFEE6AEF6A2E
:10251000940E0124036E0A0E0220046E03C0E9FF2C
:1025200004C0EAFFEE687F0EEF6E020E0126D8B0FF
:10253000022A002A080E005CD8A0BAD7AF0EC06EDF
:10254000C16A010EC26EC282E4CF04F0E4CF03F090
:10255000E4CF02F0E4CF01F0E4CF00F0120043201A
:10256000412025642025640A0000432061736D200A
:1025700025642025642025642025642025640A0024
:10258000432061734D202564202564202564202587
:10259000642025640A0000C0E5FF01C0E5FF03C018
:1025A000E5FF04C0E5FF05C0E5FF06C0E5FF07C085
:1025B000E5FF08C0E5FF09C0E5FF0AC0E5FF0BC065
:1025C000E5FFE1CA00F0E2CA01F00A01E13F01D0F3
:1025D000E22B0050E56E43EC20F0E652076E046AF1
:1025E000056A066AE1CA00F0E2CA01F00A01E13FA9
:1025F00001D0E22B0050E56E43EC20F0E6520B6A6E
:102600000A6E086A0850041205120A5006120B508E
:102610000712E1CA00F0E2CA01F00A01E13F01D06D
:10262000E22B0050E56E43EC20F0E652036E006AA8
:1026300003C001F0E86A03BEFF0E086E096E005089
:102640000412015005120850061209500712E1CA7F
:1026500000F0E2CA01F00A01E13F01D0E22B005094
:10266000E56E43EC20F0E652016A041201500512B7
:102670000612071207C0E9FF06C0F4FF05C0F3FF0A
:102680000450E4CF0BF0E4CF0AF0E4CF09F0E4CF3C
:1026900008F0E4CF07F0E4CF06F0E4CF05F0E4CF94
:1026A00004F0E4CF03F0E4CF01F0E4CF00F0120037
:1026B000D9CFE5FFE1CFD9FF00C0E5FF01C0E5FFBD
:1026C00002C0E5FF03C0E5FF04C0E5FF05C0E5FF6C
:1026D00006C0E5FF07C0E5FF08C0E5FF09C0E5FF4C
:1026E0000AC0E5FF0BC0E5FF0CC0E5FF0DC0E5FF2C
:1026F000020EDBCF00F0030EDBCF01F0040EDBCFC8
:1027000002F0050EDBCF03F0060EDBCF04F0070E60
:10271000DBCF05F0080EDBCF06F0090EDBCF07F0AC
:10272000086A096A0A6A0B6A200E0C6E0350800B55
:10273000E8440D6E0050002601360236033608507C
:10274000082609360A360B360D50D8A408800750E3
:102750000B5C08E106500A5C05E10550095C02E1EA
:102760000450085C09E30450085E0550095A0650FD
:102770000A5A07500B5A00800C2ED8D703C0E9FF25
:1027800002C0F4FF01C0F3FF0050E4CF0DF0E4CF2E
:102790000CF0E4CF0BF0E4CF0AF0E4CF09F0E4CF83
:1027A00008F0E4CF07F0E4CF06F0E4CF05F0E4CF83
:1027B00004F0E4CF03F0E4CF02F0E4CF01F0E4CF83
:1027C00000F0E4CFD9FF120000C0E5FF01C0E5FF33
:1027D00002C0E5FF03C0E5FFACA276D089EC1EF095
:1027E000006E005005E10A014B6B0A014A6B6CD088
:1027F0004BCA01F00050012689EC1EF0026E000663
:102800000250230A1FE1010E005CD8A05BD089ECC6
:102810001EF0026E690A03E1E2EC1CF053D0025094
:10282000720A03E16CEC20F04DD00250730A01E013
:1028300049D08B80AB869D8A9D98AE50AE50AB98A8
:10284000AB8840D00250430A05E00250420A01E042
:1028500039D001D0008E00C0ECFA00500A01006FA0
:10286000010E0A01ED6F0A014B51011814E089ECC9
:102870001EF0026E0A01EC27000E0A01ED25006E23
:10288000036A0A0E032200C0E9FF03C0EAFF02C088
:10289000EFFFED2BE8D7000E0A01ED25006E026A6E
:1028A0000A0E02220A01EC1D036E032A00C0E9FF92
:1028B00002C0EAFF03C0EFFF0A01ED2BEDCAEAFAFE
:1028C0000A01E46B01C04BFAE4CF03F0E4CF02F05D
:1028D000E4CF01F0E4CF00F01200D9CFE5FFE1CF63
:1028E000D9FF00C0E5FF01C0E5FF02C0E5FF03C05E
:1028F000E5FF04C0E5FF05C0E5FF06C0E5FF07C032
:10290000E5FF020EDBCF00F0030EDBCF01F0040E7B
:10291000DBCF02F0050EDBCF03F002C006F006505D
:10292000046E800A33E100C0E9FF01C0F3FF0250EA
:10293000E3EC1EF0056EF3CF06F0F4CF07F003C012
:10294000E5FF05C0E9FF06C0F3FF07508EEC20F05D
:1029500000C0E9FF01C0F3FF0250E3EC1EF0056E7A
:10296000F3CF06F0F4CF07F0052A02E3064A072A60
:1029700005C0E5FF06C0F4FF07C0F6FF00C0E9FF91
:1029800001C0F3FF025034EC20F01DD004AA1BD08C
:10299000047A045004E1035006EC00F014D0045013
:1029A000010A04E1035002EC00F00DD004500F0ABC
:1029B00004E10350B1EC1CF006D004500E0A03E110
:1029C0000350D1EC20F0E4CF07F0E4CF06F0E4CFE1
:1029D00005F0E4CF04F0E4CF03F0E4CF02F0E4CF5D
:1029E00001F0E4CF00F0E4CFD9FF1200DFEC1FF0DC
:1029F0008A988A968A948A928A8A8A909396006A9A
:102A000093B6002A0050010BE838F46E9350EF0B98
:102A1000F410936E006A93B8002A0050010BE83856
:102A2000E844F46E9350DF0BF410936EBD9ABD989A
:102A3000BE6A0C0EBD6E666EBA80FF0EBB68BA84AD
:102A4000B96AB986636A3BEC12F0100EE56E000EAF
:102A5000E56ACCEC18F0E652E652ACEC20F046CA3F
:102A6000E3FA3AEC1DF0006EF3CF01F0F4CF02F080
:102A7000E9CF03F0AAEC11F064EC0BF03AEC1DF096
:102A8000046EF3CF05F0F4CF06F0E9CF07F0005065
:102A9000045E0150055A0250065A0350075A079E19
:102AA000000E075C08E1000E065C05E1130E055CF4
:102AB00002E1890E045CDEE33AEC1DF0006EF3CF18
:102AC00001F0F4CF02F0E9CF03F0020EE56EC1ECA5
:102AD00007F0E652E3CA04F00A01E3070450CAE132
:102AE00046CAE3FA000EE56E410EE56E480EE56E4D
:102AF000DFEC1AF0030EE126BDD71200D9CFE5FFB7
:102B0000E1CFD9FF00C0E5FF01C0E5FF02C0E5FF4E
:102B100003C0E5FF04C0E5FF05C0E5FF06C0E5FF13
:102B200007C0E5FF020EDBCF00F0030EDBCF01F0A4
:102B3000040EDBCF02F0050EDBCF03F04BCA4CFADC
:102B40000A014A510A014C5F4C0703C004F0056AB0
:102B5000030E0426D8B0052A4CCA06F0076A0750AF
:102B6000800FF36E0550800FF35C02E10450065CA9
:102B700002E2E8682BD0020E035C02E2E86A26D08B
:102B800003060350E56E9BEC1BF0E652046A03500B
:102B9000045C14E204500024056EE86A0120066E0D
:102BA000E86A022005C0E9FF06C0F3FF03EC20F04D
:102BB000042AE56E9BEC1BF0E652E9D74BCA4CFAAF
:102BC0000A014A510A014C5F4C07E86AE4CF07F05A
:102BD000E4CF06F0E4CF05F0E4CF04F0E4CF03F057
:102BE000E4CF02F0E4CF01F0E4CF00F0E4CFD9FF6E
:102BF0001200D9CFE5FFE1CFD9FF00C0E5FF01C04A
:102C0000E5FF02C0E5FF03C0E5FF04C0E5FF05C026
:102C1000E5FF020EDBCF00F0030EDBCF01F0040E68
:102C2000DBCF02F00050020DF450036EF3CF00F042
:102C3000640E0024046E0A0E0320056E04C0E9FF32
:102C400005C0EAFF01C0EEFF02C0EFFF740E0024D2
:102C5000046E0A0E0320056E04C0E9FF05C0EAFFFA
:102C6000EECF04F0EFCF05F00150045C016E02508E
:102C70000558026EA40E00260A0E032200C0E9FFCA
:102C800003C0EAFF01C0EEFF02C0EFFFD88002AE32
:102C9000D89004E3021E016CD8B4022A0250800FBF
:102CA000800F02E1030E015C02E2016A026A015038
:102CB000021007E100C0E9FF03C0EAFF000EEE6A60
:102CC000EF6AE4CF05F0E4CF04F0E4CF03F0E4CF03
:102CD00002F0E4CF01F0E4CF00F0E4CFD9FF12001E
:102CE000D9CFE5FFE1CFD9FF00C0E5FF01C0E5FF87
:102CF00002C0E5FF03C0E5FF04C0E5FF05C0E5FF36
:102D000006C0E5FF020EDBCF00F0030EDBCF01F0C3
:102D1000040EDBCF02F0050EDBCF03F0D88001AE4E
:102D2000D890046A0436045007E0011C066E001CAB
:102D3000056E054A062A04D000C005F001C006F061
:102D4000D88003AED89007E3031C016E021C006E0E
:102D5000004A012A04D002C000F003C001F0015073
:102D6000E56E0050E56E0650E56E0550E56E14EC1C
:102D700018F0006EF3CF01F0040EE12604500AE0D3
:102D8000011C036E001C026E024A032A03C0F3FFFB
:102D9000025003D001C0F3FF0050E4CF06F0E4CFAF
:102DA00005F0E4CF04F0E4CF03F0E4CF02F0E4CF89
:102DB00001F0E4CF00F0E4CFD9FF1200D9CFE5FF56
:102DC000E1CFD9FF00C0E5FF01C0E5FF02C0E5FF8C
:102DD00003C0E5FF04C0E5FF05C0E5FF020EDBCF41
:102DE00000F0030EDBCF01F0040EDBCF02F0050E86
:102DF000DBCF03F0E1CA04F0E2CA05F00A01E13FCB
:102E000001D0E22B0350E56E0450E56EB5EC1DF0E9
:102E1000E652E652E1CA04F0E2CA05F00A01E13FD7
:102E200001D0E22B0250056EE56E0450E56EB5EC64
:102E30001DF0E652E652E1CA04F0E2CA05F00A01CA
:102E4000E13F01D0E22B0150056EE56E0450E56EC6
:102E5000B5EC1DF0E652E652E1CA04F0E2CA05F014
:102E60000A01E13F01D0E22B0050E56E0450E56E0F
:102E7000B5EC1DF0E652E652E4CF05F0E4CF04F0E5
:102E8000E4CF03F0E4CF02F0E4CF01F0E4CF00F0B0
:102E9000E4CFD9FF1200D9CFE5FFE1CFD9FF00C0C1
:102EA000E5FF01C0E5FF02C0E5FF03C0E5FF04C088
:102EB000E5FF05C0E5FF06C0E5FF020EDBCF00F031
:102EC000030EDBCF01F0040EDBCF02F00A01F45158
:102ED00019E1CBEC12F0036EF3CF04F0F4CF05F060
:102EE000E9CF06F003C0E5FF04C0F4FF05C0F6FF1C
:102EF00006C0F7FF00C0E9FF01C0F3FF025014EC69
:102F000020F01ED00A01F451010A1AE100C0E9FFC5
:102F100001C0F3FF025069EC1EF0006EF3CF01F028
:102F2000F4CF02F0E9CF03F00350E56E0250E56EF6
:102F30000150E56E0050E56EDEEC16F0040EE12661
:102F4000E4CF06F0E4CF05F0E4CF04F0E4CF03F0E3
:102F5000E4CF02F0E4CF01F0E4CF00F0E4CFD9FFFA
:102F60001200D9CFE5FFE1CFD9FF00C0E5FF01C0D6
:102F7000E5FF02C0E5FF03C0E5FF04C0E5FF05C0B3
:102F8000E5FF06C0E5FF020EDBCF00F0030EDBCF4E
:102F900001F0040EDBCF02F0050EDBCF03F0060ECE
:102FA000DBCF04F0070EDBCF05F0080EDBCF06F019
:102FB000D88003AED89015E306500A0A12E104C087
:102FC000E9FF05C0EAFF2D0EEF6E044A052A031E35
:102FD000021E011E006C05E1012A03E1022AD8B499
:102FE000032A0650E56E0550E56E0450E56E035069
:102FF000E56E0250E56E0150E56E0050E56E9AEC0C
:103000000FF0070EE126E4CF06F0E4CF05F0E4CFA1
:1030100004F0E4CF03F0E4CF02F0E4CF01F0E4CF1A
:1030200000F0E4CFD9FF1200D9CFE5FFE1CFD9FFFF
:1030300000C0E5FF01C0E5FF02C0E5FF03C0E5FFFA
:1030400004C0E5FF05C0E5FF06C0E5FF020EDBCFCB
:1030500000F0030EDBCF01F0040EDBCF02F0050E13
:10306000DBCF03F0046A056A0350800BE844066E68
:10307000065011E10250022603360350015C02E1C2
:103080000250005C04E2D8900332023204D0052AD8
:1030900005C004F0E9D70350015C02E10250005C76
:1030A00004E30250005E0350015AD890033202320A
:1030B00004C005F004060550EEE101C0F3FF005026
:1030C000E4CF06F0E4CF05F0E4CF04F0E4CF03F062
:1030D000E4CF02F0E4CF01F0E4CF00F0E4CFD9FF79
:1030E000120000C0E5FF01C0E5FF02C0E5FF64EC8F
:1030F0001DF0006E4C0A03E164EC1DF046D0005058
:10310000450A27E1000EE56E410EE56E520EE56EB2
:10311000DFEC1AF0030EE126CBEC20F0006E00C0CD
:1031200001F001C002F0010602500FE064EC1DF056
:10313000E56AE56E000EE56E410EE56E540EE56E35
:10314000DFEC1AF0050EE126ECD70A0EB1EC1CF00C
:103150001CD00050530A19E164EC1DF0016ED00E32
:103160000124006E016A005001E1012A0150D8805B
:10317000E866D890016A01360150E56E12EC1AF04B
:10318000E6520050D8B499EC20F0E4CF02F0E4CF3E
:1031900001F0E4CF00F01200D9CFE5FFE1CFD9FF75
:1031A00000C0E5FF01C0E5FF02C0E5FF03C0E5FF89
:1031B00004C0E5FF05C0E5FF06C0E5FF020EDBCF5A
:1031C00000F0030EDBCF01F00038E8441F0B026E65
:1031D000036AF50E02260A0E032202C0E9FF03C0AD
:1031E000EAFFEFCF04F0070E0014056E010E066E25
:1031F000055005E0E86CD8900636010FFDE3065057
:10320000041202C0E9FF03C0EAFF04C0EFFF026A34
:10321000B40E00260A0E022200C0E9FF02C0EAFF37
:1032200001C0EFFFE4CF06F0E4CF05F0E4CF04F0F7
:10323000E4CF03F0E4CF02F0E4CF01F0E4CF00F0FC
:10324000E4CFD9FF120000C0E5FF01C0E5FF02C0D6
:10325000E5FF03C0E5FF64EC1DF0006E010A0AE023
:103260000050020A0CE00050030A0EE00050FF0A72
:1032700032E033D064EC1DF00A01476F2ED064ECCD
:103280001DF00A01466F29D064EC1DF0036E026A3E
:1032900064EC1DF0016A0226015003220250020B69
:1032A000E840010BE838E844F46EBD50DF0BF41041
:1032B000BD6E0250010B010BE838F46EBD50EF0BF0
:1032C000F410BD6E0334033202320334033202328F
:1032D0000250BE6E02D099EC20F0E4CF03F0E4CFB0
:1032E00002F0E4CF01F0E4CF00F01200D9CFE5FF07
:1032F000E1CFD9FF00C0E5FF01C0E5FF02C0E5FF57
:1033000003C0E5FF04C0E5FF020EDBCF00F0030EB3
:10331000DBCF01F0040EDBCF02F00A01F45111E122
:103320004BEC1CF0036EF3CF04F003C0E5FF04C0C8
:10333000F4FF00C0E9FF01C0F3FF02505FEC20F092
:1033400016D00A01F451010A12E100C0E9FF01C0E0
:10335000F3FF02508CEC1FF0006EF3CF01F0015030
:10336000E56E0050E56E5EEC1BF0E652E652E4CFEF
:1033700004F0E4CF03F0E4CF02F0E4CF01F0E4CFB7
:1033800000F0E4CFD9FF12007C0EF66E410EF76E0E
:10339000000EF86E0900F550056E0900F550066E36
:1033A00004E1056702D011EF1AF00900F550006E34
:1033B0000900F550016E0900F550026E0900090080
:1033C000F550E96E0900F550EA6E090009000900A0
:1033D000F550036E0900F550046E09000900F6CFA0
:1033E00007F0F7CF08F0F8CF09F000C0F6FF01C0F2
:1033F000F7FF02C0F8FF035002E1045007E00900A4
:10340000F550EE6E0306F8E20406F9D707C0F6FFA2
:1034100008C0F7FF09C0F8FF050601E20606D0EF75
:1034200019F01200D9CFE5FFE1CFD9FF00C0E5FFC9
:1034300001C0E5FF02C0E5FF03C0E5FF04C0E5FFF2
:1034400005C0E5FF020EDBCF00F00050010A24E1C9
:10345000016A026A036A840E0224046E0A0E0320C3
:10346000056E04C0E9FF05C0EAFFEE687F0EEF6E4F
:10347000940E0224046E0A0E0320056E04C0E9FFB8
:1034800005C0EAFFEE6AEF6A020E0226D8B0032AF0
:10349000012A080E015CDFE300C04FFAE4CF05F01B
:1034A000E4CF04F0E4CF03F0E4CF02F0E4CF01F086
:1034B000E4CF00F0E4CFD9FF120000C0E5FF01C067
:1034C000E5FF02C0E5FF64EC1DF0006E64EC1DF04A
:1034D000016E0050026ED00E0224006E0A0E005CD7
:1034E00005E30050026EF90E0224006E0150026ED8
:1034F000D00E0224016E0A0E015C05E30150026E3B
:10350000F90E0224016E080E005C12E2100E015C3E
:10351000D8B00ED00038F00B0124006E11EC1CF076
:10352000016E015005E10050E56E18EC1FF0E65207
:10353000E4CF02F0E4CF01F0E4CF00F01200D9CFE5
:10354000E5FFE1CFD9FF00C0E5FF01C0E5FF02C004
:10355000E5FF03C0E5FF04C0E5FF020EDBCF00F08E
:103560000038E8441F0B016E026AF50E01260A0EB0
:10357000022201C0E9FF02C0EAFFEFCF03F0070E0D
:103580000016010E046E005005E0E86CD890043679
:10359000010FFDE3041C031601C0E9FF02C0EAFFAE
:1035A00003C0EFFFE4CF04F0E4CF03F0E4CF02F078
:1035B000E4CF01F0E4CF00F0E4CFD9FF1200D9CF7F
:1035C000E5FFE1CFD9FF00C0E5FF01C0E5FF02C084
:1035D000E5FF020ED924006E000EDA20016E800E87
:1035E000026E030E0026000E012202220250E56E3A
:1035F0000150E56E0050E56E040EDBCFE5FF030ED3
:10360000DBCFE5FF020EDBCFE5FF0A01DA51E56E05
:10361000D951E56ED851E56E0EEC00F0006EF3CF97
:1036200001F0090EE12601C0F3FF0050E4CF02F0E3
:10363000E4CF01F0E4CF00F0E4CFD9FF1200D9CFFE
:10364000E5FFE1CFD9FF00C0E5FF01C0E5FF02C003
:10365000E5FF03C0E5FF020EDBCF00F0030EDBCF7A
:1036600001F0040EDBCF02F00A01F4510DE176EC1B
:103670001FF0036E03C0E5FF00C0E9FF01C0F3FFC8
:1036800002508EEC20F00FD00A01F451010A0BE138
:1036900000C0E9FF01C0F3FF025003EC20F0E56E2B
:1036A00003EC1EF0E652E4CF03F0E4CF02F0E4CFE7
:1036B00001F0E4CF00F0E4CFD9FF1200D9CFE5FF4D
:1036C000E1CFD9FF00C0E5FF01C0E5FF02C0E5FF83
:1036D00003C0E5FF020EDBCF00F0030EDBCF01F0ED
:1036E000E1CA02F0E2CA03F00A01E13F01D0E22B95
:1036F0000150E56E0250E56EB5EC1DF0E652E65263
:10370000E1CA02F0E2CA03F00A01E13F01D0E22B74
:103710000050E56E0250E56EB5EC1DF0E652E65243
:10372000E4CF03F0E4CF02F0E4CF01F0E4CF00F007
:10373000E4CFD9FF1200D9CFE5FFE1CFD9FF00C018
:10374000E5FF01C0E5FF02C0E5FF03C0E5FF04C0DF
:10375000E5FF020EDBCF00F04ACA01F0026A014A1F
:10376000022A4BCA03F0046A0150031803E1025015
:10377000041801E001D00ED0000E0A014A25016EA6
:10378000026A070E022201C0E9FF02C0EAFF00C080
:10379000EFFF4A2BE4CF04F0E4CF03F0E4CF02F0D4
:1037A000E4CF01F0E4CF00F0E4CFD9FF1200F3CF73
:1037B000E5FFF4CFE5FFE9CFE5FFEACFE5FFFACF7C
:1037C000E5FFFBCFE5FF0A0148510F01366F0A0103
:1037D00049510F01376FD650346FD750356FF2A46F
:1037E00011D00A01483F01D0492BF2940A014851F7
:1037F0000F01366F0A0149510F01376FD650346FF0
:10380000D750356FA3EC20F0E4CFFBFFE4CFFAFFF5
:10381000E4CFEAFFE4CFE9FFE4CFF4FFE4CFF3FF26
:10382000110000C0E5FF01C0E5FF02C0E5FF010E89
:10383000006E64EC1DF0016E01C002F0015023E047
:103840000050E56E43EC20F0016EE652015010E1AD
:103850000A0E005C0BE20A0E006EE56E43EC20F0EF
:10386000016EE652015004E1E8680ED0E8680CD021
:103870000150021802E0E86807D0002A1B0E005C25
:10388000D8E3E86801D0E86AE4CF02F0E4CF01F0C1
:10389000E4CF00F0120000C0E5FF01C0E5FF02C068
:1038A000E5FF03C0E5FFE1CA00F0E2CA01F00A014A
:1038B000E13F01D0E22B0050E56E43EC20F0E652F0
:1038C000036E026AE1CA00F0E2CA01F00A01E13FB8
:1038D00001D0E22B0050E56E43EC20F0E652016A85
:1038E00002120150031203C0F3FF0250E4CF03F0B1
:1038F000E4CF02F0E4CF01F0E4CF00F01200D9CF22
:10390000E5FFE1CFD9FF00C0E5FF01C0E5FF02C040
:10391000E5FF03C0E5FF04C0E5FF020EDBCF00F0CA
:10392000030EDBCF01F0040EDBCF02F0050EDBCF80
:1039300003F0060EDBCFE9FF070EDBCFEAFF080E30
:10394000DBCF04F040EC04F0E4CF04F0E4CF03F06C
:10395000E4CF02F0E4CF01F0E4CF00F0E4CFD9FFF0
:10396000120000C0E5FF01C0E5FF02C0E5FF006EE8
:10397000230E0A014E25016E026A0A0E022201C0C0
:10398000E9FF02C0EAFF00C0EFFF220E4E5D01E238
:103990004E2B00500A0A0FE10A014E51E56E800ECF
:1039A000E56E0A0EE56E230EE56E7EEC15F0040E54
:1039B000E1260A014E6BE4CF02F0E4CF01F0E4CF40
:1039C00000F012000A014A6B0A014B6B0A014C69B4
:1039D0008B809490B06A3F0EAF6EB886AC8AAC8490
:1039E000AC8CAC90AB8CAB8E0A01EB6B0A01E56B37
:1039F0000A01E86B0A01E96B0A01EA6B000EE56A4D
:103A000043EC20F00A014D6FE6529F989F9A0A01FD
:103A1000D86BD96B2F0EDA6F6CEC20F01200D9CF77
:103A2000E5FFE1CFD9FF00C0E5FF01C0E5FF02C01F
:103A3000E5FF03C0E5FF020EDBCF00F0030EDBCF96
:103A400001F0040EDBCF02F0050EDBCF03F0060E13
:103A5000DBCFE9FF070EDBCFEAFF0EEC0AF0E4CF85
:103A600003F0E4CF02F0E4CF01F0E4CF00F0E4CFC4
:103A7000D9FF12000A0148510A01BE6F0A014951DB
:103A80000A01BF6FD650BC6FD750BD6FBE510A013F
:103A9000481905E10A01BF510A0149190CE00A0160
:103AA00048510A01BE6F0A0149510A01BF6FD65041
:103AB000BC6FD750BD6FBFCAE9FFBECAF4FFBDCA15
:103AC000F3FF0A01BC51120000C0E5FF01C0E5FF91
:103AD0000A01E9510A01F21905E00A01E9510A0156
:103AE000E81902E1E86A15D0E9CA00F00A01E92BF9
:103AF000016A600E0026000E012200C0E9FF01C02D
:103B0000EAFFEFCF00F0E951800A02E10A01E96B18
:103B10000050E4CF01F0E4CF00F01200D8CFE5FF71
:103B2000E0CFE5FFE56EF3CFE5FFF4CFE5FFE9CFAA
:103B3000E5FFEACFE5FFFACFE5FFFBCFE5FF9CEC21
:103B40000EF0E4EC20F0E4CFFBFFE4CFFAFFE4CF8B
:103B5000EAFFE4CFE9FFE4CFF4FFE4CFF3FFE45062
:103B6000E4CFE0FFE4CFD8FF1000D9CFE5FFE1CFED
:103B7000D9FF00C0E5FF020EDBCF00F0030EDBCF64
:103B8000A8FF00C0A9FFA69EA69CA684F29EF29C58
:103B9000550EA76EAA0EA76EA682A6A202D000009E
:103BA000FCD7E86AA6B6E82AA694F28EF28CE4CF97
:103BB00000F0E4CFD9FF1200D9CFE5FFE1CFD9FF64
:103BC00000C0E5FF01C0E5FF020EDBCF00F00050B2
:103BD000020DF450016EF3CF00F0A40E00260A0E81
:103BE000012200C0E9FF01C0EAFFEECF00F0EFCFF5
:103BF00001F001C0F3FF0050E4CF01F0E4CF00F08A
:103C0000E4CFD9FF1200D9CFE5FFE1CFD9FF00C043
:103C1000E5FF01C0E5FF02C0E5FF020EDBCF00F0CB
:103C2000E1CA01F0E2CA02F00A01E13F01D0E22B51
:103C30000050E56E0150E56EB5EC1DF0E652E6521F
:103C4000E4CF02F0E4CF01F0E4CF00F0E4CFD9FFFD
:103C500012000A019D51E56E9C51E56E9B51E56E87
:103C60009A51E56E9951E56E9851E56E9751E56E62
:103C70009651E56E9551E56E9451E56E000EE56E38
:103C8000250EE56E800EE56EDFEC1AF00D0EE126D6
:103C900012000A018D51E56E8C51E56E8B51E56E77
:103CA0008A51E56E8951E56E8851E56E8751E56E62
:103CB0008651E56E8551E56E8451E56E000EE56E28
:103CC000250EE56E6A0EE56EDFEC1AF00D0EE126AC
:103CD0001200E8AE0AD0F3CFEAFFEE50EECFF3FFCA
:103CE000EECFF4FFEECFE9FF1200E8BCDCEF20F0EE
:103CF000E9CFF6FFF3CFF7FFF86E0900F5500900A2
:103D0000F5CFF3FF0900F5CFF4FF0900F5CFE9FF88
:103D1000120000C0E5FF01C0E5FF0A014A510A0197
:103D20004B1902E1E86A0FD0000E0A014B25006E24
:103D3000016A070E012200C0E9FF01C0EAFFEFCFD0
:103D400000F04B2B0050E4CF01F0E4CF00F0120064
:103D5000F2CFEAFFF29EA69EA69CA684E9CFA9FF19
:103D6000F3CFAAFFE4CFA8FFB5EC20F0F4CFA8FF73
:103D7000B5EC20F0F6CFA8FFB5EC20F0F7CFA8FF08
:103D8000B5EC20F0A694EABEF28E1200F2CFF6FF58
:103D9000F29EA69EA69CE9CFA9FFF3CFAAFFA6801C
:103DA000A850A94AAA2AA680A8CFF3FFA94AAA2AFE
:103DB000A680A8CFF4FFA94AAA2AA680A8CFEAFF26
:103DC000F6BEF28E1200E8AE08D0F3CFEAFFEE5056
:103DD000EECFF3FFEECFF4FF1200E8BCDEEF20F0F1
:103DE000E9CFF6FFF3CFF7FFF86E0900F5500900B1
:103DF000F5CFF3FF0900F5CFF4FF1200F2CFEAFF91
:103E0000F29EA69EA69CA684E9CFA9FFF3CFAAFFA7
:103E1000E4CFA8FFB5EC20F0F4CFA8FFB5EC20F07C
:103E2000F6CFA8FFB5EC20F0A694EABEF28E120001
:103E3000D9CFE5FFE1CFD9FF00C0E5FF020EDBCF10
:103E400000F000C04DFA0050E56E000EE56AB5ECDA
:103E50001DF0E652E652E4CF00F0E4CFD9FF1200A5
:103E6000F2CFF6FFF29EA69EA69CE9CFA9FFF3CF64
:103E7000AAFFA680A850A94AAA2AA680A8CFF3FF25
:103E8000A94AAA2AA680A8CFF4FFF6BEF28E120095
:103E900000C0E5FF01C0E5FF600E0A01E925006EE4
:103EA000016A000E012200C0E9FF01C0EAFFEFCF66
:103EB00000F00050E4CF01F0E4CF00F01200D9CFC1
:103EC000E5FFE1CFD9FF00C0E5FF020EDBCF00F038
:103ED000610E005C05E37B0E005C02E2010E01D086
:103EE000E86AE4CF00F0E4CFD9FF120000C0E5FF9C
:103EF00001C0E5FFE1CA00F0E2CA01F00A01E13FBA
:103F000001D0E22B0050E56E43EC20F0E652E4CF06
:103F100001F0E4CF00F01200E8AE06D0F3CFEAFFE4
:103F2000EE50EECFF3FF1200E8BCDAEF20F0E9CF5D
:103F3000F6FFF3CFF7FFF86E0900F5500900F5CF53
:103F4000F3FF1200F2CFEAFFF29EA69EA69CA68483
:103F5000E9CFA9FFF3CFAAFFE4CFA8FFB5EC20F08B
:103F6000F4CFA8FFB5EC20F0A694EABEF28E1200C2
:103F700018EEFFF028EEFFF0F86AA68EA69CE9681E
:103F80000E0EEA6E0068000EED6A0050FDE1C4EC12
:103F900019F0F6EC14F0FFD7F2CFF6FFF29EA69ED2
:103FA000A69CE9CFA9FFF3CFAAFFA680A850A94AF3
:103FB000AA2AA680A8CFF3FFF6BEF28E1200C5ECA7
:103FC00020F0E2EC1CF0D58ED59CD59AD588D596FC
:103FD000D594D582D580F28AF184D08EF28EF28C7F
:103FE0001200F2CFEAFFF29EA69EA69CA684E9CF1D
:103FF000A9FFF3CFAAFFE4CFA8FFB5EC20F0A69469
:10400000EABEF28E1200E8AE04D0F3CFEAFFEE5023
:104010001200E8BC0AEF00F0E9CFF6FFF3CFF7FF9C
:10402000F86E0900F5501200E8AE0BD0F3CFEAFFAE
:10403000E4CFEEFFF4CFEEFFF6CFEEFFF7CFEEFFCB
:104040001200E8BCD6EF20F01200FF0000000000D4
:10405000FF00000007000000004200000000000018
:104060000000000000000000E8AE09D0F3CFEAFF36
:10407000E4CFEEFFF4CFEEFFF6CFEEFF1200E8BC88
:10408000E0EF20F01200D9CFE5FFE1CFD9FF020E1B
:10409000DBCFA9FFA69CA69EA680A850E4CFD9FF9F
:1040A0001200F2CFF6FFF29EA69EA69CE9CFA9FFD2
:1040B000F3CFAAFFA680A850F6BEF28E1200E8AE9B
:1040C00007D0F3CFEAFFE4CFEEFFF4CFEEFF12000C
:1040D000E8BCD4EF20F01200ACA2FED78B80AE502B
:1040E0000000AE50AB98AB88AB869D8A9D981200BD
:1040F000700ED36E9B8CFF0E9268936894689668DE
:10410000626AF19E120000C0E5FF11EC1CF0006E27
:10411000005001E1FF00E4CF00F01200E8AE05D04E
:10412000F3CFEAFFE4CFEEFF1200E8BCD8EF20F0B7
:104130001200010E0A01F46F1C0E0A01E16FE26B1E
:10414000C8EC20F01200120043732048656C6C6FBD
:104150000A004300256300000A01F46B1C0E0A01EB
:10416000E16FE26BC8EC20F01200550EA76EAA0EAC
:10417000A76EA682A6B2FED7A94AAA2A01004A4083
:104180000000460A00001E00000078EC20F012003B
:1041900076EC10F012000A01F351120064EC1DF0ED
:1041A0001200E8CF7FFF1200A2EF1FF0A8EF1EF071
:1041B000F1EF1FF0CCEF1FF0C6EF1EF030EF1FF055
:0A41C000FEEF1EF0120012001200C4
:00000001FF
