:020000040000FA
:10000000EEEF21F0C96E1200EEEF1AF078EC19F065
:10001000DAEC19F0FDD71200C7EF1FF0D9CFE5FFDA
:10002000E1CFD9FF00C0E5FF01C0E5FF02C0E5FF59
:1000300003C0E5FF04C0E5FF05C0E5FF06C0E5FF1E
:1000400007C0E5FF08C0E5FF09C0E5FF0AC0E5FFFE
:100050000BC0E5FF0CC0E5FF0DC0E5FF0EC0E5FFDE
:100060000FC0E5FF10C0E5FF11C0E5FF12C0E5FFBE
:1000700013C0E5FF14C0E5FF15C0E5FF16C0E5FF9E
:1000800017C0E5FF18C0E5FF19C0E5FF1AC0E5FF7E
:100090001BC0E5FF1CC0E5FF1DC0E5FF1EC0E5FF5E
:1000A000020EDBCF00F0030EDBCF01F0040EDBCF3E
:1000B00002F0050EDBCF03F0060EDBCF04F0070ED7
:1000C000DBCF05F0080EDBCF06F0090EDBCF07F023
:1000D0000A0EDBCF08F0096A0A6A02C00DF00D5063
:1000E000800A0DE1025003019B6F01509A6F00508E
:1000F000996F030E016E990E006E800E026E03C0A2
:10010000E9FF04C0F3FF055049EC22F00B6E0B50E1
:10011000D8B4C4EF03F00B50250A02E0ABEF03F0B4
:100120000C6A0D6A0E6A0F6A106A0A0E116E126A64
:10013000136A146A200E156E1668176A2B0E186E55
:10014000032A02E3044A052A03C0E9FF04C0F3FFBF
:10015000055049EC22F0196E250A13E11950E56E9D
:100160000250E56E0150E56E0050E56ECBEC13F0E9
:10017000040EE126094A0A2A032A02E3044A052A50
:10018000BED71950300A06E1300E156E032A02E37D
:10019000044A052A03C0E9FF04C0F3FF055049ECF7
:1001A00022F02D0A06E1010E146E032A02E3044A2E
:1001B000052A03C0E9FF04C0F3FF055049EC22F013
:1001C000200A08E1010E176E200E186E032A02E3C2
:1001D000044A052A03C0E9FF04C0F3FF055049ECB7
:1001E00022F02B0A06E1010E176E032A02E3044AED
:1001F000052A03C0E9FF04C0F3FF055049EC22F0D3
:10020000196E310E195C2BE33A0E195C28E203C01B
:1002100019F004C01AF005C01BF019C0E9FF1AC09C
:10022000F3FF1B5049EC22F01C6E300E1C5C11E3F6
:100230003A0E1C5C0EE213500A0DF3CF1DF01C5059
:100240001D26D00E1D24136E192A02E31A4A1B2AFA
:10025000E4D719C003F01AC004F01BC005F003C0B6
:10026000E9FF04C0F3FF055049EC22F02E0A2DE10E
:10027000032A02E3044A052A166A03C019F004C0DF
:100280001AF005C01BF019C0E9FF1AC0F3FF1B509C
:1002900049EC22F01C6E300E1C5C11E33A0E1C5C23
:1002A0000EE216500A0DF3CF1DF01C501D26D00E85
:1002B0001D24166E192A02E31A4A1B2AE4D719C014
:1002C00003F01AC004F01BC005F003C0E9FF04C02E
:1002D000F3FF055049EC22F0196E6C0A07E1010E9C
:1002E0000C6E032A02E3044A052A09D01950680A51
:1002F00006E1010E0E6E032A02E3044A052A03C03A
:10030000E9FF04C0F3FF055049EC22F0750A06E14D
:10031000010E106E032A02E3044A052A03C0E9FF16
:1003200004C0F3FF055049EC22F0196E730A05E191
:10033000010E0D6E200E156E3FD01950780A03E1A4
:10034000100E116E39D01950580A05E1100E116EB9
:10035000010E126E31D01950630A02E1116A2CD0DD
:1003600019506F0A03E1080E116E26D01950660A63
:1003700003E1010E0F6E20D01950640A1DE01950E0
:10038000690A1AE0105005E0FF0E03260422052238
:1003900013D01950E56E0250E56E0150E56E005025
:1003A000E56ECBEC13F0040EE126094A0A2A032A73
:1003B00002E3044A052AA3D60D5021E00650030F9C
:1003C0000D6E000E0720196E000E08201A6E0DC06B
:1003D00006F019C007F01AC008F0FD0E0D26FF0E3A
:1003E00019221A220DC0E9FF19C0F3FF1A5003ECBD
:1003F00021F00D6EF3CF19F0F4CF1AF0FDD00F50AD
:100400000DE0000E1A6E080E196E100E0D6E040E21
:100410000626000E072208221668EED016680C5039
:1004200023E00650040F0C6E000E07200F6E000E26
:1004300008201B6E0CC006F00FC007F01BC008F0B0
:10044000FC0E0C26FF0E0F221B220CC0E9FF0FC072
:10045000F3FF1B5089EC20F00C6EF3CF0FF0F4CFBC
:100460001BF0E9CF1CF067D00E502FE00650020FB2
:100470000E6E000E07201D6E000E08201E6E0EC0B0
:1004800006F01DC007F01EC008F0FE0E0E26FF0E7F
:100490001D221E220EC0E9FF1DC0F3FF1E50C2EC3C
:1004A00021F00E6E0EC00CF00F6A1B6A1C6A115010
:1004B0000A0A03E11050D8B43ED00C500E6E0EC0A4
:1004C0000CF00F6A1B6A1C6A36D00650020F0E6EC3
:1004D000000E07201D6E000E08201E6E0EC006F0D6
:1004E0001DC007F01EC008F0FE0E0E26FF0E1D22D6
:1004F0001E220EC0E9FF1DC0F3FF1E50C2EC21F00A
:100500000E6EF3CF1DF00EC00CF01DC00FF0E86AA8
:100510001DBEFF0E1B6E1C6E11500A0A02E1105028
:100520000AE00C500E6E0F501D6E0EC00CF01DC078
:100530000FF01B6A1C6A040E196EF40E0D6E800E0D
:100540001A6E1150D8B440D0105013E01150E56E1F
:10055000040EE56EF40EE56E1C50E56E1B50E56E64
:100560000F50E56E0C50E56E54EC0FF0070EE126CF
:1005700012D01150E56E040EE56EF40EE56E1C50BF
:10058000E56E1B50E56E0F50E56E0C50E56E15ECF8
:1005900019F0070EE12617502FE00DC0E9FF19C032
:1005A000F3FF1A5049EC22F02D0A26E0FF0E0D262B
:1005B00019221A2218C0E5FF0DC0E9FF19C0F3FF88
:1005C0001A50C1EC22F018D00CC0E5FF0DC0E9FFB5
:1005D00019C0F3FF1A50C1EC22F00D50010F0C6E40
:1005E000000E19200E6E000E1A20E56A0CC0E9FFFD
:1005F0000EC0F3FFC1EC22F00DC00CF019C00EF0DC
:100600001AC00FF013C010F0105010E00CC0E9FF3A
:100610000EC0F3FF0F5049EC22F0176E175006E0A2
:100620000C2A02E30E4A0F2A1006EED710C013F070
:1006300014501EE109C00CF00AC00EF010C00FF0FB
:100640000F5010E01550E56E0250E56E0150E56E5A
:100650000050E56ECBEC13F0040EE1260C4A0E2A96
:100660000F06EED70CC009F00EC00AF00FC013F051
:1006700016C00CF00DC00DF019C00EF01AC00FF02E
:1006800009C010F00AC015F00DC0E9FF0EC0F3FF5D
:100690000F5049EC22F0166E1650D8B43ED00CC064
:1006A00016F0176A161E171E1650171005E00CC01C
:1006B00016F00C06165031E00DC0E9FF0EC0F3FF36
:1006C0000F5049EC22F0116E125010E01150E56EFF
:1006D0007FEC21F0166EE652165004E0DF0E111486
:1006E000166E02D011C016F016C011F01150E56E52
:1006F0000250E56E0150E56E0050E56ECBEC13F054
:10070000040EE1260D2A02E30E4A0F2A104A152A8A
:100710001350D8B4B9D71306B7D710C009F015C015
:100720000AF014502BE010C00CF015C00DF013C0EF
:100730000EF00E501FE0200EE56E0250E56E0150E7
:10074000E56E0050E56ECBEC13F0040EE1260C4A8A
:100750000D2A0E06EED70B50E56E0250E56E0150E5
:10076000E56E0050E56ECBEC13F0040EE126094A6D
:100770000A2A04D00CC009F00DC00AF0032A02E3D3
:10078000044A052A7FEF00F00AC0F3FF0950E4CFC6
:100790001EF0E4CF1DF0E4CF1CF0E4CF1BF0E4CF5B
:1007A0001AF0E4CF19F0E4CF18F0E4CF17F0E4CF5B
:1007B00016F0E4CF15F0E4CF14F0E4CF13F0E4CF5B
:1007C00012F0E4CF11F0E4CF10F0E4CF0FF0E4CF5B
:1007D0000EF0E4CF0DF0E4CF0CF0E4CF0BF0E4CF5B
:1007E0000AF0E4CF09F0E4CF08F0E4CF07F0E4CF5B
:1007F00006F0E4CF05F0E4CF04F0E4CF03F0E4CF5B
:1008000002F0E4CF01F0E4CF00F0E4CFD9FF120012
:100810003C4E4F20464C4F41543E000000C0E5FF87
:1008200001C0E5FF02C0E5FF03C0E5FF04C0E5FF2E
:1008300005C0E5FF06C0E5FF07C0E5FF08C0E5FF0E
:10084000C2A204D00401495154EF06F004014A51F8
:10085000D8B438D104014951020DF450016EF3CFE0
:1008600000F05A0E0026040E012200C0E9FF01C06C
:10087000EAFFEECF00F0EFCF01F0600E4925026EE7
:10088000036A030E032202C0E9FF03C0EAFFEFCFB1
:1008900002F00250FF0A01E16DD009C0E5FFF2CF7E
:1008A00009F0F29E02380F0B046E920E0424056EBE
:1008B000066A0F0E0622076A920E04260F0E072202
:1008C00004C0E9FF07C0EAFFEFCF04F00250076E53
:1008D000070E0716010E086E07500DE006E6E86CDD
:1008E000D8900836010FFDE306D0D89008BED88016
:1008F0000832010FFBE3081C076E0450071605C001
:10090000E9FF06C0EAFF07C0EFFF02380F0B046ED5
:10091000890E0424056E066A0F0E0622076A890EE8
:1009200004260F0E072204C0E9FF07C0EAFFEFCF3D
:1009300004F0070E0216010E076E02500DE006E6E7
:10094000E86CD8900736010FFDE306D0D89007BEBB
:10095000D8800732010FFBE3071C026E0450021619
:1009600005C0E9FF06C0EAFF02C0EFFF09BEF28E34
:10097000E4CF09F004014951020DF450036EF3CFA6
:1009800002F05A0E0226040E032200380F0B046EEA
:100990000138056EF00B051A042605320432F80EF4
:1009A00005B405260450005C046E05500158056E20
:1009B000C3CF00F0016A0050042601500522C4CFC5
:1009C00000F0016A0050076E066A065004260750C0
:1009D000052202C0E9FF03C0EAFF04C0EEFF05C024
:1009E000EFFF04014551010A01E06AD004014951B9
:1009F000020DF450016EF3CF00F05A0E0024026E87
:100A0000040E0120036E02C0E9FF03C0EAFFEECF2F
:100A100002F0EFCF03F0D30E0026040E012200C037
:100A2000E9FF01C0EAFFEECF04F0EFCF05F09C0E26
:100A30000426D8A005060350800FF36E0550800FE2
:100A4000F35C02E10450025C0EE20250640F046E9B
:100A5000000E0320056E00C0E9FF01C0EAFF04C0DC
:100A6000EEFF05C0EFFF04014951020DF450016E85
:100A7000F3CF00F0000E0026030E012200C0E9FFB4
:100A800001C0EAFFEECF04F0EFCF05F0640E0426BC
:100A9000D8B0052A0550800FF36E0350800FF35C29
:100AA00002E10250045C0CE29C0E0226D8A0030670
:100AB00000C0E9FF01C0EAFF02C0EEFF03C0EFFF84
:100AC00004014A6B0401492B100E495DD8B0496BF3
:100AD0004939E8441F0B006E016AA00E0026030E80
:100AE000012200C0E9FF01C0EAFFEFCF00F049C4D6
:100AF00001F0070E0116010E026E000E036E01508A
:100B000006E0E86CD89002360336010FFCE3046A75
:100B1000005002160450031602500310D880E866F5
:100B2000D890026A02360250D8A4BCD0700E0401DC
:100B30004925006E016A030E012200C0E9FF01C0D1
:100B4000EAFFEFCF00F00044E844FC0B016E0128FF
:100B5000C26E600E4925006E016A030E012200C0BC
:100B6000E9FF01C0EAFFEFCF00F00050FF0A01E10A
:100B700095D009C0E5FFF2CF09F0F29E00380F0BC7
:100B8000026E920E0224036E046A0F0E0422056A9E
:100B9000920E02260F0E052202C0E9FF05C0EAFFF1
:100BA000EFCF02F00050056E070E0516010E066E1F
:100BB00005500DE006E6E86CD8900636010FFDE31F
:100BC00006D0D89006BED8800632010FFBE3025053
:100BD000061203C0E9FF04C0EAFF06C0EFFF09BE2A
:100BE000F28EE4CF09F0380E016E0F0E026E00385F
:100BF0000F0B036E046A0350012604500222380EC4
:100C0000056E0F0E066E055003260650042203C023
:100C1000E9FF04C0EAFFEFCF03F0070E0016010E54
:100C2000046E00500DE006E6E86CD8900436010F23
:100C3000FDE306D0D89004BED8800432010FFBE358
:100C40000350041201C0E9FF02C0EAFF04C0EFFF35
:100C50000F0145830000000045930F01449309C034
:100C6000E5FFF2CF09F0F29E448100000000000091
:100C70000000000000000000000000000000000074
:100C80000000000000000000000000000000000064
:100C90000000449109BEF28EE4CF09F0C282010E39
:100CA00004014A6F04014951E4CF08F0E4CF07F092
:100CB000E4CF06F0E4CF05F0E4CF04F0E4CF03F096
:100CC000E4CF02F0E4CF01F0E4CF00F0120000C066
:100CD000E5FF01C0E5FF02C0E5FF03C0E5FF04C07A
:100CE000E5FF05C0E5FF06C0E5FF07C0E5FF08C05A
:100CF000E5FF09C0E5FF0AC0E5FF0BC0E5FF0CC03A
:100D0000E5FF006A016A026A040E025CD8B0EBD10A
:100D1000100E015CD8B0E7D1012A04014B2B100E54
:100D20004B5DD8B04B6B4B39E8441F0B036E046A24
:100D3000A00E0326030E042203C0E9FF04C0EAFF4D
:100D4000EFCF03F04BC404F0070E0416010E056E3E
:100D5000000E066E045006E0E86CD89005360636A4
:100D6000010FFCE3076A03500516075006160550ED
:100D70000610D880E866D890056A05360550D8A4D4
:100D8000C3D704014B51020DF450046EF3CF03F0AE
:100D90005A0E0324056E040E0420066E05C0E9FFFA
:100DA00006C0EAFFEECF05F0EFCF06F048C407F02B
:100DB00007A09DD0D30E0324076E040E0420086EF6
:100DC00007C0E9FF08C0EAFFEECF07F0EFCF08F059
:100DD0000650800FF36E0850800FF35C02E107505D
:100DE000055C03E2056A066A60D0000E0326030E66
:100DF000042203C0E9FF04C0EAFFEECF03F0EFCF07
:100E000004F00450800FF36E0650800FF35C02E193
:100E10000550035C04E205683F0E066E46D007509D
:100E2000055C096E085006580A6EE86A0ABEFF0E95
:100E30000B6EE56E0B50E56E0A50E56E0950E56EDF
:100E4000E56AE56A400EE56E000EE56A4AEC0EF0D2
:100E5000096EF3CF0AF0F4CF0BF0E9CF0CF0080ED7
:100E6000E1260750035C076E08500458086EE86AD4
:100E700008BEFF0E036EE56E0350E56E0850E56E8A
:100E80000750E56E0C50E56E0B50E56E0A50E56EAE
:100E90000950E56E21EC12F0036EF3CF04F0080E5A
:100EA000E1260350056E0450066E04014751800F81
:100EB000F36E0650800FF35C02E10550465D03E3DC
:100EC000056A066A14D004014651FF08036E3F0EFE
:100ED0004755046E0650800FF36E0450800FF35C8C
:100EE00002E10350055C03E305683F0E066E040152
:100EF0004B51020DF450046EF3CF03F0B30E0326F2
:100F0000040E042203C0E9FF04C0EAFFEECF03F0A1
:100F1000EFCF04F00350055C036E04500658046ED6
:100F2000D88004AED89004E3041E036CD8B4042A1D
:100F3000022A04014751800FF36E0450800FF35CC6
:100F400002E10350465DD8B0DFD604014B51020DDB
:100F5000F450046EF3CF03F0B30E0326040E042204
:100F600003C0E9FF04C0EAFF05C0EEFF06C0EFFFC3
:100F700048C403F003A459D04B51020DF450046E41
:100F8000F3CF03F0200E0324076E030E0420086E37
:100F900007C0E9FF08C0EAFFEECF09F0EFCF0AF083
:100FA00009500A10D8B441D0930E0326040E04222F
:100FB00003C0E9FF04C0EAFFEECF03F0EFCF04F077
:100FC0000350055C036E04500658046E03101CE0C9
:100FD0000450800F800F02E1010E035C0B6A0B3698
:100FE0000A50800F800F02E1010E095C096A093680
:100FF0000B50091809E107C0E9FF08C0EAFF03C068
:10100000EEFF04C0EFFF80D604014B51020DF450F7
:10101000046EF3CF03F0200E0326030E042203C058
:10102000E9FF04C0EAFFEE6AEF6A48C403F003A2D6
:1010300046D000500EE100C003F0002A046A4C0EB6
:101040000326040E042203C0E9FF04C0EAFF420E97
:10105000EF6E00C003F00028046E076A4C0E0326F2
:10106000040E072204014B51086E640E082603C0CB
:10107000E9FF07C0EAFF08C0EFFF04C003F0042A3D
:10108000076A4C0E0326040E07220650086E03C0A2
:10109000E9FF07C0EAFF08C0EFFF04C003F004281F
:1010A000006E046A4C0E0326040E04220550076EDF
:1010B00003C0E9FF04C0EAFF07C0EFFF25D64BC419
:1010C00003F00650E56E0550E56EE56A0350E56EE7
:1010D000000EE56E2C0EE56ED60EE56E47EC1DF0AB
:1010E000070EE12611D602C001F000501EE048C4F0
:1010F00002F002A21AD000C002F0002A036A4C0ECD
:101100000226040E032202C0E9FF03C0EAFF0A0E12
:10111000EF6E0050E56E800EE56E040EE56E4C0E2F
:10112000E56E71EC16F0040EE1260150E4CF0CF0F0
:10113000E4CF0BF0E4CF0AF0E4CF09F0E4CF08F0FD
:10114000E4CF07F0E4CF06F0E4CF05F0E4CF04F0FD
:10115000E4CF03F0E4CF02F0E4CF01F0E4CF00F0FD
:10116000120000C0E5FF01C0E5FFF0A23DD033CF83
:1011700041F434CF42F435CF43F436CF44F4F09207
:101180000301909390B190838A9004018995899589
:1011900089958995899589958995030190A303D0AF
:1011A0009FC300F002D09EC300F000C0B3F3030160
:1011B00090A305D08CC400F08DC401F004D08AC483
:1011C00000F08BC401F000C09CF301C09DF30F013F
:1011D0004E9103019D510F01506F03019C510F016E
:1011E0004F6F7E920F014E817EA255D10F014E911D
:1011F0007E92B3C300F000B4A7D0B3C300F000B236
:1012000051D0B3C300F000B026D08A80030190A370
:1012100011D02BCFB3F3B3C300F000B63CD1000123
:10122000F1510F01506F0001F0510F014F6F0F018D
:101230004E8131D123CFB3F3B3C300F000B62BD12D
:101240000001E1510F01506F0001E0510F014F6F9C
:101250000F014E8120D104018985030190A311D093
:101260002CCFB3F3B3C300F000B615D10001F35196
:101270000F01506F0001F2510F014F6F0F014E81AE
:101280000AD124CFB3F3B3C300F000B604D10001F8
:10129000E3510F01506F0001E2510F014F6F0F0139
:1012A0004E81F9D0B3C300F000B027D00401898586
:1012B000030190A311D02DCFB3F3B3C300F000B658
:1012C000EAD00001F5510F01506F0001F4510F01F8
:1012D0004F6F0F014E81DFD025CFB3F3B3C300F0C2
:1012E00000B6D9D00001E5510F01506F0001E45163
:1012F0000F014F6F0F014E81CED00401898503018C
:1013000090A311D02ECFB3F3B3C300F000B6C3D077
:101310000001F7510F01506F0001F6510F014F6F9F
:101320000F014E81B8D026CFB3F3B3C300F000B69F
:10133000B2D00001E7510F01506F0001E6510F01DB
:101340004F6F0F014E81A7D0B3C300F000B252D04F
:10135000B3C300F000B027D004018985030190A336
:1013600011D02FCFB3F3B3C300F000B694D0000177
:10137000F9510F01506F0001F8510F014F6F0F012C
:101380004E8189D027CFB3F3B3C300F000B683D02A
:101390000001E9510F01506F0001E8510F014F6F3B
:1013A0000F014E8178D004018985030190A311D0EB
:1013B00030CFB3F3B3C300F000B66DD00001FB51E2
:1013C0000F01506F0001FA510F014F6F0F014E8155
:1013D00062D028CFB3F3B3C300F000B65CD00001F5
:1013E000EB510F01506F0001EA510F014F6F0F01D8
:1013F0004E8151D0B3C300F000B027D004018985DD
:10140000030190A311D031CFB3F3B3C300F000B602
:1014100042D00001FD510F01506F0001FC510F013E
:101420004F6F0F014E8137D029CFB3F3B3C300F014
:1014300000B631D00001ED510F01506F0001EC51A9
:101440000F014F6F0F014E8126D0040189850301E2
:1014500090A311D032CFB3F3B3C300F000B61BD0CA
:101460000001FF510F01506F0001FE510F014F6F3E
:101470000F014E8110D02ACFB3F3B3C300F000B6F2
:101480000AD00001EF510F01506F0001EE510F0122
:101490004F6F0F014E81E4CF01F0E4CF00F0120056
:1014A00000C0E5FF01C0E5FF02C0E5FF03C0E5FFA6
:1014B00004C0E5FF05C0E5FF06C0E5FF07C0E5FF86
:1014C00008C0E5FF09C0E5FF0AC0E5FF0BC0E5FF66
:1014D000030190A509D0006A90B1002A016A90B377
:1014E000012A0050011801E05AD103019095010E24
:1014F000006E00C001F00150D8B453D00104026E58
:10150000036A02BE0368810E0226040E032202C093
:10151000E9FF03C0EAFFEFCF04F00450020DF450DE
:10152000066EF3CF05F0230E0526040E062205C035
:10153000E9FF06C0EAFFEECF05F0EFCF06F0810E1F
:101540000124076E086A040E082207C0E9FF08C0DC
:10155000EAFFEFCF09F00950020DF4500B6EF3CF04
:101560000AF0230E0A26040E0B220AC0E9FF0BC064
:10157000EAFFEECF0AF0EFCF0BF006500B5C02E172
:1015800005500A5C0EE202C0E9FF03C0EAFF09C091
:10159000EFFF07C0E9FF08C0EAFF04C0EFFF010644
:1015A000AAD7002A080E005CD8A0A3D7006A0301BE
:1015B00090B1002A005003E1006A002A01D0006ABD
:1015C000016A9E0E0026030E012281C402F000C0B3
:1015D000E9FF01C0EAFF02C0EFFF006A030190B11A
:1015E000002A005003E1006A002A01D0006A00507E
:1015F000020DF450016EF3CF00F08A0E0026040EA7
:10160000012204018151020DF450036EF3CF02F068
:10161000230E0226040E032202C0E9FF03C0EAFFE4
:10162000EECF02F0EFCF03F00250FF08026EFF0E84
:10163000035600C0E9FF01C0EAFF02C0EEFF03C08D
:10164000EFFF006A810E0024016E026A040E02227E
:1016500001C0E9FF02C0EAFFEFCF01F0030190B142
:1016600005D00150026E080E0224016E230E0124E3
:10167000026E036A0F0E03220050046E042A056AEC
:1016800004BE0568810E0426040E052204C0E9FF8D
:1016900005C0EAFFEFCF06F002C0E9FF03C0EAFF92
:1016A00006C0EFFF0150020DF450026EF3CF01F0BF
:1016B000E00E0126000E022204C0E9FF05C0EAFF89
:1016C000EFCF04F00450020DF450036EF3CF04F09A
:1016D000230E0426040E032204C0E9FF03C0EAFF20
:1016E000EECF04F0EFCF03F0810E0024056E066A02
:1016F000040E062205C0E9FF06C0EAFFEFCF05F0A1
:101700000550020DF450066EF3CF05F0230E0526AA
:10171000040E062205C0E9FF06C0EAFFEECF05F081
:10172000EFCF06F00550045E0650035A0450FF0840
:10173000046EFF0E035601C0E9FF02C0EAFF04C0B9
:10174000EEFF03C0EFFF002A070E005CD8A07AD797
:1017500088C400F0030190B105D00050016E080E5E
:101760000124006E016A230E00260F0E012200C024
:10177000E9FF01C0EAFF080EEF6E006A030190B1B5
:10178000002A005003E1006A002A01D0006A0050DC
:10179000010BF46E03019051FE0BF410906FE4CF37
:1017A0000BF0E4CF0AF0E4CF09F0E4CF08F0E4CF87
:1017B00007F0E4CF06F0E4CF05F0E4CF04F0E4CF87
:1017C00003F0E4CF02F0E4CF01F0E4CF00F0120028
:1017D000800EE56E030EE56E000EE56E92EC1BF0DA
:1017E000030EE126800EE56E040EE56ED30EE56E67
:1017F00092EC1BF0030EE126800EE56E030EE56E03
:10180000020EE56E92EC1BF0030EE126800EE56EF3
:10181000040EE56ED50EE56E92EC1BF0030EE1268C
:10182000800EE56E030EE56E040EE56E92EC1BF085
:10183000030EE126800EE56E040EE56ED70EE56E12
:1018400092EC1BF0030EE126800EE56E030EE56EB2
:10185000060EE56E92EC1BF0030EE126800EE56E9F
:10186000040EE56ED90EE56E92EC1BF0030EE12638
:10187000800EE56E030EE56E080EE56E92EC1BF031
:10188000030EE126800EE56E040EE56EDB0EE56EBE
:1018900092EC1BF0030EE126800EE56E030EE56E62
:1018A0000A0EE56E92EC1BF0030EE126800EE56E4B
:1018B000040EE56EDD0EE56E92EC1BF0030EE126E4
:1018C000800EE56E030EE56E0C0EE56E92EC1BF0DD
:1018D000030EE126800EE56E040EE56EDF0EE56E6A
:1018E00092EC1BF0030EE126800EE56E030EE56E12
:1018F0000E0EE56E92EC1BF0030EE126800EE56EF7
:10190000040EE56EE10EE56E92EC1BF0030EE1268F
:10191000800EE56E030EE56E100EE56E92EC1BF088
:10192000030EE126800EE56E040EE56EE30EE56E15
:1019300092EC1BF0030EE126800EE56E030EE56EC1
:10194000120EE56E92EC1BF0030EE126800EE56EA2
:10195000040EE56EE50EE56E92EC1BF0030EE1263B
:10196000800EE56E030EE56E140EE56E92EC1BF034
:10197000030EE126800EE56E040EE56EE70EE56EC1
:1019800092EC1BF0030EE126800EE56E030EE56E71
:10199000160EE56E92EC1BF0030EE126800EE56E4E
:1019A000040EE56EE90EE56E92EC1BF0030EE126E7
:1019B000800EE56E030EE56E180EE56E92EC1BF0E0
:1019C000030EE126800EE56E040EE56EEB0EE56E6D
:1019D00092EC1BF0030EE126800EE56E030EE56E21
:1019E0001A0EE56E92EC1BF0030EE126800EE56EFA
:1019F000040EE56EED0EE56E92EC1BF0030EE12693
:101A0000800EE56E030EE56E1C0EE56E92EC1BF08B
:101A1000030EE126800EE56E040EE56EEF0EE56E18
:101A200092EC1BF0030EE126800EE56E030EE56ED0
:101A30001E0EE56E92EC1BF0030EE126800EE56EA5
:101A4000040EE56EF10EE56E92EC1BF0030EE1263E
:101A5000120000C0E5FF01C0E5FF02C0E5FF03C0C2
:101A6000E5FF04013E51D8B40CD19DA81DD09EA81D
:101A70001BD00301AA510301A81905E177EC22F05C
:101A80000301A86BFED0000E0301AA25006E016AB7
:101A9000040E012200C0E9FF01C0EAFFEFCFA4F36A
:101AA000AA2BA4C3ADFFEDD09DAAEBD09EAAE9D08E
:101AB000ABA205D00301A98177EC22F0E2D0ABA460
:101AC00005D00301A98377EC22F0DBD0ABA048D08E
:101AD000AECFA4F33FC400F0016A008EA4C302F0AD
:101AE000036A0250001803E10350011801E004D01A
:101AF0000301A989AB96C5D00301A45104E0A45108
:101B000004013F1929E10301A999AB960301A451EE
:101B100003E00301A99702D00301A987A4C3ADF391
:101B2000A6C3AEF30301A651006E00040301AF6F1C
:101B3000600E0301AE25006E016A000E012200C096
:101B4000E9FF01C0EAFFA4C3EFFFAE2BAE51800A4C
:101B500002E10301AE6B95D00301A999AB8691D048
:101B6000AECFA4F30301A9A921D03FC400F0016ABC
:101B7000008EA4C302F0036A0250001803E1035070
:101B8000011801E011D09D9AAB9894900301A851DF
:101B900004E1AD6A77EC22F007D000C4ADFF010E7E
:101BA0000301AA6F9D886DD0AB866BD00301A45151
:101BB0000301AD270301AE510301AF191BE103017E
:101BC000AD510CE1AEC3A6F30301A9B712D09D9AA3
:101BD000AB989490AD6A77EC22F00BD00301A98505
:101BE000A9B707D09D9AAB989490010EAD6E77EC93
:101BF00022F047D00301AE510301A71908E1030108
:101C0000A7510301A61903E077EC22F03AD0A6C34E
:101C100000F0016A004A012AE56A800EE56E015073
:101C2000E56E0050E56E69EC17F0006E040EE126DB
:101C300000500301A56F0301AE190FE1A4C300F02A
:101C40001F0E00140301AF6F006E020E0024AF6F71
:101C50000301A6510301AF27AF9FAEC300F00301FC
:101C6000AE2B016A600E0026000E012200C0E9FFC3
:101C700001C0EAFFA4C3EFFFAE51800A02E10301F5
:101C8000AE6BE4CF03F0E4CF02F0E4CF01F0E4CF99
:101C900000F01200D9CFE5FFE1CFD9FF00C0E5FF8A
:101CA00001C0E5FF02C0E5FF03C0E5FF04C0E5FF9A
:101CB00005C0E5FF06C0E5FF07C0E5FF020EDBCF6C
:101CC00000F0030EDBCF01F0040EDBCF02F0050EB7
:101CD000DBCF03F0060EDBCF04F0070EDBCF05F001
:101CE000080EDBCF06F0090EDBCF07F00050040131
:101CF0008E6F01508F6F0250906F0350916F0450A0
:101D00000301806F0550816F0650826F0750836F0B
:101D100004018E5103018203F4CF01F0F3CF00F0F0
:101D200000500301866F0150876F04018E5103013B
:101D30008003F4CF01F0F3CF00F000500301846F73
:101D40000150856F0401915103018003F3CF00F02E
:101D50000301875100260050876F04019051030151
:101D60008103F3CF01F00150002600500301876F7B
:101D70000401905103018003F4CF01F0F3CF00F090
:101D8000030186510026875101220050866F0150C1
:101D9000876F04018F5103018103F4CF03F0F3CF68
:101DA00002F0025000260350012200500301866F0A
:101DB0000150876F04018F5103018203F3CF00F0BC
:101DC000005003018B6F04018F5103018003F4CF96
:101DD00001F0F3CF00F000500301896F01508A6FCA
:101DE00004018E5103018303F3CF00F0005003017F
:101DF0008F6F04018E5103018103F4CF01F0F3CF03
:101E000000F0005003018D6F01508E6F0301886B4D
:101E100003018C6B0301885103018425006E0301CB
:101E2000895103018521016E03018A510301862135
:101E3000026E03018B5103018721036E0050846FF2
:101E40000150856F0250866F0350876F03018C51DC
:101E500003018425006E03018D5103018521016E6C
:101E600003018E5103018621026E03018F5103018C
:101E70008721036E03C0E9FF02C0F4FF01C0F3FF36
:101E80000050E4CF07F0E4CF06F0E4CF05F0E4CF54
:101E900004F0E4CF03F0E4CF02F0E4CF01F0E4CFAC
:101EA00000F0E4CFD9FF1200D9CFE5FFE1CFD9FF91
:101EB00000C0E5FF01C0E5FF02C0E5FF03C0E5FF8C
:101EC00004C0E5FF05C0E5FF06C0E5FF07C0E5FF6C
:101ED00008C0E5FF09C0E5FF0AC0E5FF0BC0E5FF4C
:101EE0000CC0E5FF0DC0E5FF0EC0E5FF0FC0E5FF2C
:101EF000020EDBCF00F0030EDBCF01F0040EDBCFD0
:101F000002F0050EDBCF03F0060EDBCF04F0070E68
:101F1000DBCF05F0080EDBCF06F0200E076E086A57
:101F200006C009F00A6A0B6A0C6AE56AE56AE56AA6
:101F30000950E56E0350E56E0250E56E0150E56E06
:101F40000050E56EF1EC10F00D6E080EE126300E3B
:101F50000D263A0E0D5C05E30D500E6E270E0E2475
:101F60000D6EFF0E07260822400E07240E6E030E8C
:101F700008200F6E0EC0E9FF0FC0EAFF0DC0EFFF93
:101F80000C50E56E0B50E56E0A50E56E0950E56E9B
:101F90000350E56E0250E56E0150E56E0050E56EAF
:101FA00021EC12F0006EF3CF01F0F4CF02F0E9CF94
:101FB00003F0080EE1260050011002100310D8A40F
:101FC000AFD707C000F008C001F004C002F005C0A0
:101FD00003F000C004F001C005F0004A012A400EE1
:101FE0000426030E052204C0E9FF05C0EAFFEFCF77
:101FF00004F002C0E9FF03C0EAFF04C0EFFF024A99
:10200000032A000E015C02E1200E005CE2E302C044
:10201000E9FF03C0EAFF000EEF6AE4CF0FF0E4CF60
:102020000EF0E4CF0DF0E4CF0CF0E4CF0BF0E4CFF2
:102030000AF0E4CF09F0E4CF08F0E4CF07F0E4CFF2
:1020400006F0E4CF05F0E4CF04F0E4CF03F0E4CFF2
:1020500002F0E4CF01F0E4CF00F0E4CFD9FF1200AA
:10206000D9CFE5FFE1CFD9FF00C0E5FF01C0E5FF13
:1020700002C0E5FF03C0E5FF04C0E5FF05C0E5FFC2
:1020800006C0E5FF07C0E5FF08C0E5FF020EDBCF95
:1020900000F0030EDBCF01F0040EDBCF02F00301F2
:1020A00091519211D8B441D00050020DF450046EF9
:1020B000F3CF03F0230E0326040E04220150FF0881
:1020C000056EFF0E0254E56AE56AE56E0550E56EA1
:1020D000E56AE56A800EE56EE80EE56E4AEC0EF004
:1020E000056EF3CF06F0F4CF07F0E9CF08F0080E45
:1020F000E126E56AE56AE568E5680850E56E07509F
:10210000E56E0650E56E0550E56E21EC12F0056EA9
:10211000F3CF06F0080EE12603C0E9FF04C0EAFF92
:1021200005C0EEFF06C0EFFF45D00050020DF45091
:10213000036EF3CF00F0230E0026040E032201509D
:10214000FF08016EFF0E0256E56AE56A0250E56E71
:102150000150E56EE56AE56A9C0EE56E400EE56E9F
:102160004AEC0EF0016EF3CF02F0F4CF04F0E9CFA9
:1021700005F0080EE126E56AE56AE568E5680550C0
:10218000E56E0450E56E0250E56E0150E56E21ECFF
:1021900012F0016EF3CF02F0080EE126400E012688
:1021A0001F0E022200C0E9FF03C0EAFF01C0EEFFDC
:1021B00002C0EFFF03019085E4CF08F0E4CF07F001
:1021C000E4CF06F0E4CF05F0E4CF04F0E4CF03F071
:1021D000E4CF02F0E4CF01F0E4CF00F0E4CFD9FF88
:1021E0001200D9CFE5FFE1CFD9FF00C0E5FF01C064
:1021F000E5FF02C0E5FF03C0E5FF04C0E5FF05C041
:10220000E5FF06C0E5FF07C0E5FF08C0E5FF09C020
:10221000E5FF0AC0E5FF020EDBCF00F0030EDBCFC7
:1022200001F0040EDBCF02F0050EDBCF03F0060E4B
:10223000DBCF04F0070EDBCF05F0080EDBCF06F096
:10224000090EDBCF07F0086A0450051006100710CE
:1022500005E1E968F468F368E86847D0096A07505F
:10226000800BE8440A6E0A501BE104500426053630
:10227000063607360750035C08E10650025C05E1AC
:102280000550015C02E10450005C06E2D890073280
:1022900006320532043204D0092A09C008F0DFD71B
:1022A0000750035C08E10650025C05E10550015C43
:1022B00002E10450005C08E30450005E0550015A3E
:1022C0000650025A0750035AD89007320632053298
:1022D000043208C009F008060950E2E103C0E9FF32
:1022E00002C0F4FF01C0F3FF0050E4CF0AF0E4CFD6
:1022F00009F0E4CF08F0E4CF07F0E4CF06F0E4CF34
:1023000005F0E4CF04F0E4CF03F0E4CF02F0E4CF33
:1023100001F0E4CF00F0E4CFD9FF1200D9CFE5FF00
:10232000E1CFD9FF00C0E5FF01C0E5FF02C0E5FF36
:1023300003C0E5FF04C0E5FF05C0E5FF06C0E5FFFB
:1023400007C0E5FF08C0E5FF09C0E5FF0AC0E5FFDB
:10235000020EDBCF00F0030EDBCF01F0040EDBCF6B
:1023600002F0050EDBCF03F0060EDBCF04F0070E04
:10237000DBCF05F00038E8441F0B066E076AA00E9D
:102380000626030E072206C0E9FF07C0EAFFEFCFCB
:1023900008F00050096E070E0916010E0A6E09506A
:1023A0000DE006E6E86CD8900A36010FFDE306D092
:1023B000D8900ABED8800A32010FFBE308500A12F7
:1023C00006C0E9FF07C0EAFF0AC0EFFF700E002455
:1023D000066E076A030E072206C0E9FF07C0EAFF80
:1023E00001C0EFFF016A600E0026030E0122800E7D
:1023F000025E070E02160238F00B036E070E05167A
:102400000550032600C0E9FF01C0EAFF03C0EFFF4B
:10241000E4CF0AF0E4CF09F0E4CF08F0E4CF07F00E
:10242000E4CF06F0E4CF05F0E4CF04F0E4CF03F00E
:10243000E4CF02F0E4CF01F0E4CF00F0E4CFD9FF25
:102440001200D9CFE5FFE1CFD9FF00C0E5FF01C001
:10245000E5FF02C0E5FF03C0E5FF04C0E5FF05C0DE
:10246000E5FF06C0E5FF07C0E5FF08C0E5FF09C0BE
:10247000E5FF0AC0E5FF0BC0E5FF0CC0E5FF0DC09E
:10248000E5FF020EDBCF00F0030EDBCF01F0040E00
:10249000DBCF02F0050EDBCF03F0060EDBCF04F03E
:1024A000070EDBCF05F0080EDBCF06F0090EDBCF01
:1024B00007F0086A096A0A6A0B6A200E0C6E03505C
:1024C000800BE8440D6E00500026013602360336BC
:1024D0000850082609360A360B360D50D8A4088055
:1024E00007500B5C08E106500A5C05E10550095CE9
:1024F00002E10450085C09E30450085E0550095AE3
:1025000006500A5A07500B5A00800C040D6E0DC07D
:102510000CF00D50D4E103C0E9FF02C0F4FF01C08C
:10252000F3FF0050E4CF0DF0E4CF0CF0E4CF0BF05C
:10253000E4CF0AF0E4CF09F0E4CF08F0E4CF07F0ED
:10254000E4CF06F0E4CF05F0E4CF04F0E4CF03F0ED
:10255000E4CF02F0E4CF01F0E4CF00F0E4CFD9FF04
:10256000120000C0E5FF01C0E5FF03C0E5FF04C0A5
:10257000E5FF05C0E5FF06C0E5FF07C0E5FF08C0B1
:10258000E5FF09C0E5FF0AC0E5FF0BC0E5FF7EC41B
:1025900000F07FC401F004017E3F01D07F2B00508A
:1025A000E56E69EC22F0E652076E046A056A066A77
:1025B0007EC400F07FC401F004017E3F01D07F2B78
:1025C0000050E56E69EC22F0E6520B6A0A6E086A6A
:1025D0000850041205120A5006120B5007127EC44E
:1025E00000F07FC401F004017E3F01D07F2B00503A
:1025F000E56E69EC22F0E652036E006A03C001F05A
:10260000E86A03BEFF0E086E096E00500412015006
:10261000051208500612095007127EC400F07FC44C
:1026200001F004017E3F01D07F2B0050E56E69EC84
:1026300022F0E652016A0412015005120612071236
:1026400007C0E9FF06C0F4FF05C0F3FF0450E4CF64
:102650000BF0E4CF0AF0E4CF09F0E4CF08F0E4CFC8
:1026600007F0E4CF06F0E4CF05F0E4CF04F0E4CFC8
:1026700003F0E4CF01F0E4CF00F0120000C0E5FF6A
:1026800001C0E5FF02C0E5FF03C0E5FF0301A7515C
:102690000301A61901E163D0A7C300F0002A009E40
:1026A000016A600E0026000E012200C0E9FF01C091
:1026B000EAFFEFCFB1F31F0E0301B117A7C3B0F3C9
:1026C000B1510301B027B051006E020E0024B06F6B
:1026D000B09F9DEC1FF0006E005003E1006A002ADD
:1026E00001D0006A9DEC1FF00301B16FB1C301F08E
:1026F000800E0116B1C302F01F0E021602C003F0D5
:1027000002C0B1F3035003E1A6C3A7F33BD00050CE
:102710001EE0015022E09DEC1FF0006E0301B1515C
:10272000026E0204B16F0050420A17E000504E0AD8
:1027300003E105EC1DF011D00050460A03E1ABECBB
:1027400022F00BD00050490A08E1FF0006D0A7C3D1
:10275000B2F30150D8B4E7EC22F0B0C3A7F3040100
:102760003B5104013C1906E00301A85103E157EC79
:1027700014F008D094B006D00301A85103E1ACB224
:1027800077EC22F0E4CF03F0E4CF02F0E4CF01F0E5
:10279000E4CF00F01200D9CFE5FFE1CFD9FF00C0B0
:1027A000E5FF01C0E5FF02C0E5FF03C0E5FF04C08F
:1027B000E5FF05C0E5FF06C0E5FF07C0E5FF020E27
:1027C000DBCF00F0030EDBCF01F0040EDBCF02F015
:1027D000050EDBCF03F002C006F00650046E800A3F
:1027E00033E100C0E9FF01C0F3FF025003EC21F028
:1027F000056EF3CF06F0F4CF07F003C0E5FF05C088
:10280000E9FF06C0F3FF0750C1EC22F000C0E9FF6A
:1028100001C0F3FF025003EC21F0056EF3CF06F088
:10282000F4CF07F0052A02E3064A072A05C0E5FFB0
:1028300006C0F4FF07C0F6FF00C0E9FF01C0F3FFC8
:1028400002505AEC22F020D004C000F000AA1CD0A4
:10285000007A0050046E04E1035001EC23F014D020
:102860000450010A04E1035002EC00F00DD00450C2
:102870000F0A04E1035019EC1FF006D004500E0AB1
:1028800003E103501AEC23F0E4CF07F0E4CF06F0A5
:10289000E4CF05F0E4CF04F0E4CF03F0E4CF02F09E
:1028A000E4CF01F0E4CF00F0E4CFD9FF120000C084
:1028B000E5FF01C0E5FF02C0E5FF03C0E5FFACA2F4
:1028C00077D0A9EC20F0006E005005E104013C6BCC
:1028D00004013B6B6DD03CC401F000500126A9EC13
:1028E00020F0026E00060250230A1FE1010E005C78
:1028F000D8A05CD0A9EC20F0036E690A03E1E8ECF3
:102900001EF054D00350720A03E177EC22F04ED04F
:102910000350730A01E04AD09480AB869D8A9D984B
:10292000AE50AE50AB98AB8841D00250430A05E0A0
:102930000250420A01E03AD001D0008E0301AA6B96
:1029400000C0ABF300500401006F0301AA2B040187
:102950003C51011814E0A9EC20F0006E0301AB27F4
:10296000000E0301AA25026E036A040E032202C0B0
:10297000E9FF03C0EAFF00C0EFFFAA2BE8D7000E73
:102980000301AA25006E026A040E02220301AB1D98
:10299000036E032A00C0E9FF02C0EAFF03C0EFFF95
:1029A0000301AA2BAAC3A8F30301A26B01C03CF444
:1029B000E4CF03F0E4CF02F0E4CF01F0E4CF00F085
:1029C0001200D9CFE5FFE1CFD9FF00C0E5FF01C07C
:1029D000E5FF02C0E5FF03C0E5FF04C0E5FF05C059
:1029E000E5FF06C0E5FF020EDBCF00F0030EDBCFF4
:1029F00001F0040EDBCF02F0050EDBCF03F003C0C5
:102A000004F0056A0350D8B453D000C0E9FF01C0F8
:102A1000F3FF025049EC22F0066E430A03E1010E77
:102A2000056E038E0406002A02E3014A022A9D9ADB
:102A3000AB9894909D989EA8FED7AC80AD6A00009C
:102A40009EA8FED7AC9003C0ADFF00009EA8FED7A5
:102A5000055005E0420EAD6E0324056E05D0620EF2
:102A6000AD6E620E0324056E04C003F0035015E042
:102A700000009EA8FED700C0E9FF01C0F3FF02508E
:102A800049EC22F0046E04C0ADFF04500526030695
:102A9000002A02E3014A022AE9D700009EA8FED7D5
:102AA000051CAD6EAD2A00009EA8FED777EC22F083
:102AB000E4CF06F0E4CF05F0E4CF04F0E4CF03F078
:102AC000E4CF02F0E4CF01F0E4CF00F0E4CFD9FF8F
:102AD000120000C0E5FF01C0E5FF02C0E5FF03C032
:102AE000E5FF05C0E5FF0301906B0F014E6B0F0181
:102AF0004E8B4E837F824E917E927D82006A005083
:102B0000020DF450026EF3CF01F0230E0126040EE5
:102B1000022201C0E9FF02C0EAFFEE68EF68810E01
:102B20000024016E026A040E022201C0E9FF02C005
:102B3000EAFF00C0EFFF002A080E005CE0E3938488
:102B4000810E006E0F0E016E0F0E036E380E002602
:102B5000035001220F0E036E800E005E0350015AD7
:102B6000810E026E0F0E036E0F0E056E380E0226DA
:102B7000055003220F0E056E800E025E0550035AAB
:102B800002C0E9FF03C0EAFFEFCF02F0029400C0E9
:102B9000E9FF01C0EAFF02C0EFFFF188F08EF0927A
:102BA000F0888A90040189958995899589958995F8
:102BB0008995899593900401929592959295929515
:102BC000929592959295E4CF05F0E4CF03F0E4CF8F
:102BD00002F0E4CF01F0E4CF00F0120000C0E5FF06
:102BE00001C0E5FF02C0E5FF03C0E5FF04C0E5FF4B
:102BF000006AA00E0024016E026A030E022201C0C8
:102C0000E9FF02C0EAFFEF6A002A020E005CF1E36E
:102C1000006A0050020DF450026EF3CF01F05A0E1C
:102C20000124036E040E0220046E03C0E9FF04C0F9
:102C3000EAFFEE6AEF6A930E0124036E040E02208F
:102C4000046E03C0E9FF04C0EAFFEE6AEF6AB30E48
:102C50000124036E040E0220046E03C0E9FF04C0C9
:102C6000EAFFEE6AEF6AD30E0124036E040E02201F
:102C7000046E03C0E9FF04C0EAFFEE6AEF6A000ECB
:102C80000126030E022201C0E9FF02C0EAFFEE683E
:102C90007F0EEF6E600E0024016E026A030E0222A8
:102CA00001C0E9FF02C0EAFFEF68002A100E005CD5
:102CB000D8A0AFD7AF0EC06EC16A010EC26EC2827D
:102CC000E4CF04F0E4CF03F0E4CF02F0E4CF01F06E
:102CD000E4CF00F012004320412025642025640A3F
:102CE0000000D9CFE5FFE1CFD9FF00C0E5FF01C06B
:102CF000E5FF02C0E5FF03C0E5FF04C0E5FF05C036
:102D0000E5FF06C0E5FF07C0E5FF020EDBCF00F0E0
:102D1000030EDBCF01F0040EDBCF02F0050EDBCF9C
:102D200003F03CC43DF404013B5104013D5F3D51BF
:102D3000046E04043D6F03C004F0056A030E04260C
:102D4000D8B0052A3DC406F0076A0750800FF36E1D
:102D50000550800FF35C02E10450065C02E2E86873
:102D60002ED0020E035C02E2E86A29D0030603506B
:102D7000E56E03EC1EF0E652046A0350045C14E2B4
:102D800004500024056EE86A0120066EE86A0220FD
:102D900005C0E9FF06C0F3FF49EC22F0042AE56E06
:102DA00003EC1EF0E652E9D73CC43DF404013B516C
:102DB00004013D5F3D51006E00043D6FE86AE4CFC1
:102DC00007F0E4CF06F0E4CF05F0E4CF04F0E4CF61
:102DD00003F0E4CF02F0E4CF01F0E4CF00F0E4CF61
:102DE000D9FF1200D9CFE5FFE1CFD9FF00C0E5FF41
:102DF00001C0E5FF02C0E5FF03C0E5FF04C0E5FF39
:102E000005C0E5FF020EDBCF00F0030EDBCF01F0C3
:102E1000040EDBCF02F00050020DF450036EF3CF2E
:102E200000F0930E0024046E040E0320056E04C00F
:102E3000E9FF05C0EAFF01C0EEFF02C0EFFFB30EDD
:102E40000024046E040E0320056E04C0E9FF05C0D3
:102E5000EAFFEECF04F0EFCF05F00150045C016E05
:102E600002500558026E200E0026030E032200C0F9
:102E7000E9FF03C0EAFF01C0EEFF02C0EFFFD88008
:102E800002AED89004E3021E016CD8B4022A0250AC
:102E9000800F800F02E1030E015C02E2016A026A08
:102EA0000150021007E100C0E9FF03C0EAFF000E75
:102EB000EE6AEF6AE4CF05F0E4CF04F0E4CF03F06C
:102EC000E4CF02F0E4CF01F0E4CF00F0E4CFD9FF8B
:102ED0001200D9CFE5FFE1CFD9FF00C0E5FF01C067
:102EE000E5FF02C0E5FF03C0E5FF04C0E5FF05C044
:102EF000E5FF06C0E5FF020EDBCF00F0030EDBCFDF
:102F000001F0040EDBCF02F0050EDBCF03F0D8801A
:102F100001AED890046A0436045007E0011C066E26
:102F2000001C056E054A062A04D000C005F001C049
:102F300006F0D88003AED89007E3031C016E021C94
:102F4000006E004A012A04D002C000F003C001F064
:102F50000150E56E0050E56E0650E56E0550E56ED9
:102F600039EC1AF0006EF3CF01F0040EE1260450A4
:102F70000AE0011C036E001C026E024A032A03C011
:102F8000F3FF025003D001C0F3FF0050E4CF06F07E
:102F9000E4CF05F0E4CF04F0E4CF03F0E4CF02F097
:102FA000E4CF01F0E4CF00F0E4CFD9FF1200D9CF95
:102FB000E5FFE1CFD9FF00C0E5FF01C0E5FF02C09A
:102FC000E5FF03C0E5FF04C0E5FF05C0E5FF020E15
:102FD000DBCF00F0030EDBCF01F0040EDBCF02F0FD
:102FE000050EDBCF03F07EC404F07FC405F00401BE
:102FF0007E3F01D07F2B0350E56E0450E56E73ECED
:103000001FF0E652E6527EC404F07FC405F00401CE
:103010007E3F01D07F2B0250056EE56E0450E56EB9
:1030200073EC1FF0E652E6527EC404F07FC405F054
:1030300004017E3F01D07F2B0150E56E0450E56E08
:1030400073EC1FF0E652E6527EC404F07FC405F034
:1030500004017E3F01D07F2B0050E56E0450E56EE9
:1030600073EC1FF0E652E652E4CF05F0E4CF04F033
:10307000E4CF03F0E4CF02F0E4CF01F0E4CF00F0BE
:10308000E4CFD9FF1200D9CFE5FFE1CFD9FF00C0CF
:10309000E5FF01C0E5FF02C0E5FF03C0E5FF04C096
:1030A000E5FF05C0E5FF06C0E5FF020EDBCF00F03F
:1030B000030EDBCF01F00038E8441F0B026E036AF9
:1030C000A00E0226030E032202C0E9FF03C0EAFF9E
:1030D000EFCF04F00050056E070E0516010E066EC8
:1030E00005500DE006E6E86CD8900636010FFDE3CA
:1030F00006D0D89006BED8800632010FFBE30450FC
:10310000061202C0E9FF03C0EAFF06C0EFFF700E1F
:103110000024026E036A030E032202C0E9FF03C00B
:10312000EAFF01C0EFFF016A600E0026030E0122D4
:1031300000C0E9FF01C0EAFFFF0EEF68E4CF06F030
:10314000E4CF05F0E4CF04F0E4CF03F0E4CF02F0E5
:10315000E4CF01F0E4CF00F0E4CFD9FF1200D9CFE3
:10316000E5FFE1CFD9FF00C0E5FF01C0E5FF02C0E8
:10317000E5FF03C0E5FF04C0E5FF05C0E5FF06C0AD
:10318000E5FF020EDBCF00F0030EDBCF01F0040EF3
:10319000DBCF02F00401375119E1B1EC12F0036EFC
:1031A000F3CF04F0F4CF05F0E9CF06F003C0E5FF5C
:1031B00004C0F4FF05C0F6FF06C0F7FF00C0E9FF3A
:1031C00001C0F3FF025038EC22F01ED00401375149
:1031D000010A1AE100C0E9FF01C0F3FF025089ECC7
:1031E00020F0006EF3CF01F0F4CF02F0E9CF03F04E
:1031F0000350E56E0250E56E0150E56E0050E56E3D
:10320000D7EC17F0040EE126E4CF06F0E4CF05F08A
:10321000E4CF04F0E4CF03F0E4CF02F0E4CF01F018
:10322000E4CF00F0E4CFD9FF1200D9CFE5FFE1CF22
:10323000D9FF00C0E5FF01C0E5FF02C0E5FF03C004
:10324000E5FF04C0E5FF05C0E5FF06C0E5FF020E8F
:10325000DBCF00F0030EDBCF01F0040EDBCF02F07A
:10326000050EDBCF03F0060EDBCF04F0070EDBCF3D
:1032700005F0080EDBCF06F0D88003AED89015E33A
:1032800006500A0A12E104C0E9FF05C0EAFF2D0E4C
:10329000EF6E044A052A031E021E011E006C05E1A2
:1032A000012A03E1022AD8B4032A0650E56E05502C
:1032B000E56E0450E56E0350E56E0250E56E015078
:1032C000E56E0050E56E54EC0FF0070EE126E4CFFA
:1032D00006F0E4CF05F0E4CF04F0E4CF03F0E4CF50
:1032E00002F0E4CF01F0E4CF00F0E4CFD9FF120008
:1032F00000C0E5FF01C0E5FF02C0E5FF03C0E5FF38
:1033000004C0E5FFFCEC22F0EEEC15F09280800E9C
:10331000006E0F0E016E0F0E036E380E0026035066
:103320000122800E026E0F0E036E800E005E0350AF
:10333000015A0F0E046E380E0226045003220F0E9F
:10334000046E800E025E0450035A02C0E9FF03C0FF
:10335000EAFFEFCF02F0028000C0E9FF01C0EAFF00
:1033600002C0EFFF000EE56AE56A43EC18F0E65292
:10337000E65269EC15F049EC1FF0F3CF01F0F4CF01
:1033800002F0E9CF03F0200F0401336F4E0E01204D
:10339000346F000E0220356F000E0320366FE4CF2D
:1033A00004F0E4CF03F0E4CF02F0E4CF01F0E4CF87
:1033B00000F0120000C0E5FF01C0E5FF02C0E5FF1C
:1033C00003C0E5FF3EEC13F050EC0AF00EEC04F005
:1033D00049EC1FF0006EF3CF01F0F4CF02F0E9CF1B
:1033E00003F004013351005E3451015A3551025A41
:1033F0003651035A039E3F0E035C08E1FF0E025C48
:1034000005E1FF0E015C02E1FF0E005C29E249ECE0
:103410001FF0F3CF01F0F4CF02F0E9CF03F0200F5B
:103420000401336F4E0E0120346F000E0220356F01
:10343000000E0320366F67EC06F0000EE56A3CECE8
:1034400020F0F3CF01F0E652026E02260134E56E61
:103450000250E56E000EE56A30EC10F0030EE12636
:10346000E4CF03F0E4CF02F0E4CF01F0E4CF00F0CA
:103470001200D9CFE5FFE1CFD9FF00C0E5FF01C0C1
:10348000E5FF02C0E5FF03C0E5FF04C0E5FF05C09E
:10349000E5FF06C0E5FF020EDBCF00F0030EDBCF39
:1034A00001F0040EDBCF02F0050EDBCF03F0046A5F
:1034B000056A0350800BE844066E065011E1025085
:1034C000022603360350015C02E10250005C04E274
:1034D000D8900332023204D0052A05C004F0E9D79F
:1034E0000350015C02E10250005C04E30250005E04
:1034F0000350015AD8900332023204C005F004068A
:103500000550EEE101C0F3FF0050E4CF06F0E4CF38
:1035100005F0E4CF04F0E4CF03F0E4CF02F0E4CF11
:1035200001F0E4CF00F0E4CFD9FF120000C0E5FFC6
:1035300001C0E5FF02C0E5FF420E19EC1FF0006A72
:10354000810E0024016E026A040E022201C0E9FF0E
:1035500002C0EAFFEFCF01F0015019EC1FF0002A82
:10356000080E005CEDE3006A230E0024016E026A7F
:103570000F0E022201C0E9FF02C0EAFFEFCF01F007
:10358000015019EC1FF0002A080E005CEDE3006A00
:103590000050016E080E0126026A01BE0268230E69
:1035A00001260F0E022201C0E9FF02C0EAFFEFCFA1
:1035B00001F0015019EC1FF0002A080E005CE8E34E
:1035C0000301905119EC1FF00A0E19EC1FF0E4CF23
:1035D00002F0E4CF01F0E4CF00F01200D8CFE5FF15
:1035E000E0CFE5FFE56EF3CFE5FFF4CFE5FFE9CFF0
:1035F000E5FFEACFE5FFFACFE5FFFBCFE5FF00C02F
:10360000E5FF01C0E5FF040139510F01356F0401E9
:103610003A510F01366FD650336FD750346FF2A442
:1036200017D039C400F03AC401F00050010F040172
:10363000396F000E01203A6FF29439510F01356F46
:1036400004013A510F01366FD650336FD750346FA3
:103650000BEC23F0E4CF01F0E4CF00F0E4CFFBFF6C
:10366000E4CFFAFFE4CFEAFFE4CFE9FFE4CFF4FFD1
:10367000E4CFF3FFE450E4CFE0FFE4CFD8FF100045
:1036800000C0E5FF01C0E5FF02C0E5FF03C0E5FFA4
:10369000A7C300F0016AB2C302F0036A0250005EE1
:1036A0000350015AE56A800EE56E0150E56E005048
:1036B000E56E69EC17F0006E040EE1260006B2C359
:1036C00001F0430E19EC1FF0200E19EC1FF0005012
:1036D00020E0600E0124026E036A000E032202C085
:1036E000E9FF03C0EAFFEFCF02F0E56A0250E56EA2
:1036F000000EE56E450EE56E060EE56E47EC1DF01C
:10370000050EE126012A0150800A01E1016A000646
:10371000DED7E4CF03F0E4CF02F0E4CF01F0E4CF52
:1037200000F01200D9CFE5FFE1CFD9FF00C0E5FFDF
:1037300001C0E5FF02C0E5FF03C0E5FF04C0E5FFEF
:10374000020EDBCF00F0030EDBCF01F0040EDBCF67
:1037500002F00401375111E1B4EC1EF0036EF3CF17
:1037600004F003C0E5FF04C0F4FF00C0E9FF01C09E
:10377000F3FF025093EC22F016D004013751010AF6
:1037800012E100C0E9FF01C0F3FF0250C2EC21F0DA
:10379000006EF3CF01F00150E56E0050E56EC6EC0F
:1037A0001DF0E652E652E4CF04F0E4CF03F0E4CF9C
:1037B00002F0E4CF01F0E4CF00F0E4CFD9FF120033
:1037C000EA0EF66E450EF76E000EF86E0900F55023
:1037D000056E0900F550066E04E1056702D02DEF75
:1037E0001CF00900F550006E0900F550016E09004B
:1037F000F550026E09000900F550E96E0900F55018
:10380000EA6E090009000900F550036E0900F55041
:10381000046E09000900F6CF07F0F7CF08F0F8CFE3
:1038200009F000C0F6FF01C0F7FF02C0F8FF035027
:1038300002E1045007E00900F550EE6E0306F8E2DD
:103840000406F9D707C0F6FF08C0F7FF09C0F8FF64
:10385000050601E20606ECEF1BF01200D9CFE5FFEA
:10386000E1CFD9FF00C0E5FF01C0E5FF02C0E5FFE1
:1038700003C0E5FF04C0E5FF020EDBCF00F0003817
:10388000E8441F0B016E026AA00E0126030E0222FD
:1038900001C0E9FF02C0EAFFEFCF03F0070E0016F8
:1038A000010E046E00500DE006E6E86CD890043678
:1038B000010FFDE306D0D89004BED8800432010F7A
:1038C000FBE3041C006E0350001601C0E9FF02C0B8
:1038D000EAFF00C0EFFFE4CF04F0E4CF03F0E4CF51
:1038E00002F0E4CF01F0E4CF00F0E4CFD9FF120002
:1038F000D9CFE5FFE1CFD9FF00C0E5FF01C0E5FF6B
:1039000002C0E5FF03C0E5FF04C0E5FF05C0E5FF19
:10391000020EDBCF00F00050010A22E1016A0150E3
:10392000020DF450036EF3CF02F0D30E0224046EA6
:10393000040E0320056E04C0E9FF05C0EAFFEE682F
:103940007F0EEF6E000E0226030E032202C0E9FF77
:1039500003C0EAFFEE6AEF6A012A100E015CDFE3A2
:1039600000C045F4E4CF05F0E4CF04F0E4CF03F069
:10397000E4CF02F0E4CF01F0E4CF00F0E4CFD9FFD0
:10398000120000C0E5FF01C0E5FF02C0E5FF04C072
:10399000E5FF9DEC1FF0006E080E005C15E29DEC4B
:1039A0001FF0016A026E9DEC1FF0046A01260450AC
:1039B00002220250E56E0150E56E0050E56E30ECDB
:1039C00010F0030EE12618D00050080A15E19DEC16
:1039D0001FF0D880E866D890006A00360050D88082
:1039E000E866D890006A0036016A00BE016800509F
:1039F0000301916F0150926FE4CF04F0E4CF02F025
:103A0000E4CF01F0E4CF00F0120000C0E5FF01C0F8
:103A1000E5FF02C0E5FF9DEC1FF0006E9DEC1FF07E
:103A2000016ED00E00260A0E005C05E30050026E07
:103A3000F90E0224006ED00E01260A0E015C05E389
:103A40000150026EF90E0224016E080E005C03E2C2
:103A5000100E015CD8B014D00038F00B0124006EB9
:103A6000016A7AEC1EF0026E025002E0010E016E55
:103A70000150010A05E00050E56E38EC21F0E652F5
:103A8000E4CF02F0E4CF01F0E4CF00F01200D9CF90
:103A9000E5FFE1CFD9FF00C0E5FF01C0E5FF02C0AF
:103AA000E5FF020ED924006E000EDA20016E800EB2
:103AB000026E030E0026000E012202220250E56E65
:103AC0000150E56E0050E56E040EDBCFE5FF030EFE
:103AD000DBCFE5FF020EDBCFE5FF03019551E56E7D
:103AE0009451E56E9351E56E0EEC00F0006EF3CF4D
:103AF00001F0090EE12601C0F3FF0050E4CF02F00F
:103B0000E4CF01F0E4CF00F0E4CFD9FF1200D9CF29
:103B1000E5FFE1CFD9FF00C0E5FF01C0E5FF02C02E
:103B2000E5FF03C0E5FF020EDBCF00F0030EDBCFA5
:103B300001F0040EDBCF02F0040137510DE196ECE9
:103B400021F0036E03C0E5FF00C0E9FF01C0F3FFF1
:103B50000250C1EC22F00FD004013751010A0BE1F1
:103B600000C0E9FF01C0F3FF025049EC22F0E56E0E
:103B700063EC20F0E652E4CF03F0E4CF02F0E4CFB0
:103B800001F0E4CF00F0E4CFD9FF1200D9CFE5FF78
:103B9000E1CFD9FF00C0E5FF01C0E5FF02C0E5FFAE
:103BA00003C0E5FF020EDBCF00F0030EDBCF01F018
:103BB0007EC402F07FC403F004017E3F01D07F2B5E
:103BC0000150E56E0250E56E73EC1FF0E652E652CE
:103BD0007EC402F07FC403F004017E3F01D07F2B3E
:103BE0000050E56E0250E56E73EC1FF0E652E652AF
:103BF000E4CF03F0E4CF02F0E4CF01F0E4CF00F033
:103C0000E4CFD9FF1200D9CFE5FFE1CFD9FF00C043
:103C1000E5FF01C0E5FF02C0E5FF03C0E5FF04C00A
:103C2000E5FF020EDBCF00F03BC401F0026A014A5F
:103C3000022A3CC403F0046A0150031803E1025055
:103C4000041801E001D00ED0000E04013B25016EE6
:103C5000026A010E022201C0E9FF02C0EAFF00C0B1
:103C6000EFFF3B2BE4CF04F0E4CF03F0E4CF02F00E
:103C7000E4CF01F0E4CF00F0E4CFD9FF1200D9CFB8
:103C8000E5FFE1CFD9FF00C0E5FF01C0E5FF02C0BD
:103C9000E5FF03C0E5FF020EDBCF00F0016AB2C30F
:103CA00002F0036A0250002603500122E56A800EEA
:103CB000E56E0150E56E0050E56E69EC17F0006EA0
:103CC000F3CF01F0040EE126600E0026000E012263
:103CD00000C0E9FF01C0EAFFEFCF00F00050E4CFE1
:103CE00003F0E4CF02F0E4CF01F0E4CF00F0E4CF42
:103CF000D9FF120000C0E5FF01C0E5FF02C0E5FFEB
:103D0000010E006E9DEC1FF0016E01C002F001502B
:103D100023E00050E56E69EC22F0016EE65201509E
:103D200010E10A0E005C0BE20A0E006EE56E69EC13
:103D300022F0016EE652015004E1E8680ED0E86816
:103D40000CD00150021802E0E86807D0002A1B0ED0
:103D5000005CD8E3E86801D0E86AE4CF02F0E4CF81
:103D600001F0E4CF00F0120000C0E5FF01C0E5FF64
:103D700002C0E5FF03C0E5FF7EC400F07FC401F090
:103D800004017E3F01D07F2B0050E56E69EC22F0EC
:103D9000E652036E026A7EC400F07FC401F00401A3
:103DA0007E3F01D07F2B0050E56E69EC22F0E65299
:103DB000016A02120150031203C0F3FF0250E4CF64
:103DC00003F0E4CF02F0E4CF01F0E4CF00F0120002
:103DD00004013B6B04013C6B04013D6994808B90B2
:103DE0009480B06A3F0EAF6EB886AC8AAC84AC8C5F
:103DF000AC90AB8CAB8E0301A96B0301A36B0301E9
:103E0000A66B0301A76B0301A86B000EE56A69ECC2
:103E100022F004013F6FE6529F989F9A010E040121
:103E20003E6F0301936B946B2F0E956F77EC22F02E
:103E3000120000C0E5FF01C0E5FF02C0E5FF006E13
:103E4000000E04014025016E026A0F0E022201C01D
:103E5000E9FF02C0EAFF00C0EFFF220E405DD8A0DC
:103E6000402B00500A0A0EE104014051E56E800E1D
:103E7000E56E0F0EE56E000EE56E71EC16F0040EA9
:103E8000E126406BE4CF02F0E4CF01F0E4CF00F094
:103E900012000401395104017C6F04013A510401FC
:103EA0007D6FD6507A6FD7507B6F7C5104013919E2
:103EB00005E104017D5104013A190CE00401395176
:103EC00004017C6F04013A5104017D6FD6507A6F72
:103ED000D7507B6F7DC4E9FF7CC4F4FF7BC4F3FF44
:103EE00004017A511200D9CFE5FFE1CFD9FF00C01C
:103EF000E5FF01C0E5FF020EDBCF00F0030EDBCFD4
:103F000001F0F29EF29C01C0A8FF00C0A9FFA69E8E
:103F1000A69CA684550EA76EAA0EA76EA682F28E48
:103F2000F28CA694A6A202D00000FCD7E4CF01F048
:103F3000E4CF00F0E4CFD9FF120000C0E5FF01C0DC
:103F4000E5FF0301A7510301B01905E00301A751E3
:103F50000301A61902E1E86A15D0A7C300F0030126
:103F6000A72B016A600E0026000E012200C0E9FFA7
:103F700001C0EAFFEFCF00F0A751800A02E1030180
:103F8000A76B0050E4CF01F0E4CF00F01200D8CFCF
:103F9000E5FFE0CFE5FFE56EF3CFE5FFF4CFE5FF0A
:103FA000E9CFE5FFEACFE5FFFACFE5FFFBCFE5FF7D
:103FB00029EC0DF008EC23F0E4CFFBFFE4CFFAFF8F
:103FC000E4CFEAFFE4CFE9FFE4CFF4FFE4CFF3FF6F
:103FD000E450E4CFE0FFE4CFD8FF100000C0E5FFDD
:103FE00005EC23F00401896B806B8983006A89B337
:103FF000002A0050010BE844F46E8051FD0BF410D0
:10400000806FD58ED59CD59AD588D596D594D582F6
:10401000D580F28AF184D08EF28EF28CBA80FF0EB7
:10402000BB68BA84E4CF00F01200D9CFE5FFE1CF3E
:10403000D9FF00C0E5FF01C0E5FF020EDBCF00F0B5
:104040000050020DF450016EF3CF00F0200E002658
:10405000030E012200C0E9FF01C0EAFFEECF00F02D
:10406000EFCF01F001C0F3FF0050E4CF01F0E4CF47
:1040700000F0E4CFD9FF1200D9CFE5FFE1CFD9FF9F
:1040800000C0E5FF01C0E5FF020EDBCF00F00050ED
:10409000020DF450016EF3CF00F05A0E0026040E0C
:1040A000012200C0E9FF01C0EAFFEECF00F0EFCF30
:1040B00001F001C0F3FF0050E4CF01F0E4CF00F0C5
:1040C000E4CFD9FF1200D9CFE5FFE1CFD9FF00C07F
:1040D000E5FF01C0E5FF02C0E5FF020EDBCF00F007
:1040E0007EC401F07FC402F004017E3F01D07F2B2B
:1040F0000050E56E0150E56E73EC1FF0E652E6529B
:10410000E4CF02F0E4CF01F0E4CF00F0E4CFD9FF38
:104110001200E8AE0AD0F3CFEAFFEE50EECFF3FF85
:10412000EECFF4FFEECFE9FF1200E8BC21EF23F061
:10413000E9CFF6FFF3CFF7FFF86E0900F55009005D
:10414000F5CFF3FF0900F5CFF4FF0900F5CFE9FF44
:10415000120000C0E5FF01C0E5FF04013B5104016E
:104160003C1902E1E86A0FD0000E04013C25006E04
:10417000016A010E012200C0E9FF01C0EAFFEFCF92
:1041800000F03C2B0050E4CF01F0E4CF00F012002F
:10419000F2CFEAFFF29EA69EA69CA684E9CFA9FFD5
:1041A000F3CFAAFFE4CFA8FFD6EC22F0F4CFA8FF0C
:1041B000D6EC22F0F6CFA8FFD6EC22F0F7CFA8FF7E
:1041C000D6EC22F0A694EABEF28E1200F2CFF6FFF1
:1041D000F29EA69EA69CE9CFA9FFF3CFAAFFA680D8
:1041E000A850A94AAA2AA680A8CFF3FFA94AAA2ABA
:1041F000A680A8CFF4FFA94AAA2AA680A8CFEAFFE2
:10420000F6BEF28E1200E8AE08D0F3CFEAFFEE5011
:10421000EECFF3FFEECFF4FF1200E8BC29EF23F05E
:10422000E9CFF6FFF3CFF7FFF86E0900F55009006C
:10423000F5CFF3FF0900F5CFF4FF1200F2CFEAFF4C
:10424000F29EA69EA69CA684E9CFA9FFF3CFAAFF63
:10425000E4CFA8FFD6EC22F0F4CFA8FFD6EC22F0F2
:10426000F6CFA8FFD6EC22F0A694EABEF28E12009A
:10427000D9CFE5FFE1CFD9FF00C0E5FF020EDBCFCC
:1042800000F000C03FF40050E56E000EE56A73ECEC
:104290001FF0E652E652E4CF00F0E4CFD9FF12005F
:1042A000F2CFF6FFF29EA69EA69CE9CFA9FFF3CF20
:1042B000AAFFA680A850A94AAA2AA680A8CFF3FFE1
:1042C000A94AAA2AA680A8CFF4FFF6BEF28E120051
:1042D00000C0E5FF01C0E5FF600E0301A725006EE9
:1042E000016A000E012200C0E9FF01C0EAFFEFCF22
:1042F00000F00050E4CF01F0E4CF00F01200D9CF7D
:10430000E5FFE1CFD9FF00C0E5FF020EDBCF00F0F3
:10431000610E005C05E37B0E005C02E2010E01D041
:10432000E86AE4CF00F0E4CFD9FF120000C0E5FF57
:1043300001C0E5FF7EC400F07FC401F004017E3FB0
:1043400001D07F2B0050E56E69EC22F0E652E4CFFD
:1043500001F0E4CF00F01200D9CFE5FFE1CFD9FFA3
:1043600000C0E5FF020EDBCF00F000C03EF40050BD
:1043700004E177EC22F09D9A9D98E4CF00F0E4CF21
:10438000D9FF1200E8AE06D0F3CFEAFFEE50EECF31
:10439000F3FF1200E8BC1FEF23F0E9CFF6FFF3CFE5
:1043A000F7FFF86E0900F5500900F5CFF3FF120092
:1043B000F2CFEAFFF29EA69EA69CA684E9CFA9FFB3
:1043C000F3CFAAFFE4CFA8FFD6EC22F0F4CFA8FFEA
:1043D000D6EC22F0A694EABEF28E120012EEFFF0A6
:1043E00022EEFFF0F86AA68EA69CE9680E0EEA6E31
:1043F0000068000EED6A0050FDE1E0EC1BF006ECF9
:1044000000F0FFD7F2CFF6FFF29EA69EA69CE9CF62
:10441000A9FFF3CFAAFFA680A850A94AAA2AA6807E
:10442000A8CFF3FFF6BEF28E1200F2CFEAFFF29EA3
:10443000A69EA69CA684E9CFA9FFF3CFAAFFE4CF4E
:10444000A8FFD6EC22F0A694EABEF28E120000007D
:104450000000FF00000000000000000A0002000051
:10446000004200000000000000000000000000000A
:10447000E8AE0BD0F3CFEAFFE4CFEEFFF4CFEEFFD0
:10448000F6CFEEFFF7CFEEFF1200E8BC23EF23F0EC
:104490001200E8AE04D0F3CFEAFFEE501200E8BC01
:1044A0001DEF23F0E9CFF6FFF3CFF7FFF86E090019
:1044B000F5501200E8AE09D0F3CFEAFFE4CFEEFFEB
:1044C000F4CFEEFFF6CFEEFF1200E8BC2BEF23F0A7
:1044D0001200D9CFE5FFE1CFD9FF020EDBCFA9FF54
:1044E000A69CA69EA680A850E4CFD9FF1200ACA23D
:1044F000FED79480AE500000AE50AB98AB88AB8630
:104500009D8A9D98120025642000F2CFF6FFF29E4E
:10451000A69EA69CE9CFA9FFF3CFAAFFA680A8502C
:10452000F6BEF28E1200E8AE07D0F3CFEAFFE4CF7A
:10453000EEFFF4CFEEFF1200E8BC27EF23F01200ED
:10454000700ED36E9B8CFF0E926893689468966889
:10455000626AF19E120000C0E5FF7AEC1EF0006E68
:10456000005001E1FF00E4CF00F012000F01456BA5
:10457000900E0F01446F030E0F01436F0F01458F23
:104580001200E8AE05D0F3CFEAFFE4CFEEFF120051
:10459000E8BC25EF23F01200D9CFE5FFE1CFD9FF2A
:1045A000020EDBCF48F4E4CFD9FF1200550EA76E00
:1045B000AA0EA76EA682A6B2FED7A94AAA2A010E03
:1045C0000401376F1C0E04017E6F7F6B12009DEC9F
:1045D0001FF0280A02E1C1EC1CF012000401376B45
:1045E0001C0E04017E6F7F6B120001004E44000020
:1045F0003904000021000000EEEC1FF0E8EC1EF092
:104600001200ACA2FED7AD6E1200A0EC22F0120098
:104610002DEC23F0120017EC23F012000301A75138
:1046200012000301B151120004013E511200B1EC1D
:1046300008F01200E8CF7FFF120085EF22F002EFB2
:1046400022F0E6EF20F0C8EF20F015EF22F0D8EFCF
:0C46500021F050EF21F01EEF21F01200CD
:020000040030CA
:010006008574
:00000001FF
