:020000040000FA
:10000000C1EF18F0C96E1200AEEF11F00EEC04F063
:1000100036EC13F0FDD712001AEF17F0D9CFE5FF39
:10002000E1CFD9FF00C0E5FF01C0E5FF02C0E5FF59
:1000300003C0E5FF04C0E5FF05C0E5FF06C0E5FF1E
:1000400007C0E5FF08C0E5FF09C0E5FF0AC0E5FFFE
:100050000BC0E5FF0CC0E5FF0DC0E5FF0EC0E5FFDE
:100060000FC0E5FF10C0E5FF11C0E5FF12C0E5FFBE
:1000700013C0E5FF14C0E5FF15C0E5FF16C0E5FF9E
:1000800017C0E5FF18C0E5FF19C0E5FF1AC0E5FF7E
:100090001BC0E5FF1CC0E5FF1DC0E5FF1EC0E5FF5E
:1000A000020EDBCF00F0030EDBCF01F0040EDBCF3E
:1000B00002F0050EDBCF03F0060EDBCF04F0070ED7
:1000C000DBCF05F0080EDBCF06F0090EDBCF07F023
:1000D0000A0EDBCF08F0096A0A6A02C00DF00D5063
:1000E000800A0DE102500F01326F0150316F005054
:1000F000306F0F0E016E300E006E800E026E03C068
:10010000E9FF04C0F3FF05500BEC19F00B6E0B5028
:10011000D8B4C4EF03F00B50250A02E0ABEF03F0B4
:100120000C6A0D6A0E6A0F6A106A0A0E116E126A64
:10013000136A146A200E156E1668176A2B0E186E55
:10014000032A02E3044A052A03C0E9FF04C0F3FFBF
:1001500005500BEC19F0196E250A13E11950E56EE4
:100160000250E56E0150E56E0050E56EE4EC0CF0D7
:10017000040EE126094A0A2A032A02E3044A052A50
:10018000BED71950300A06E1300E156E032A02E37D
:10019000044A052A03C0E9FF04C0F3FF05500BEC35
:1001A00019F02D0A06E1010E146E032A02E3044A37
:1001B000052A03C0E9FF04C0F3FF05500BEC19F05A
:1001C000200A08E1010E176E200E186E032A02E3C2
:1001D000044A052A03C0E9FF04C0F3FF05500BECF5
:1001E00019F02B0A06E1010E176E032A02E3044AF6
:1001F000052A03C0E9FF04C0F3FF05500BEC19F01A
:10020000196E310E195C2BE33A0E195C28E203C01B
:1002100019F004C01AF005C01BF019C0E9FF1AC09C
:10022000F3FF1B500BEC19F01C6E300E1C5C11E33D
:100230003A0E1C5C0EE213500A0DF3CF1DF01C5059
:100240001D26D00E1D24136E192A02E31A4A1B2AFA
:10025000E4D719C003F01AC004F01BC005F003C0B6
:10026000E9FF04C0F3FF05500BEC19F02E0A2DE155
:10027000032A02E3044A052A166A03C019F004C0DF
:100280001AF005C01BF019C0E9FF1AC0F3FF1B509C
:100290000BEC19F01C6E300E1C5C11E33A0E1C5C6A
:1002A0000EE216500A0DF3CF1DF01C501D26D00E85
:1002B0001D24166E192A02E31A4A1B2AE4D719C014
:1002C00003F01AC004F01BC005F003C0E9FF04C02E
:1002D000F3FF05500BEC19F0196E6C0A07E1010EE3
:1002E0000C6E032A02E3044A052A09D01950680A51
:1002F00006E1010E0E6E032A02E3044A052A03C03A
:10030000E9FF04C0F3FF05500BEC19F0750A06E194
:10031000010E106E032A02E3044A052A03C0E9FF16
:1003200004C0F3FF05500BEC19F0196E730A05E1D8
:10033000010E0D6E200E156E3FD01950780A03E1A4
:10034000100E116E39D01950580A05E1100E116EB9
:10035000010E126E31D01950630A02E1116A2CD0DD
:1003600019506F0A03E1080E116E26D01950660A63
:1003700003E1010E0F6E20D01950640A1DE01950E0
:10038000690A1AE0105005E0FF0E03260422052238
:1003900013D01950E56E0250E56E0150E56E005025
:1003A000E56EE4EC0CF0040EE126094A0A2A032A61
:1003B00002E3044A052AA3D60D5021E00650030F9C
:1003C0000D6E000E0720196E000E08201A6E0DC06B
:1003D00006F019C007F01AC008F0FD0E0D26FF0E3A
:1003E00019221A220DC0E9FF19C0F3FF1A50D6ECEA
:1003F00017F00D6EF3CF19F0F4CF1AF0FDD00F50B7
:100400000DE0000E1A6E080E196E100E0D6E040E21
:100410000626000E072208221668EED016680C5039
:1004200023E00650040F0C6E000E07200F6E000E26
:1004300008201B6E0CC006F00FC007F01BC008F0B0
:10044000FC0E0C26FF0E0F221B220CC0E9FF0FC072
:10045000F3FF1B503FEC17F00C6EF3CF0FF0F4CF0F
:100460001BF0E9CF1CF067D00E502FE00650020FB2
:100470000E6E000E07201D6E000E08201E6E0EC0B0
:1004800006F01DC007F01EC008F0FE0E0E26FF0E7F
:100490001D221E220EC0E9FF1DC0F3FF1E5095EC69
:1004A00018F00E6E0EC00CF00F6A1B6A1C6A115019
:1004B0000A0A03E11050D8B43ED00C500E6E0EC0A4
:1004C0000CF00F6A1B6A1C6A36D00650020F0E6EC3
:1004D000000E07201D6E000E08201E6E0EC006F0D6
:1004E0001DC007F01EC008F0FE0E0E26FF0E1D22D6
:1004F0001E220EC0E9FF1DC0F3FF1E5095EC18F040
:100500000E6EF3CF1DF00EC00CF01DC00FF0E86AA8
:100510001DBEFF0E1B6E1C6E11500A0A02E1105028
:100520000AE00C500E6E0F501D6E0EC00CF01DC078
:100530000FF01B6A1C6A0F0E196E240E0D6E800ED2
:100540001A6E1150D8B440D0105013E01150E56E1F
:100550000F0EE56E240EE56E1C50E56E1B50E56E29
:100560000F50E56E0C50E56E0DEC09F0070EE1261C
:1005700012D01150E56E0F0EE56E240EE56E1C5084
:10058000E56E1B50E56E0F50E56E0C50E56E43ECCA
:1005900010F0070EE12617502FE00DC0E9FF19C03B
:1005A000F3FF1A500BEC19F02D0A26E0FF0E0D2672
:1005B00019221A2218C0E5FF0DC0E9FF19C0F3FF88
:1005C0001A5078EC19F018D00CC0E5FF0DC0E9FF07
:1005D00019C0F3FF1A5078EC19F00D50010F0C6E92
:1005E000000E19200E6E000E1A20E56A0CC0E9FFFD
:1005F0000EC0F3FF78EC19F00DC00CF019C00EF02E
:100600001AC00FF013C010F0105010E00CC0E9FF3A
:100610000EC0F3FF0F500BEC19F0176E175006E0E9
:100620000C2A02E30E4A0F2A1006EED710C013F070
:1006300014501EE109C00CF00AC00EF010C00FF0FB
:100640000F5010E01550E56E0250E56E0150E56E5A
:100650000050E56EE4EC0CF0040EE1260C4A0E2A84
:100660000F06EED70CC009F00EC00AF00FC013F051
:1006700016C00CF00DC00DF019C00EF01AC00FF02E
:1006800009C010F00AC015F00DC0E9FF0EC0F3FF5D
:100690000F500BEC19F0166E1650D8B43ED00CC0AB
:1006A00016F0176A161E171E1650171005E00CC01C
:1006B00016F00C06165031E00DC0E9FF0EC0F3FF36
:1006C0000F500BEC19F0116E125010E01150E56E46
:1006D00052EC18F0166EE652165004E0DF0E1114BC
:1006E000166E02D011C016F016C011F01150E56E52
:1006F0000250E56E0150E56E0050E56EE4EC0CF042
:10070000040EE1260D2A02E30E4A0F2A104A152A8A
:100710001350D8B4B9D71306B7D710C009F015C015
:100720000AF014502BE010C00CF015C00DF013C0EF
:100730000EF00E501FE0200EE56E0250E56E0150E7
:10074000E56E0050E56EE4EC0CF0040EE1260C4A78
:100750000D2A0E06EED70B50E56E0250E56E0150E5
:10076000E56E0050E56EE4EC0CF0040EE126094A5B
:100770000A2A04D00CC009F00DC00AF0032A02E3D3
:10078000044A052A7FEF00F00AC0F3FF0950E4CFC6
:100790001EF0E4CF1DF0E4CF1CF0E4CF1BF0E4CF5B
:1007A0001AF0E4CF19F0E4CF18F0E4CF17F0E4CF5B
:1007B00016F0E4CF15F0E4CF14F0E4CF13F0E4CF5B
:1007C00012F0E4CF11F0E4CF10F0E4CF0FF0E4CF5B
:1007D0000EF0E4CF0DF0E4CF0CF0E4CF0BF0E4CF5B
:1007E0000AF0E4CF09F0E4CF08F0E4CF07F0E4CF5B
:1007F00006F0E4CF05F0E4CF04F0E4CF03F0E4CF5B
:1008000002F0E4CF01F0E4CF00F0E4CFD9FF120012
:100810003C4E4F20464C4F41543E000000C0E5FF87
:1008200001C0E5FF02C0E5FF03C0E5FF04C0E5FF2E
:10083000A2EC19F094928B924FEC16F0F3CF01F0EA
:10084000F4CF02F0E9CF03F0880F0401336F130EE9
:100850000120346F000E0220356F000E0320366F2A
:1008600080EC13F09380810E006E0F0E016E0F0E60
:10087000036E380E0026035001220F0E036E800E09
:10088000005E0350015A810E026E0F0E036E0F0EB2
:10089000046E380E0226045003220F0E046E800EE2
:1008A000025E0450035A02C0E9FF03C0EAFFEFCF23
:1008B00002F0029000C0E9FF01C0EAFF02C0EFFFB2
:1008C000E56A800EE56E0F0EE56E810EE56E000E98
:1008D000E56AC7EC13F0050EE1269382810E006EE7
:1008E0000F0E016E0F0E036E380E0026035001220C
:1008F0000F0E036E800E005E0350015A810E026ED1
:100900000F0E036E0F0E046E380E022604500322E3
:100910000F0E046E800E025E0450035A02C0E9FFFF
:1009200003C0EAFFEFCF02F0029200C0E9FF01C06E
:10093000EAFF02C0EFFF010EE56E800EE56E0F0EBE
:10094000E56E810EE56E010EE56EC7EC13F0050E47
:10095000E1269384810E006E0F0E016E0F0E036E62
:10096000380E0026035001220F0E036E800E005E2B
:100970000350015A810E026E0F0E036E0F0E046EAD
:10098000380E0226045003220F0E046E800E025E03
:100990000450035A02C0E9FF03C0EAFFEFCF02F0A0
:1009A000029400C0E9FF01C0EAFF02C0EFFF020E9F
:1009B000E56E800EE56E0F0EE56E810EE56E020EA1
:1009C000E56EC7EC13F0050EE1269386810E006EEE
:1009D0000F0E016E0F0E036E380E0026035001221B
:1009E0000F0E036E800E005E0350015A810E026EE0
:1009F0000F0E036E0F0E046E380E022604500322F3
:100A00000F0E046E800E025E0450035A02C0E9FF0E
:100A100003C0EAFFEFCF02F0029600C0E9FF01C079
:100A2000EAFF02C0EFFF030EE56E800EE56E0F0ECB
:100A3000E56E810EE56E030EE56EC7EC13F0050E54
:100A4000E1269388810E006E0F0E016E0F0E036E6D
:100A5000380E0026035001220F0E036E800E005E3A
:100A60000350015A810E026E0F0E036E0F0E046EBC
:100A7000380E0226045003220F0E046E800E025E12
:100A80000450035A02C0E9FF03C0EAFFEFCF02F0AF
:100A9000029800C0E9FF01C0EAFF02C0EFFF040EA8
:100AA000E56E800EE56E0F0EE56E810EE56E040EAE
:100AB000E56EC7EC13F0050EE126938A810E006EF9
:100AC0000F0E016E0F0E036E380E0026035001222A
:100AD0000F0E036E800E005E0350015A810E026EEF
:100AE0000F0E036E0F0E046E380E02260450032202
:100AF0000F0E046E800E025E0450035A02C0E9FF1E
:100B000003C0EAFFEFCF02F0029A00C0E9FF01C084
:100B1000EAFF02C0EFFF050EE56E800EE56E0F0ED8
:100B2000E56E810EE56E050EE56EC7EC13F0050E61
:100B3000E126938C810E006E0F0E016E0F0E036E78
:100B4000380E0026035001220F0E036E800E005E49
:100B50000350015A810E026E0F0E036E0F0E046ECB
:100B6000380E0226045003220F0E046E800E025E21
:100B70000450035A02C0E9FF03C0EAFFEFCF02F0BE
:100B8000029C00C0E9FF01C0EAFF02C0EFFF060EB1
:100B9000E56E800EE56E0F0EE56E810EE56E060EBB
:100BA000E56EC7EC13F0050EE126938E810E006E04
:100BB0000F0E016E0F0E036E380E00260350012239
:100BC0000F0E036E800E005E0350015A810E026EFE
:100BD0000F0E036E0F0E046E380E02260450032211
:100BE0000F0E046E800E025E0450035A02C0E9FF2D
:100BF00003C0EAFFEFCF02F0029E00C0E9FF01C090
:100C0000EAFF02C0EFFF070EE56E800EE56E0F0EE5
:100C1000E56E810EE56E070EE56EC7EC13F0050E6E
:100C2000E1269280800E006E0F0E016E0F0E036E95
:100C3000380E002603500122800E026E0F0E036E46
:100C4000800E005E0350015A0F0E046E380E02260D
:100C5000045003220F0E046E800E025E0450035AED
:100C600002C0E9FF03C0EAFFEFCF02F0029000C02C
:100C7000E9FF01C0EAFF02C0EFFF016EE56A800EE6
:100C8000E56E0150E56E800EE56E080EE56EC7EC70
:100C900013F0050EE1269286800E006E0F0E016E97
:100CA0000F0E036E380E002603500122800E026ED6
:100CB0000F0E036E800E005E0350015A0F0E046E7D
:100CC000380E0226045003220F0E046E800E025EC0
:100CD0000450035A02C0E9FF03C0EAFFEFCF02F05D
:100CE000029600C0E9FF01C0EAFF02C0EFFF016EFB
:100CF000030EE56E800EE56E0150E56E800EE56E2A
:100D0000090EE56EC7EC13F0050EE1269484820E01
:100D1000006E0F0E016E0F0E036E380E002603508C
:100D200001220F0E036E800E005E0350015A820EE8
:100D3000026E0F0E036E0F0E046E380E0226045064
:100D400003220F0E046E800E025E0450035A02C08E
:100D5000E9FF03C0EAFFEFCF02F0029400C0E9FF11
:100D600001C0EAFF02C0EFFF020EE56E800EE56EE5
:100D70000F0EE56E820EE56E0A0EE56EC7EC13F0FF
:100D8000050EE126929A929C929892949292899A58
:100D9000899C899889948992E4CF04F0E4CF03F088
:100DA000E4CF02F0E4CF01F0E4CF00F01200430002
:100DB0002563000000C0E5FF01C0E5FF02C0E5FFBC
:100DC00003C0E5FF04013E51D8B40CD19DA81DD04D
:100DD0009EA81BD004014B510401491905E139ECCF
:100DE00019F00401496BFED0000E04014B25006E82
:100DF000016A040E012200C0E9FF01C0EAFFEFCF43
:100E000045F44B2B45C4ADFFEDD09DAAEBD09EAA77
:100E1000E9D0ABA205D004014A8139EC19F0E2D047
:100E2000ABA405D004014A8339EC19F0DBD0ABA0A8
:100E300048D0AECF45F43FC400F0016A008E45C4EF
:100E400002F0036A0250001803E10350011801E0A8
:100E500004D004014A89AB96C5D00401455104E091
:100E6000455104013F1929E104014A99AB96040157
:100E7000455103E004014A9702D004014A8745C462
:100E80004EF447C44FF404014751006E00040401BE
:100E9000506F600E04014F25006E016A000E0122A2
:100EA00000C0E9FF01C0EAFF45C4EFFF4F2B4F51DF
:100EB000800A02E104014F6B95D004014A99AB8688
:100EC00091D0AECF45F404014AA921D03FC400F02F
:100ED000016A008E45C402F0036A0250001803E163
:100EE0000350011801E011D09D9AAB989490040131
:100EF000495104E1AD6A39EC19F007D000C4ADFFE7
:100F0000010E04014B6F9D886DD0AB866BD0040140
:100F1000455104014E2704014F51040150191BE1B2
:100F200004014E510CE14FC447F404014AB712D0FA
:100F30009D9AAB989490AD6A39EC19F00BD00401EE
:100F40004A854AB707D09D9AAB989490010EAD6E32
:100F500039EC19F047D004014F510401481908E158
:100F6000040148510401471903E039EC19F03AD063
:100F700047C400F0016A004A012AE56A800EE56E66
:100F80000150E56E0050E56E03EC0FF0006E040EAC
:100F9000E12600500401466F04014F190FE145C4DA
:100FA00000F01F0E00140401506F006E020E0024AA
:100FB000506F0401475104015027509F4FC400F067
:100FC00004014F2B016A600E0026000E012200C0B2
:100FD000E9FF01C0EAFF45C4EFFF4F51800A02E17B
:100FE00004014F6BE4CF03F0E4CF02F0E4CF01F053
:100FF000E4CF00F0120000C0E5FF01C0E5FF02C031
:10100000E5FF03C0E5FF04C0E5FF05C0E5FF06C03E
:10101000E5FF07C0E5FF08C0E5FF09C0E5FF006A7E
:10102000016A040E015CD8B0E2D0230E0401412510
:10103000026E036A040E032202C0E9FF03C0EAFF46
:10104000EFCF02F00250FF0A01E1CAD0040141399A
:10105000E8441F0B026E350E0224036E046A0F0E65
:10106000042203C0E9FF04C0EAFFEFCF03F041C44C
:1010700004F0070E0416010E056E000E066E0450F5
:1010800006E0E86CD89005360636010FFCE3076AE7
:10109000035005160750061605500610D880E8665E
:1010A000D890056A05360550D880E866D890056A5C
:1010B00005360550036E046A330E02260F0E042215
:1010C00002C0E9FF04C0EAFFEFCF05F041C406F01B
:1010D000070E0616010E076E000E086E065006E09B
:1010E000E86CD89007360836010FFCE305C006F01F
:1010F000096A065007160950081607500810D880CC
:10110000E866D890076A07360750D880E866D89016
:10111000076A07360350071801E162D003501FE049
:1011200004014151066E070E0616010E076E0650A9
:101130000DE006E6E86CD8900736010FFDE306D017
:10114000D89007BED8800732010FFBE30550071285
:1011500002C0E9FF04C0EAFF07C0EFFF26D002C0CB
:10116000E9FF04C0EAFFEFCF05F004014151066E2C
:10117000070E0616010E076E06500DE006E6E86C37
:10118000D8900736010FFDE306D0D89007BED8806F
:101190000732010FFBE3071C066E0550061602C05E
:1011A000E9FF04C0EAFF06C0EFFF035003E1036A52
:1011B000032A01D0036A41C404F0E56A0350E56ED6
:1011C000E56A0450E56E000EE56E270EE56E820EB0
:1011D000E56E4DEC14F0070EE126012A01C000F087
:1011E0000401412B100E415DD8A01BD7416B00506C
:1011F000E4CF09F0E4CF08F0E4CF07F0E4CF06F045
:10120000E4CF05F0E4CF04F0E4CF03F0E4CF02F044
:10121000E4CF01F0E4CF00F01200D9CFE5FFE1CF39
:10122000D9FF00C0E5FF01C0E5FF02C0E5FF03C034
:10123000E5FF04C0E5FF05C0E5FF06C0E5FF07C008
:10124000E5FF08C0E5FF09C0E5FF0AC0E5FF0BC0E8
:10125000E5FF0CC0E5FF0DC0E5FF0EC0E5FF0FC0C8
:10126000E5FF020EDBCF00F0030EDBCF01F0040E32
:10127000DBCF02F0050EDBCF03F0060EDBCF04F070
:10128000070EDBCF05F0080EDBCF06F0200E076E51
:10129000086A06C009F00A6A0B6A0C6AE56AE56A20
:1012A000E56A0950E56E0350E56E0250E56E0150A7
:1012B000E56E0050E56E9DEC0AF00D6E080EE1261D
:1012C000300E0D263A0E0D5C05E30D500E6E270E06
:1012D0000E240D6EFF0E07260822E00E07240E6E68
:1012E000000E08200F6E0EC0E9FF0FC0EAFF0DC010
:1012F000EFFF0C50E56E0B50E56E0A50E56E09509D
:10130000E56E0350E56E0250E56E0150E56E00504B
:10131000E56E3AEC0BF0006EF3CF01F0F4CF02F083
:10132000E9CF03F0080EE12600500110021003106F
:10133000D8A4AFD707C000F008C001F004C002F085
:1013400005C003F000C004F001C005F0004A012A06
:10135000E00E0426000E052204C0E9FF05C0EAFFE6
:10136000EFCF04F002C0E9FF03C0EAFF04C0EFFFC3
:10137000024A032A000E015C02E1200E005CE2E357
:1013800002C0E9FF03C0EAFF000EEF6AE4CF0FF0EE
:10139000E4CF0EF0E4CF0DF0E4CF0CF0E4CF0BF08F
:1013A000E4CF0AF0E4CF09F0E4CF08F0E4CF07F08F
:1013B000E4CF06F0E4CF05F0E4CF04F0E4CF03F08F
:1013C000E4CF02F0E4CF01F0E4CF00F0E4CFD9FFA6
:1013D000120000C0E5FF01C0E5FF02C0E5FF03C049
:1013E000E5FF04C0E5FF05C0E5FF006A230E002409
:1013F000016E026A040E022201C0E9FF02C0EAFF88
:10140000EFCF01F00150FF0A01E185D001380F0B49
:10141000026E036A800E02260F0E032202C0E9FF4D
:1014200003C0EAFFEFCF02F0070E0116010E036EB4
:10143000000E046E015006E0E86CD89003360436C6
:10144000010FFCE3056A0250031605500416035011
:101450000410D880E866D890036A033603502DE163
:101460000038E8441F0B016E026A350E01260F0E8C
:10147000022201C0E9FF02C0EAFFEFCF03F00050F3
:10148000046E070E0416010E056E04500DE006E60C
:10149000E86CD8900536010FFDE306D0D89005BE64
:1014A000D8800532010FFBE30350051201C0E9FFAC
:1014B00002C0EAFF05C0EFFF2ED00038E8441F0B42
:1014C000016E026A350E01260F0E022201C0E9FFED
:1014D00002C0EAFFEFCF03F00050046E070E0416BF
:1014E000010E056E04500DE006E6E86CD890053656
:1014F000010FFDE306D0D89005BED8800532010F5C
:10150000FBE3051C046E0350041601C0E9FF02C092
:10151000EAFF04C0EFFF002A100E005CD8A066D7D7
:10152000E4CF05F0E4CF04F0E4CF03F0E4CF02F021
:10153000E4CF01F0E4CF00F01200D9CFE5FFE1CF16
:10154000D9FF00C0E5FF01C0E5FF02C0E5FF03C011
:10155000E5FF04C0E5FF05C0E5FF06C0E5FF07C0E5
:10156000E5FF08C0E5FF09C0E5FF0AC0E5FF020E80
:10157000DBCF00F0030EDBCF01F0040EDBCF02F077
:10158000050EDBCF03F0060EDBCF04F0070EDBCF3A
:1015900005F0080EDBCF06F0090EDBCF07F0086A76
:1015A000045005100610071005E1E968F468F368B7
:1015B000E86847D0096A0750800BE8440A6E0A5071
:1015C0001BE1045004260536063607360750035C37
:1015D00008E10650025C05E10550015C02E104509F
:1015E000005C06E2D890073206320532043204D09D
:1015F000092A09C008F0DFD70750035C08E106504C
:10160000025C05E10550015C02E10450005C08E366
:101610000450005E0550015A0650025A0750035A02
:10162000D890073206320532043208C009F00806A5
:101630000950E2E103C0E9FF02C0F4FF01C0F3FF7B
:101640000050E4CF0AF0E4CF09F0E4CF08F0E4CF93
:1016500007F0E4CF06F0E4CF05F0E4CF04F0E4CFE8
:1016600003F0E4CF02F0E4CF01F0E4CF00F0E4CFE8
:10167000D9FF1200D9CFE5FFE1CFD9FF00C0E5FFC8
:1016800001C0E5FF02C0E5FF03C0E5FF04C0E5FFC0
:1016900005C0E5FF06C0E5FF07C0E5FF08C0E5FFA0
:1016A00009C0E5FF0AC0E5FF0BC0E5FF0CC0E5FF80
:1016B0000DC0E5FF020EDBCF00F0030EDBCF01F023
:1016C000040EDBCF02F0050EDBCF03F0060EDBCFFE
:1016D00004F0070EDBCF05F0080EDBCF06F0090E95
:1016E000DBCF07F0086A096A0A6A0B6A200E0C6EE3
:1016F0000350800BE8440D6E005000260136023680
:1017000003360850082609360A360B360D50D8A481
:10171000088007500B5C08E106500A5C05E10550A3
:10172000095C02E10450085C09E30450085E0550BE
:10173000095A06500A5A07500B5A00800C040D6EC5
:101740000DC00CF00D50D4E103C0E9FF02C0F4FF5E
:1017500001C0F3FF0050E4CF0DF0E4CF0CF0E4CF74
:101760000BF0E4CF0AF0E4CF09F0E4CF08F0E4CFC7
:1017700007F0E4CF06F0E4CF05F0E4CF04F0E4CFC7
:1017800003F0E4CF02F0E4CF01F0E4CF00F0E4CFC7
:10179000D9FF120000C0E5FF01C0E5FF03C0E5FF6F
:1017A00004C0E5FF05C0E5FF06C0E5FF07C0E5FF93
:1017B00008C0E5FF09C0E5FF0AC0E5FF0BC0E5FF73
:1017C00090C400F091C401F00401903F01D0912B2E
:1017D0000050E56E2BEC19F0E652076E046A056ABC
:1017E000066A90C400F091C401F00401903F01D05A
:1017F000912B0050E56E2BEC19F0E6520B6A0A6E45
:10180000086A0850041205120A5006120B500712FB
:1018100090C400F091C401F00401903F01D0912BDD
:101820000050E56E2BEC19F0E652036E006A03C01F
:1018300001F0E86A03BEFF0E086E096E0050041244
:1018400001500512085006120950071290C400F00A
:1018500091C401F00401903F01D0912B0050E56E3E
:101860002BEC19F0E652016A04120150051206121F
:10187000071207C0E9FF06C0F4FF05C0F3FF0450DC
:10188000E4CF0BF0E4CF0AF0E4CF09F0E4CF08F0A6
:10189000E4CF07F0E4CF06F0E4CF05F0E4CF04F0A6
:1018A000E4CF03F0E4CF01F0E4CF00F0120000C079
:1018B000E5FF01C0E5FF02C0E5FF03C0E5FF04014D
:1018C00048510401471901E163D048C400F0002ADF
:1018D000009E016A600E0026000E012200C0E9FF92
:1018E00001C0EAFFEFCF52F41F0E0401521748C4A3
:1018F00051F45251040151275151006E020E00243F
:10190000516F519FA3EC16F0006E005003E1006A86
:10191000002A01D0006AA3EC16F00401526F52C4F1
:1019200001F0800E011652C402F01F0E021602C012
:1019300003F002C052F4035003E147C448F43BD023
:1019400000501EE0015022E0A3EC16F0006E0401EE
:101950005251026E0204526F0050420A17E00050CA
:101960004E0A03E10BEC14F011D00050460A03E1DB
:101970006DEC19F00BD00050490A08E1FF0006D0C9
:1019800048C453F40150D8A403EC11F051C448F4F6
:1019900004013B5104013C1906E00401495103E1F3
:1019A00070EC0DF008D094B006D00401495103E169
:1019B000ACB239EC19F0E4CF03F0E4CF02F0E4CF9D
:1019C00001F0E4CF00F01200D9CFE5FFE1CFD9FF5D
:1019D00000C0E5FF01C0E5FF02C0E5FF03C0E5FF71
:1019E00004C0E5FF05C0E5FF06C0E5FF07C0E5FF51
:1019F000020EDBCF00F0030EDBCF01F0040EDBCFD5
:101A000002F0050EDBCF03F002C006F00650046EB4
:101A1000800A33E100C0E9FF01C0F3FF0250D6ECB9
:101A200017F0056EF3CF06F0F4CF07F003C0E5FF23
:101A300005C0E9FF06C0F3FF075078EC19F000C0BD
:101A4000E9FF01C0F3FF0250D6EC17F0056EF3CFAB
:101A500006F0F4CF07F0052A02E3064A072A05C07C
:101A6000E5FF06C0F4FF07C0F6FF00C0E9FF01C0B4
:101A7000F3FF02501CEC19F020D004C000F000AAC3
:101A80001CD0007A0050046E04E10350ACEC19F055
:101A900014D00450010A04E1035002EC00F00DD010
:101AA00004500F0A04E103501FEC16F006D0045056
:101AB0000E0A03E10350BCEC19F0E4CF07F0E4CFC9
:101AC00006F0E4CF05F0E4CF04F0E4CF03F0E4CF78
:101AD00002F0E4CF01F0E4CF00F0E4CFD9FF120030
:101AE00000C0E5FF01C0E5FF02C0E5FF03C0E5FF60
:101AF000ACA277D05FEC17F0006E005005E1040156
:101B00003C6B04013B6B6DD03CC401F000500126DE
:101B10005FEC17F0026E00060250230A1FE1010E6F
:101B2000005CD8A05CD05FEC17F0036E690A03E19B
:101B3000EEEC15F054D00350720A03E139EC19F0C1
:101B40004ED00350730A01E04AD09480AB869D8A40
:101B50009D98AE50AE50AB98AB8841D00250430A2E
:101B600005E00250420A01E03AD001D0008E0401A3
:101B70004B6B00C04CF400500401006F04014B2B70
:101B800004013C51011814E05FEC17F0006E0401F1
:101B90004C27000E04014B25026E036A040E03223B
:101BA00002C0E9FF03C0EAFF00C0EFFF4B2BE8D7FC
:101BB000000E04014B25006E026A040E022204018D
:101BC0004C1D036E032A00C0E9FF02C0EAFF03C0F8
:101BD000EFFF04014B2B4BC449F40401436B01C0DC
:101BE0003CF4E4CF03F0E4CF02F0E4CF01F0E4CF23
:101BF00000F01200D9CFE5FFE1CFD9FF00C0E5FF2B
:101C000001C0E5FF02C0E5FF03C0E5FF04C0E5FF3A
:101C100005C0E5FF06C0E5FF020EDBCF00F0030EB6
:101C2000DBCF01F0040EDBCF02F0050EDBCF03F0BB
:101C300003C004F0056A0350D8B453D000C0E9FFD4
:101C400001C0F3FF02500BEC19F0066E430A03E1EA
:101C5000010E056E038E0406002A02E3014A022AE1
:101C60009D9AAB9894909D989EA8FED7AC80AD6A43
:101C700000009EA8FED7AC9003C0ADFF00009EA858
:101C8000FED7055005E0420EAD6E0324056E05D06B
:101C9000620EAD6E620E0324056E04C003F00350A5
:101CA00015E000009EA8FED700C0E9FF01C0F3FFC9
:101CB00002500BEC19F0046E04C0ADFF0450052671
:101CC0000306002A02E3014A022AE9D700009EA87F
:101CD000FED7051CAD6EAD2A00009EA8FED739ECDC
:101CE00019F0E4CF06F0E4CF05F0E4CF04F0E4CF40
:101CF00003F0E4CF02F0E4CF01F0E4CF00F0E4CF52
:101D0000D9FF1200D9CFE5FFE1CFD9FF00C0E5FF31
:101D100001C0E5FF02C0E5FF03C0E5FF04C0E5FF29
:101D200005C0E5FF06C0E5FF07C0E5FF020EDBCFFB
:101D300000F0030EDBCF01F0040EDBCF02F0050E46
:101D4000DBCF03F03CC43DF404013B5104013D5F93
:101D50003D51046E04043D6F03C004F0056A030E98
:101D60000426D8B0052A3DC406F0076A0750800F44
:101D7000F36E0550800FF35C02E10450065C02E252
:101D8000E8682ED0020E035C02E2E86A29D003065E
:101D90000350E56E09EC15F0E652046A0350045C4A
:101DA00014E204500024056EE86A0120066EE86A19
:101DB000022005C0E9FF06C0F3FF0BEC19F0042A6E
:101DC000E56E09EC15F0E652E9D73CC43DF4040198
:101DD0003B5104013D5F3D51006E00043D6FE86AD8
:101DE000E4CF07F0E4CF06F0E4CF05F0E4CF04F051
:101DF000E4CF03F0E4CF02F0E4CF01F0E4CF00F051
:101E0000E4CFD9FF1200D9CFE5FFE1CFD9FF00C061
:101E1000E5FF01C0E5FF02C0E5FF03C0E5FF04C028
:101E2000E5FF05C0E5FF06C0E5FF020EDBCF00F0D1
:101E3000030EDBCF01F0040EDBCF02F0050EDBCF8B
:101E400003F0D88001AED890046A0436045007E04D
:101E5000011C066E001C056E054A062A04D000C04F
:101E600005F001C006F0D88003AED89007E3031C4C
:101E7000016E021C006E004A012A04D002C000F06C
:101E800003C001F00150E56E0050E56E0650E56EAE
:101E90000550E56EA6EC10F0006EF3CF01F0040ED5
:101EA000E12604500AE0011C036E001C026E024A87
:101EB000032A03C0F3FF025003D001C0F3FF005018
:101EC000E4CF06F0E4CF05F0E4CF04F0E4CF03F074
:101ED000E4CF02F0E4CF01F0E4CF00F0E4CFD9FF8B
:101EE0001200D9CFE5FFE1CFD9FF00C0E5FF01C067
:101EF000E5FF02C0E5FF03C0E5FF04C0E5FF05C044
:101F0000E5FF020EDBCF00F0030EDBCF01F0040E85
:101F1000DBCF02F0050EDBCF03F090C404F091C4D8
:101F200005F00401903F01D0912B0350E56E045061
:101F3000E56E79EC16F0E652E65290C404F091C4D6
:101F400005F00401903F01D0912B0250056EE56E23
:101F50000450E56E79EC16F0E652E65290C404F0B7
:101F600091C405F00401903F01D0912B0150E56E22
:101F70000450E56E79EC16F0E652E65290C404F097
:101F800091C405F00401903F01D0912B0050E56E03
:101F90000450E56E79EC16F0E652E652E4CF05F017
:101FA000E4CF04F0E4CF03F0E4CF02F0E4CF01F09B
:101FB000E4CF00F0E4CFD9FF1200D9CFE5FFE1CFA5
:101FC000D9FF00C0E5FF01C0E5FF02C0E5FF03C087
:101FD000E5FF04C0E5FF05C0E5FF06C0E5FF020E12
:101FE000DBCF00F0030EDBCF01F0040EDBCF02F0FD
:101FF0000401375119E1CAEC0BF0036EF3CF04F082
:10200000F4CF05F0E9CF06F003C0E5FF04C0F4FF0C
:1020100005C0F6FF06C0F7FF00C0E9FF01C0F3FFEF
:102020000250FAEC18F01ED004013751010A1AE1EF
:1020300000C0E9FF01C0F3FF02503FEC17F0006E53
:10204000F3CF01F0F4CF02F0E9CF03F00350E56ED7
:102050000250E56E0150E56E0050E56E71EC0FF038
:10206000040EE126E4CF06F0E4CF05F0E4CF04F05F
:10207000E4CF03F0E4CF02F0E4CF01F0E4CF00F0CE
:10208000E4CFD9FF1200D9CFE5FFE1CFD9FF00C0DF
:10209000E5FF01C0E5FF02C0E5FF03C0E5FF04C0A6
:1020A000E5FF05C0E5FF06C0E5FF020EDBCF00F04F
:1020B000030EDBCF01F0040EDBCF02F0050EDBCF09
:1020C00003F0060EDBCF04F0070EDBCF05F0080EA1
:1020D000DBCF06F0D88003AED89015E306500A0A8D
:1020E00012E104C0E9FF05C0EAFF2D0EEF6E044ABD
:1020F000052A031E021E011E006C05E1012A03E1F0
:10210000022AD8B4032A0650E56E0550E56E045045
:10211000E56E0350E56E0250E56E0150E56E00502D
:10212000E56E0DEC09F0070EE126E4CF06F0E4CFF2
:1021300005F0E4CF04F0E4CF03F0E4CF02F0E4CF05
:1021400001F0E4CF00F0E4CFD9FF1200D9CFE5FFD2
:10215000E1CFD9FF00C0E5FF01C0E5FF02C0E5FF08
:1021600003C0E5FF04C0E5FF05C0E5FF06C0E5FFCD
:10217000020EDBCF00F0030EDBCF01F0040EDBCF4D
:1021800002F0050EDBCF03F0046A056A0350800BF2
:10219000E844066E065011E1025002260336035051
:1021A000015C02E10250005C04E2D890033202328A
:1021B00004D0052A05C004F0E9D70350015C02E110
:1021C0000250005C04E30250005E0350015AD890B4
:1021D0000332023204C005F004060550EEE101C0EE
:1021E000F3FF0050E4CF06F0E4CF05F0E4CF04F0B5
:1021F000E4CF03F0E4CF02F0E4CF01F0E4CF00F04D
:10220000E4CFD9FF120000C0E5FF01C0E5FF02C026
:10221000E5FFA3EC16F0006E4C0A09E1A3EC16F002
:10222000006E300A02E08B822BD08B9229D00050B6
:10223000450A26E1000EE56E0D0EE56EAE0EE56E6A
:102240004DEC14F0030EE126B6EC19F0016E01C05E
:1022500002F0010602500FE0A3EC16F0E56AE56E0D
:10226000000EE56E0D0EE56EB00EE56E4DEC14F051
:10227000050EE126ECD701C000F00A0E1FEC16F0A7
:1022800000506C0A12E1A3EC16F0006ED00E00268E
:10229000A3EC16F0016ED00E01260150E56E005041
:1022A000E56EFEEC11F0E652E652E4CF02F0E4CF28
:1022B00001F0E4CF00F0120000C0E5FF01C0E5FF2F
:1022C00002C0E5FF03C0E5FF48C400F0016A53C443
:1022D00002F0036A0250005E0350015AE56A800E64
:1022E000E56E0150E56E0050E56E03EC0FF0006EF8
:1022F000040EE126000653C401F0430E1FEC16F055
:10230000200E1FEC16F0005020E0600E0124026E3B
:10231000036A000E032202C0E9FF03C0EAFFEFCF09
:1023200002F0E56A0250E56E000EE56E320EE56ED3
:102330008A0EE56E4DEC14F0050EE126012A0150DF
:10234000800A01E1016A0006DED7E4CF03F0E4CFA2
:1023500002F0E4CF01F0E4CF00F01200D8CFE5FFA7
:10236000E0CFE5FFE56EF3CFE5FFF4CFE5FFE9CF82
:10237000E5FFEACFE5FFFACFE5FFFBCFE5FF00C0C1
:10238000E5FF01C0E5FF040139510401836F040139
:102390003A510401846FD650816FD750826FF2A4F6
:1023A00017D039C400F03AC401F00050010F040105
:1023B000396F000E01203A6FF29439510401836F96
:1023C00004013A510401846FD650816FD750826F57
:1023D000E4CF01F0E4CF00F0E4CFFBFFE4CFFAFF5D
:1023E000E4CFEAFFE4CFE9FFE4CFF4FFE4CFF3FF6B
:1023F000E450E4CFE0FFE4CFD8FF1000D9CFE5FFF1
:10240000E1CFD9FF00C0E5FF01C0E5FF020EDBCF41
:1024100000F0030EDBCF01F0050E005C36E2FA6A35
:10242000FB6A0034FA36E834FA36FC0B3C0FE56EF2
:10243000240EFA22000EFB22E450F96E28EF12F06F
:102440002EEF12F034EF12F03AEF12F040EF12F0EC
:10245000015002E0898A19D0899A17D0015002E010
:10246000898C13D0899C11D0015002E089880DD04D
:1024700089980BD0015002E0898407D0899405D057
:10248000015002E0898201D08992E4CF01F0E4CFCB
:1024900000F0E4CFD9FF1200D9CFE5FFE1CFD9FF9B
:1024A00000C0E5FF01C0E5FF02C0E5FF03C0E5FF96
:1024B00004C0E5FF020EDBCF00F0030EDBCF01F01E
:1024C000040EDBCF02F00401375111E1BAEC15F034
:1024D000036EF3CF04F003C0E5FF04C0F4FF00C0B7
:1024E000E9FF01C0F3FF025055EC19F016D00401CA
:1024F0003751010A12E100C0E9FF01C0F3FF0250A9
:1025000095EC18F0006EF3CF01F00150E56E00502D
:10251000E56ECCEC14F0E652E652E4CF04F0E4CFE2
:1025200003F0E4CF02F0E4CF01F0E4CF00F0E4CF19
:10253000D9FF1200D9CFE5FFE1CFD9FF00C0E5FFF9
:1025400001C0E5FF02C0E5FF03C0E5FF04C0E5FFF1
:10255000020EDBCF00F00038E8441F0B016E026A68
:10256000350E01260F0E022201C0E9FF02C0EAFF6C
:10257000EFCF01F0070E0016010E026E000E036E83
:10258000005006E0E86CD89002360336010FFCE3F9
:10259000046A015002160450031602500310D8803A
:1025A000E866D890026A02360250D880E866D89071
:1025B000026A02360250E4CF04F0E4CF03F0E4CF25
:1025C00002F0E4CF01F0E4CF00F0E4CFD9FF120035
:1025D000360EF66E330EF76E000EF86E0900F550EB
:1025E000056E0900F550066E04E1056702D035EF6F
:1025F00013F00900F550006E0900F550016E090056
:10260000F550026E09000900F550E96E0900F55019
:10261000EA6E090009000900F550036E0900F55043
:10262000046E09000900F6CF07F0F7CF08F0F8CFE5
:1026300009F000C0F6FF01C0F7FF02C0F8FF035029
:1026400002E1045007E00900F550EE6E0306F8E2DF
:102650000406F9D707C0F6FF08C0F7FF09C0F8FF66
:10266000050601E20606F4EF12F0120000C0E5FFD5
:1026700001C0E5FF02C0E5FF03C0E5FF57EC0CF029
:10268000E9EC09F04FEC16F0006EF3CF01F0F4CF57
:1026900002F0E9CF03F004013351005E3451015AD6
:1026A0003551025A3651035A039E3F0E035C08E12E
:1026B000FF0E025C05E1FF0E015C02E1FF0E005C13
:1026C00016E24FEC16F0F3CF01F0F4CF02F0E9CFB1
:1026D00003F0880F0401336F130E0120346F000ED6
:1026E0000220356F000E0320366FFBEC07F0E4CFBD
:1026F00003F0E4CF02F0E4CF01F0E4CF00F01200E9
:1027000000C0E5FF01C0E5FF02C0E5FF03C0E5FF33
:1027100004C0E5FF006A330E0024016E026A0F0E4A
:102720000222350E0024036E046A0F0E042203C039
:10273000E9FF04C0EAFF010EEF6E01C0E9FF02C02D
:10274000EAFFEF6E002A020E005CE5E3006A230E4A
:102750000024016E026A040E022201C0E9FF02C0D9
:10276000EAFFEF68002A100E005CF1E3E4CF04F00A
:10277000E4CF03F0E4CF02F0E4CF01F0E4CF00F0C7
:1027800012004320732025642025640A0000D9CF5D
:10279000E5FFE1CFD9FF00C0E5FF01C0E5FF02C0C2
:1027A000E5FF03C0E5FF04C0E5FF05C0E5FF020E3D
:1027B000DBCF00F0030EDBCF01F0040EDBCF02F025
:1027C000050EDBCF03F0060EDBCF04F0056A230E07
:1027D0000026040E0522800E015E070E0116013848
:1027E000F00B026E070E04160450022600C0E9FF2B
:1027F00005C0EAFF02C0EFFFE4CF05F0E4CF04F02C
:10280000E4CF03F0E4CF02F0E4CF01F0E4CF00F036
:10281000E4CFD9FF120000C0E5FF01C0E5FF02C010
:10282000E5FFA3EC16F0006EA3EC16F0016ED00EDF
:1028300000260A0E005C05E30050026EF90E022429
:10284000006ED00E01260A0E015C05E30150026EF7
:10285000F90E0224016E080E005C03E2100E015C0A
:10286000D8B014D00038F00B0124006E016A80EC5F
:1028700015F0026E025002E0010E016E0150010AD5
:1028800005E00050E56E0BEC18F0E652E4CF02F0E4
:10289000E4CF01F0E4CF00F01200D9CFE5FFE1CFA3
:1028A000D9FF00C0E5FF01C0E5FF02C0E5FF020E51
:1028B000D924006E000EDA20016E800E026E030E27
:1028C0000026000E012202220250E56E0150E56E44
:1028D0000050E56E040EDBCFE5FF030EDBCFE5FF16
:1028E000020EDBCFE5FF04018C51E56E8B51E56EE6
:1028F0008A51E56E0EEC00F0006EF3CF01F0090E88
:10290000E12601C0F3FF0050E4CF02F0E4CF01F074
:10291000E4CF00F0E4CFD9FF1200D9CFE5FFE1CF3B
:10292000D9FF00C0E5FF01C0E5FF02C0E5FF03C01D
:10293000E5FF020EDBCF00F0030EDBCF01F0040E4B
:10294000DBCF02F0040137510DE169EC18F0036EA2
:1029500003C0E5FF00C0E9FF01C0F3FF025078ECBF
:1029600019F00FD004013751010A0BE100C0E9FF53
:1029700001C0F3FF02500BEC19F0E56EF4EC16F019
:10298000E652E4CF03F0E4CF02F0E4CF01F0E4CF6D
:1029900000F0E4CFD9FF1200D9CFE5FFE1CFD9FF96
:1029A00000C0E5FF01C0E5FF02C0E5FF03C0E5FF91
:1029B000020EDBCF00F0030EDBCF01F090C402F07B
:1029C00091C403F00401903F01D0912B0150E56EBA
:1029D0000250E56E79EC16F0E652E65290C402F031
:1029E00091C403F00401903F01D0912B0050E56E9B
:1029F0000250E56E79EC16F0E652E652E4CF03F0B1
:102A0000E4CF02F0E4CF01F0E4CF00F0E4CFD9FF4F
:102A10001200D9CFE5FFE1CFD9FF00C0E5FF01C02B
:102A2000E5FF02C0E5FF03C0E5FF04C0E5FF020EBD
:102A3000DBCF00F03BC401F0026A014A022A3CC429
:102A400003F0046A0150031803E10250041801E086
:102A500001D00ED0000E04013B25016E026A010E6A
:102A6000022201C0E9FF02C0EAFF00C0EFFF3B2BDA
:102A7000E4CF04F0E4CF03F0E4CF02F0E4CF01F0C0
:102A8000E4CF00F0E4CFD9FF1200D9CFE5FFE1CFCA
:102A9000D9FF00C0E5FF01C0E5FF02C0E5FF03C0AC
:102AA000E5FF020EDBCF00F0016A53C402F0036AB7
:102AB0000250002603500122E56A800EE56E0150A7
:102AC000E56E0050E56E03EC0FF0006EF3CF01F001
:102AD000040EE126600E0026000E012200C0E9FF70
:102AE00001C0EAFFEFCF00F00050E4CF03F0E4CFE5
:102AF00002F0E4CF01F0E4CF00F0E4CFD9FF120000
:102B000000C0E5FF01C0E5FF02C0E5FF010E006E59
:102B1000A3EC16F0016E01C002F0015023E000505A
:102B2000E56E2BEC19F0016EE652015010E10A0E31
:102B3000005C0BE20A0E006EE56E2BEC19F0016EE4
:102B4000E652015004E1E8680ED0E8680CD001506C
:102B5000021802E0E86807D0002A1B0E005CD8E3E8
:102B6000E86801D0E86AE4CF02F0E4CF01F0E4CFF6
:102B700000F0120000C0E5FF01C0E5FF02C0E5FF64
:102B800003C0E5FF90C400F091C401F00401903F40
:102B900001D0912B0050E56E2BEC19F0E652036E3C
:102BA000026A90C400F091C401F00401903F01D08A
:102BB000912B0050E56E2BEC19F0E652016A0212DF
:102BC0000150031203C0F3FF0250E4CF03F0E4CF3F
:102BD00002F0E4CF01F0E4CF00F0120004013B6BFF
:102BE00004013C6B04013D6994808B909480B06A31
:102BF0003F0EAF6EB886AC8AAC84AC8CAC90AB8C1C
:102C0000AB8E04014A6B0401446B0401476B040161
:102C1000486B0401496B000EE56A2BEC19F00401C6
:102C20003F6FE6529F989F9A010E04013E6F040188
:102C30008A6B8B6B2F0E8C6F39EC19F0120000C071
:102C4000E5FF01C0E5FF02C0E5FF006E000E0401D4
:102C50004025016E026A0F0E022201C0E9FF02C088
:102C6000EAFF00C0EFFF220E405DD8A0402B0050CD
:102C70000A0A0EE104014051E56E800EE56E0F0E6A
:102C8000E56E000EE56E82EC0EF0040EE126406B60
:102C9000E4CF02F0E4CF01F0E4CF00F01200040131
:102CA00039510401876F04013A510401886FD650ED
:102CB000856FD750866F87510401391905E10401EA
:102CC000885104013A190CE0040139510401876F5D
:102CD00004013A510401886FD650856FD750866F32
:102CE00088C4E9FF87C4F4FF86C4F3FF040185515B
:102CF0001200D9CFE5FFE1CFD9FF00C0E5FF01C049
:102D0000E5FF020EDBCF00F0030EDBCF01F0F29EF9
:102D1000F29C01C0A8FF00C0A9FFA69EA69CA684A5
:102D2000550EA76EAA0EA76EA682F28EF28CA694FE
:102D3000A6A202D00000FCD7E4CF01F0E4CF00F05F
:102D4000E4CFD9FF120000C0E5FF01C0E5FF040198
:102D500048510401511905E0040148510401471983
:102D600002E1E86A15D048C400F00401482B016A6A
:102D7000600E0026000E012200C0E9FF01C0EAFF3C
:102D8000EFCF00F04851800A02E10401486B005087
:102D9000E4CF01F0E4CF00F0120000C0E5FFB0EC9A
:102DA00019F00401896B806B8983006A89B3002A5A
:102DB0000050010BE844F46E8051FD0BF410806F5D
:102DC000D58ED59CD59AD588D596D594D582D580E3
:102DD000F28AF184D08EF28EF28CBA80FF0EBB683C
:102DE000BA84E4CF00F01200D9CFE5FFE1CFD9FFDC
:102DF00000C0E5FF01C0E5FF02C0E5FF020EDBCF2A
:102E000000F090C401F091C402F00401903F01D0A1
:102E1000912B0050E56E0150E56E79EC16F0E6520C
:102E2000E652E4CF02F0E4CF01F0E4CF00F0E4CFCB
:102E3000D9FF1200D8CFE5FFE0CFE5FFE56EF3CF75
:102E4000E5FFF4CFE5FFE9CFE5FFEACFE5FFFACFF5
:102E5000E5FFFBCFE5FFDAEC06F0E4CFFBFFE4CFC4
:102E6000FAFFE4CFEAFFE4CFE9FFE4CFF4FFE4CFD9
:102E7000F3FFE450E4CFE0FFE4CFD8FF1000E8AE6A
:102E80000AD0F3CFEAFFEE50EECFF3FFEECFF4FF20
:102E9000EECFE9FF1200E8BCC3EF19F0E9CFF6FF6F
:102EA000F3CFF7FFF86E0900F5500900F5CFF3FFF7
:102EB0000900F5CFF4FF0900F5CFE9FF120000C0CB
:102EC000E5FF01C0E5FF04013B5104013C1902E1AB
:102ED000E86A0FD0000E04013C25006E016A010E65
:102EE000012200C0E9FF01C0EAFFEFCF00F03C2B58
:102EF0000050E4CF01F0E4CF00F01200F2CFEAFF7F
:102F0000F29EA69EA69CA684E9CFA9FFF3CFAAFFB6
:102F1000E4CFA8FF83EC19F0F4CFA8FF83EC19F0FD
:102F2000F6CFA8FF83EC19F0F7CFA8FF83EC19F0D8
:102F3000A694EABEF28E1200D9CFE5FFE1CFD9FF09
:102F400000C0E5FF01C0E5FF020EDBCF00F0016A23
:102F5000230E0026040E012200C0E9FF01C0EAFF93
:102F6000FF0EEF68E4CF01F0E4CF00F0E4CFD9FF2B
:102F70001200F2CFF6FFF29EA69EA69CE9CFA9FF13
:102F8000F3CFAAFFA680A850A94AAA2AA680A8CF54
:102F9000F3FFA94AAA2AA680A8CFF4FFA94AAA2A21
:102FA000A680A8CFEAFFF6BEF28E1200E8AE08D0E7
:102FB000F3CFEAFFEE50EECFF3FFEECFF4FF1200B7
:102FC000E8BCCBEF19F0E9CFF6FFF3CFF7FFF86ECF
:102FD0000900F5500900F5CFF3FF0900F5CFF4FF24
:102FE0001200F2CFEAFFF29EA69EA69CA684E9CF2D
:102FF000A9FFF3CFAAFFE4CFA8FF83EC19F0F4CF29
:10300000A8FF83EC19F0F6CFA8FF83EC19F0A69483
:10301000EABEF28E1200D9CFE5FFE1CFD9FF00C0A2
:10302000E5FF020EDBCF00F000C03FF40050E56E7C
:10303000000EE56A79EC16F0E652E652E4CF00F0B5
:10304000E4CFD9FF1200F2CFF6FFF29EA69EA69C17
:10305000E9CFA9FFF3CFAAFFA680A850A94AAA2AC0
:10306000A680A8CFF3FFA94AAA2AA680A8CFF4FF7A
:10307000F6BEF28E120000C0E5FF01C0E5FF600E53
:1030800004014825006E016A000E012200C0E9FF1C
:1030900001C0EAFFEFCF00F00050E4CF01F0E4CF31
:1030A00000F01200D9CFE5FFE1CFD9FF00C0E5FF66
:1030B000020EDBCF00F0610E005C05E37B0E005CCE
:1030C00002E2010E01D0E86AE4CF00F0E4CFD9FFBC
:1030D000120000C0E5FF01C0E5FF90C400F091C4FC
:1030E00001F00401903F01D0912B0050E56E2BECD4
:1030F00019F0E652E4CF01F0E4CF00F01200D9CF8E
:10310000E5FFE1CFD9FF00C0E5FF020EDBCF00F005
:1031100000C03EF4005004E139EC19F09D9A9D98EE
:10312000E4CF00F0E4CFD9FF1200E8AE06D0F3CF31
:10313000EAFFEE50EECFF3FF1200E8BCC1EF19F04A
:10314000E9CFF6FFF3CFF7FFF86E0900F55009005D
:10315000F5CFF3FF1200F2CFEAFFF29EA69EA69CE7
:10316000A684E9CFA9FFF3CFAAFFE4CFA8FF83ECA1
:1031700019F0F4CFA8FF83EC19F0A694EABEF28E02
:10318000120012EEFFF022EEFFF0F86AA68EA69C67
:10319000E9680E0EEA6E0068000EED6A0050FDE16F
:1031A000E8EC12F006EC00F0FFD7F2CFF6FFF29E4B
:1031B000A69EA69CE9CFA9FFF3CFAAFFA680A850A0
:1031C000A94AAA2AA680A8CFF3FFF6BEF28E120063
:1031D000F2CFEAFFF29EA69EA69CA684E9CFA9FFA5
:1031E000F3CFAAFFE4CFA8FF83EC19F0A694EABEC0
:1031F000F28E1200E8AE0BD0F3CFEAFFE4CFEEFF81
:10320000F4CFEEFFF6CFEEFFF7CFEEFF1200E8BCF3
:10321000C5EF19F01200E8AE04D0F3CFEAFFEE508C
:103220001200E8BCBFEF19F0E9CFF6FFF3CFF7FFCC
:10323000F86E0900F5501200E8AE09D0F3CFEAFFAE
:10324000E4CFEEFFF4CFEEFFF6CFEEFF1200E8BCC6
:10325000CDEF19F01200D9CFE5FFE1CFD9FF020E73
:10326000DBCFA9FFA69CA69EA680A850E4CFD9FFDD
:103270001200ACA2FED79480AE500000AE50AB98C6
:10328000AB88AB869D8A9D98120025642000F2CF02
:10329000F6FFF29EA69EA69CE9CFA9FFF3CFAAFF58
:1032A000A680A850F6BEF28E1200E8AE07D0F3CF8B
:1032B000EAFFE4CFEEFFF4CFEEFF1200E8BCC9EF67
:1032C00019F01200700ED36E9B8CFF0E92689368FB
:1032D00094689668626AF19E120000C0E5FF80EC77
:1032E00015F0006E005001E1FF00E4CF00F0120085
:1032F000E8AE05D0F3CFEAFFE4CFEEFF1200E8BC62
:10330000C7EF19F01200550EA76EAA0EA76EA6827F
:10331000A6B2FED7A94AAA2A010E0401376F1C0ED5
:103320000401906F916B12000401376B1C0E0401B5
:10333000906F916B120001004E33000039040000C1
:103340000A000000CDEC16F0EEEC15F012000000C3
:103350000000FF0000000000ACA2FED7AD6E12001E
:1033600062EC19F01200040148511200040152519C
:10337000120004013E511200E8CF7FFF120047EF18
:1033800019F0D5EF18F0B9EF17F07EEF17F0E8EF6E
:0E33900018F0ABEF18F023EF18F0F1EF17F084
:020000040030CA
:010006008574
:00000001FF
