:020000040000FA
:100000005BEF24F0C96E120005EF20F0766AA50EB2
:10001000756E1200F7EF24F014EF22F0D9CFE5FF50
:10002000E1CFD9FF00C0E5FF01C0E5FF02C0E5FF59
:1000300003C0E5FF04C0E5FF05C0E5FF06C0E5FF1E
:1000400007C0E5FF08C0E5FF09C0E5FF0AC0E5FFFE
:100050000BC0E5FF0CC0E5FF0DC0E5FF0EC0E5FFDE
:100060000FC0E5FF10C0E5FF11C0E5FF12C0E5FFBE
:1000700013C0E5FF14C0E5FF15C0E5FF16C0E5FF9E
:1000800017C0E5FF18C0E5FF19C0E5FF1AC0E5FF7E
:100090001BC0E5FF1CC0E5FF1DC0E5FF1EC0E5FF5E
:1000A000020EDBCF00F0030EDBCF01F0040EDBCF3E
:1000B00002F0050EDBCF03F0060EDBCF04F0070ED7
:1000C000DBCF05F0080EDBCF06F0090EDBCF07F023
:1000D0000A0EDBCF08F0096A0A6A02C00DF00D5063
:1000E000800A0DE102500101856F0150846F0050BC
:1000F000836F010E016E830E006E800E026E03C0D0
:10010000E9FF04C0F3FF0550B8EC24F00B6E0B5070
:10011000D8B4FCEF03F00B50250A02E0E3EF03F044
:100120000C6A0D6A0E6A0F6A106A0A0E116E126A64
:10013000136A146A200E156E1668176A2B0E186E55
:10014000032A02E3044A052A03C0E9FF04C0F3FFBF
:100150000550B8EC24F0196E250A13E11950E56E2C
:100160000250E56E0150E56E0050E56EEAEC18F0C5
:10017000040EE126094A0A2A032A02E3044A052A50
:10018000BED71950300A06E1300E156E032A02E37D
:10019000044A052A03C0E9FF04C0F3FF0550B8EC88
:1001A00024F02D0A06E1010E146E032A02E3044A2C
:1001B000052A03C0E9FF04C0F3FF0550B8EC24F0A2
:1001C000200A08E1010E176E200E186E032A02E3C2
:1001D000044A052A03C0E9FF04C0F3FF0550B8EC48
:1001E00024F02B0A06E1010E176E032A02E3044AEB
:1001F000052A03C0E9FF04C0F3FF0550B8EC24F062
:10020000196E800F4F0F2DE31950800F460F29E212
:1002100003C019F004C01AF005C01BF019C0E9FFB3
:100220001AC0F3FF1B50B8EC24F01C6E800F500F67
:1002300012E31C50800F460F0EE213500A0DF3CF4D
:100240001DF01D501C26D00E1C24136E192A02E32B
:100250001A4A1B2AE3D719C003F01AC004F01BC0C6
:1002600005F003C0E9FF04C0F3FF0550B8EC24F02B
:100270002E0A2EE1032A02E3044A052A166A03C065
:1002800019F004C01AF005C01BF019C0E9FF1AC02C
:10029000F3FF1B50B8EC24F01C6E800F500F12E3DC
:1002A0001C50800F460F0EE216500A0DF3CF1DF0C2
:1002B0001D501C26D00E1C24166E192A02E31A4A61
:1002C0001B2AE3D719C003F01AC004F01BC005F0C5
:1002D00003C0E9FF04C0F3FF0550B8EC24F0196E29
:1002E0006C0A07E1010E0C6E032A02E3044A052A98
:1002F00009D01950680A06E1010E0E6E032A02E3C6
:10030000044A052A03C0E9FF04C0F3FF0550B8EC16
:1003100024F0750A06E1010E106E032A02E3044A76
:10032000052A03C0E9FF04C0F3FF0550B8EC24F030
:10033000196E730A05E1010E0D6E200E156E3FD089
:100340001950780A03E1100E116E39D01950580A6D
:1003500005E1100E116E010E126E31D01950630AB4
:1003600002E1116A2CD019506F0A03E1080E116ED8
:1003700026D01950660A03E1010E0F6E20D01950E5
:10038000640A1DE01950690A1AE0105005E0FF0EDA
:1003900003260422052213D01950E56E0250E56EA3
:1003A0000150E56E0050E56EEAEC18F0040EE1260F
:1003B000094A0A2A032A02E3044A052AA0D60D5054
:1003C00021E00650030F0D6E000E0720196E000E7F
:1003D00008201A6E0DC006F019C007F01AC008F008
:1003E000FD0E0D26FF0E19221A220DC0E9FF19C0BD
:1003F000F3FF1A5086EC23F00D6EF3CF19F0F4CF13
:100400001AF032D10F50D8B43ED00650040F0F6E00
:10041000000E07201B6E000E08201C6E0FC006F099
:100420001BC007F01CC008F0FC0E0F26FF0E1B229D
:100430001C220FC0E9FF1BC0F3FF1C50EFEC22F0A1
:100440000F6EF3CF1BF0F4CF1CF0E9CF1DF00F0EB1
:10045000196E000E0D6E800E1A6E1650E56E240E8B
:10046000E56E0F0EE56E000EE56E1D50E56E1C503C
:10047000E56E1B50E56E0F50E56E83EC0CF0080E38
:10048000E1261668F1D016680C5023E00650040FE0
:100490000C6E000E07200F6E000E08201B6E0CC0A5
:1004A00006F00FC007F01BC008F0FC0E0C26FF0E74
:1004B0000F221B220CC0E9FF0FC0F3FF1B50EFEC13
:1004C00022F00C6EF3CF0FF0F4CF1BF0E9CF1CF04D
:1004D0006AD00E5032E00650020F0E6E000E07205A
:1004E0001D6E000E08201E6E0EC006F01DC007F027
:1004F0001EC008F0FE0E0E26FF0E1D221E220EC08C
:10050000E9FF1DC0F3FF1E502FEC24F00E6E0EC04D
:100510000CF0E86A0EBEFF0E0F6E1B6E1C6E1150C3
:100520000A0A03E11050D8B43ED00C500E6E0EC033
:100530000CF00F6A1B6A1C6A36D00650020F0E6E52
:10054000000E07201D6E000E08201E6E0EC006F065
:100550001DC007F01EC008F0FE0E0E26FF0E1D2265
:100560001E220EC0E9FF1DC0F3FF1E502FEC24F029
:100570000E6EF3CF1DF00EC00CF01DC00FF0E86A38
:100580001DBEFF0E1B6E1C6E11500A0A02E11050B8
:100590000AE00C500E6E0F501D6E0EC00CF01DC008
:1005A0000FF01B6A1C6A0F0E196E010E0D6E800E85
:1005B0001A6E1150D8B440D0105013E01150E56EAF
:1005C0000F0EE56E010EE56E1C50E56E1B50E56EDC
:1005D0000F50E56E0C50E56E84EC11F0070EE1262D
:1005E00012D01150E56E0F0EE56E010EE56E1C5037
:1005F000E56E1B50E56E0F50E56E0C50E56EA6ECF7
:100600001BF0070EE12617502FE00DC0E9FF19C0BF
:10061000F3FF1A50B8EC24F02D0A26E0FF0E0D2649
:1006200019221A2218C0E5FF0DC0E9FF19C0F3FF17
:100630001A5034EC25F018D00CC0E5FF0DC0E9FFCE
:1006400019C0F3FF1A5034EC25F00D50010F0C6E59
:10065000000E19200E6E000E1A20E56A0CC0E9FF8C
:100660000EC0F3FF34EC25F00DC00CF019C00EF0F5
:100670001AC00FF013C010F0105010E00CC0E9FFCA
:100680000EC0F3FF0F50B8EC24F0176E175006E0C1
:100690000C2A02E30E4A0F2A1006EED710C013F000
:1006A00014501EE109C00CF00AC00EF010C00FF08B
:1006B0000F5010E01550E56E0250E56E0150E56EEA
:1006C0000050E56EEAEC18F0040EE1260C4A0E2A02
:1006D0000F06EED70CC009F00EC00AF00FC013F0E1
:1006E00016C00CF00DC00DF019C00EF01AC00FF0BE
:1006F00009C010F00AC015F00DC0E9FF0EC0F3FFED
:100700000F50B8EC24F0166E1650D8B43ED00CC082
:1007100016F0176A161E171E1650171005E00CC0AB
:1007200016F00C06165031E00DC0E9FF0EC0F3FFC5
:100730000F50B8EC24F0116E125010E01150E56E1D
:1007400002EC24F0166EE652165004E01150166EBC
:10075000169A02D011C016F016C011F01150E56EB5
:100760000250E56E0150E56E0050E56EEAEC18F0BF
:10077000040EE1260D2A02E30E4A0F2A104A152A1A
:100780001350D8B4B9D71306B7D710C009F015C0A5
:100790000AF014502BE010C00CF015C00DF013C07F
:1007A0000EF00E501FE0200EE56E0250E56E015077
:1007B000E56E0050E56EEAEC18F0040EE1260C4AF6
:1007C0000D2A0E06EED70B50E56E0250E56E015075
:1007D000E56E0050E56EEAEC18F0040EE126094AD9
:1007E0000A2A04D00CC009F00DC00AF0032A02E363
:1007F000044A052A7FEF00F00AC0F3FF0950E4CF56
:100800001EF0E4CF1DF0E4CF1CF0E4CF1BF0E4CFEA
:100810001AF0E4CF19F0E4CF18F0E4CF17F0E4CFEA
:1008200016F0E4CF15F0E4CF14F0E4CF13F0E4CFEA
:1008300012F0E4CF11F0E4CF10F0E4CF0FF0E4CFEA
:100840000EF0E4CF0DF0E4CF0CF0E4CF0BF0E4CFEA
:100850000AF0E4CF09F0E4CF08F0E4CF07F0E4CFEA
:1008600006F0E4CF05F0E4CF04F0E4CF03F0E4CFEA
:1008700002F0E4CF01F0E4CF00F0E4CFD9FF1200A2
:1008800005C0E5FF06C0E5FF07C0E5FF08C0E5FFBE
:1008900009C0E5FF0AC0E5FF0BC0E5FF0CC0E5FF9E
:1008A0000DC0E5FF0EC0E5FF0FC0E5FF10C0E5FF7E
:1008B00011C0E5FF12C0E5FF13C0E5FF14C0E5FF5E
:1008C00015C0E5FF16C0E5FF17C0E5FF18C0E5FF3E
:1008D00019C0E5FF1AC0E5FF1BC0E5FF1CC0E5FF1E
:1008E0001DC0E5FF000E00B0050F066AF60F02E31B
:1008F000062AFCD70A0F056E042E03D0FB0F01E376
:10090000062A065000B0020F00B2050F076AF60F64
:1009100002E3072AFCD70A0F066E042E03D0FB0F52
:1009200001E3072A075000B0060F00B2020F00B41F
:10093000050F086AF60F02E3082AFCD70A0F076EB4
:10094000042E03D0FB0F01E3082A085000B2010F68
:1009500000B4020F00B6050F096AF60F02E3092A78
:10096000FCD70A0F086E042E03D0FB0F01E3092AFF
:10097000095000B0090F00B2080F00B4060F00B60E
:10098000020F00B8050F0A6AF60F02E30A2AFCD725
:100990000A0F096E042E03D0FB0F01E30A2A0A5046
:1009A00000B0030F00B2070F00B4050F00B6010F2F
:1009B00000B8020F00BA050F0B6AF60F02E30B2A0C
:1009C000FCD70A0F0A6E042E03D0FB0F01E30B2A9B
:1009D0000B5000B0050F00B4010F00B6030F00B8B4
:1009E000060F00BA020F00BC050F0C6AF60F02E3F7
:1009F0000C2AFCD70A0F0B6E042E03D0FB0F01E369
:100A00000C2A0C5000B0070F00B2050F00BA010FFE
:100A100000BC020F00BE050F0D6AF60F02E30D2A9F
:100A2000FCD70A0F0C6E042E03D0FB0F01E30D2A36
:100A30000D5000B0070F00B2050F00B4010F00B653
:100A4000020F00B8040F00BA080F00BC060F00BE6A
:100A5000020F01B0050F0E6AF60F02E30E2AFCD753
:100A60000A0F0D6E042E03D0FB0F01E30E2A0E5069
:100A700000B0040F00B2090F00B4090F00B6080F50
:100A800000B8060F00BA020F00BC050F00BE010F30
:100A900001B0020F01B2050F0F6AF60F02E30F2A31
:100AA000FCD70A0F0E6E042E03D0FB0F01E30F2AB2
:100AB0000F5000B0040F00B2080F00B4070F00B6CB
:100AC000050F00B8010F00BA030F00BC060F00BEEF
:100AD000030F01B0060F01B2020F01B4050F106A37
:100AE000F60F02E3102AFCD70A0F0F6E042E03D074
:100AF000FB0F01E3102A105000B0060F00B2020FE6
:100B000000B4050F00B6010F00B8030F00BA060FBE
:100B100000BC020F00BE050F01B2010F01B4020FAD
:100B200001B6050F116AF60F02E3112AFCD70A0F6E
:100B3000106E042E03D0FB0F01E3112A115000B0F8
:100B4000040F00B2090F00B4080F00B6070F00B879
:100B5000040F00BA080F00BC070F00BE040F01B05D
:100B6000090F01B2080F01B4060F01B6020F01B858
:100B7000050F126AF60F02E3122AFCD70A0F116E54
:100B8000042E03D0FB0F01E3122A125000B4010F10
:100B900000B6030F00B8070F00BA040F00BC090F1E
:100BA00000BE090F01B0080F01B2070F01B4050F15
:100BB00001B6010F01B8020F01BA050F136AF60F53
:100BC00002E3132AFCD70A0F126E042E03D0FB0F88
:100BD00001E3132A135000B0060F00B2020F00B455
:100BE000040F00B6080F00B8060F00BA030F00BCD0
:100BF000060F00BE030F01B0070F01B2050F01B4CD
:100C0000010F01B6030F01B8060F01BA020F01BCB4
:100C1000050F146AF60F02E3142AFCD70A0F136EAD
:100C2000042E03D0FB0F01E3142A145000B0090F67
:100C300000B2090F00B4080F00B6060F00B8030F8A
:100C400000BA070F00BC040F00BE090F01B0080F67
:100C500001B2070F01B4050F01BA010F01BC020F69
:100C600001BE050F156AF60F02E3152AFCD70A0F1D
:100C7000146E042E03D0FB0F01E3152A155000B0AB
:100C8000050F00B2010F00B4030F00B6070F00B844
:100C9000050F00BC010F00BE020F01B0050F01B22D
:100CA000010F01B4030F01B6070F01B8040F01BA19
:100CB000080F01BC060F01BE020F02B0050F166A35
:100CC000F60F02E3162AFCD70A0F156E042E03D086
:100CD000FB0F01E3162A165000B2010F00B4020FF9
:100CE00000B6040F00B8090F00BA090F00BC080FC6
:100CF00000BE060F01B0020F01B2050F01B8010FCF
:100D000001BA020F01BC050F01BE010F02B0020FB4
:100D100002B2050F176AF60F02E3172AFCD70A0F73
:100D2000166E042E03D0FB0F01E3172A175000BAEA
:100D3000010F00BC030F00BE070F01B0050F01B487
:100D4000010F01B6020F01B8040F01BA080F01BC70
:100D5000060F01BE030F02B0060F02B2020F02B46B
:100D6000050F186AF60F02E3182AFCD70A0F176E50
:100D7000042E03D0FB0F01E3182A185001B0010F15
:100D800001B2030F01B4060F01B6020F01B8040F40
:100D900001BA080F01BC070F01BE050F02B2010F17
:100DA00002B4020F02B6050F196AF60F02E3192A00
:100DB000FCD70A0F186E042E03D0FB0F01E3192A8B
:100DC000195001B6010F01B8020F01BA040F01BC9E
:100DD000090F01BE090F02B0090F02B2080F02B4D9
:100DE000060F02B6020F02B8050F1A6AF60F02E3E9
:100DF0001A2AFCD70A0F196E042E03D0FB0F01E349
:100E00001A2A1A5001BE010F02B0030F02B2070FD7
:100E100002B4050F02B6010F02B8020F02BA050FA5
:100E20001B6AF60F02E31B2AFCD70A0F1A6E042E68
:100E300003D0FB0F01E31B2A1B5002B4010F02B6C3
:100E4000030F02B8060F02BA020F02BC050F1C6A9C
:100E5000F60F02E31C2AFCD70A0F1B6E042E03D0E8
:100E6000FB0F01E31C2A1C5002BA010F02BC020F47
:100E700002BE050F1D6AF60F02E31D2AFCD70A0FFA
:100E80001C6E042E03D0FB0F01E31D2A300FEE6E03
:100E90001B50300FEE6E1A50300FEE6E1950300F9F
:100EA000EE6E1850300FEE6E1750300FEE6E16507B
:100EB000300FEE6E1550300FEE6E1450300FEE6E98
:100EC0001350300FEE6E1250300FEE6E1150300F87
:100ED000EE6E1050300FEE6E0F50300FEE6E0E5063
:100EE000300FEE6E0D50300FEE6E0C50300FEE6E78
:100EF0000B50300FEE6E0A50300FEE6E0950300F6F
:100F0000EE6E0850300FEE6E0750300FEE6E06504A
:100F1000300FEE6E0550300FEE6E170EE4CF1DF061
:100F2000E4CF1CF0E4CF1BF0E4CF1AF0E4CF19F0CB
:100F3000E4CF18F0E4CF17F0E4CF16F0E4CF15F0CB
:100F4000E4CF14F0E4CF13F0E4CF12F0E4CF11F0CB
:100F5000E4CF10F0E4CF0FF0E4CF0EF0E4CF0DF0CB
:100F6000E4CF0CF0E4CF0BF0E4CF0AF0E4CF09F0CB
:100F7000E4CF08F0E4CF07F0E4CF06F0E4CF05F0CB
:100F80001200D9CFE5FFE1CFD9FF00C0E5FF01C0D6
:100F9000E5FF02C0E5FF03C0E5FF04C0E5FF05C0B3
:100FA000E5FF06C0E5FF07C0E5FF08C0E5FF09C093
:100FB000E5FF0AC0E5FF0BC0E5FF0CC0E5FF0DC073
:100FC000E5FF0EC0E5FF020EDBCF00F0016A010E67
:100FD0000014026E040E0014036E020E0016046A62
:100FE000080E045CD8B0D8D10A01902B080E905D91
:100FF00001E3906B0A019039E8441F0B056E066A05
:101000009E0E0526010E062205C0E9FF06C0EAFF76
:10101000EFCF05F0070E9015066E010E076E086AF9
:10102000065006E0E86CD89007360836010FFCE35E
:10103000096A055007160950081607500810D0E035
:101040000A019051020DF450066EF3CF05F0E90E3F
:101050000524076E0A0E0620086E07C0E9FF08C0C7
:10106000EAFFEECF07F0EFCF08F00250D8B49DD0E2
:10107000200E0524096E010E06200A6E09C0E9FF44
:101080000AC0EAFFEECF09F0EFCF0AF00850800F58
:10109000F36E0A50800FF35C02E10950075C03E233
:1010A000076A086A60D0300E0526010E062205C0C8
:1010B000E9FF06C0EAFFEECF05F0EFCF06F00650DD
:1010C000800FF36E0850800FF35C02E10750055C5F
:1010D00004E207683F0E086E46D00950075C0B6EAD
:1010E0000A5008580C6EE86A0CBEFF0E0D6EE56ED5
:1010F0000D50E56E0C50E56E0B50E56EE56AE56A45
:10110000400EE56E000EE56A95EC0DF00B6EF3CF28
:101110000CF0F4CF0DF0E9CF0EF0080EE1260950E7
:10112000055C096E0A5006580A6EE86A0ABEFF0E90
:10113000056EE56E0550E56E0A50E56E0950E56EE8
:101140000E50E56E0D50E56E0C50E56E0B50E56EE1
:10115000D5EC17F0056EF3CF06F0080EE12605502A
:10116000076E0650086E0A018D51800FF36E08500D
:10117000800FF35C02E107508C5D03E3076A086AA5
:1011800014D00A018C51FF08056E3F0E8D55066E76
:101190000850800FF36E0650800FF35C02E105509B
:1011A000075C03E307683F0E086E0A019051020DC9
:1011B000F450066EF3CF05F0100E0526010E062240
:1011C00005C0E9FF06C0EAFFEECF05F0EFCF06F05D
:1011D0000550075C056E06500858066ED88006AEAE
:1011E000D89004E3061E056CD8B4062A042A0A0126
:1011F0008D51800FF36E0650800FF35C02E10550B5
:101200008C5DD8B0EDD60A019051020DF4500A6EF3
:10121000F3CF09F0100E0926010E0A2209C0E9FFDA
:101220000AC0EAFF07C0EEFF08C0EFFF0350D8B4C2
:1012300059D09051020DF4500A6EF3CF09F0400ED0
:1012400009240B6E010E0A200C6E0BC0E9FF0CC0C6
:10125000EAFFEECF0DF0EFCF0EF00D500E10D8B428
:1012600041D0000E0926010E0A2209C0E9FF0AC07A
:10127000EAFFEECF09F0EFCF0AF00950075C056EE8
:101280000A500858066E05101CE00650800F800FAB
:1012900002E1010E055C096A09360E50800F800FCD
:1012A00002E1010E0D5C0D6A0D3609500D1809E1C1
:1012B0000BC0E9FF0CC0EAFF05C0EEFF06C0EFFF60
:1012C0008FD60A019051020DF450066EF3CF05F04F
:1012D000400E0526010E062205C0E9FF06C0EAFF02
:1012E000EE6AEF6A0050D8B443D001500EE101C05D
:1012F00005F0012A066A910E05260A0E062205C08F
:10130000E9FF06C0EAFF420EEF6E01C005F0012AB8
:10131000066A910E05260A0E0622640E0A01902521
:10132000096E05C0E9FF06C0EAFF09C0EFFF01C072
:1013300005F0012A066A910E05260A0E06220850BB
:10134000096E05C0E9FF06C0EAFF09C0EFFF01C052
:1013500005F0012A066A910E05260A0E062207509C
:10136000096E05C0E9FF06C0EAFF09C0EFFF38D6E5
:1013700090CA05F00850E56E0750E56EE56A055025
:10138000E56E000EE56E2E0EE56E580EE56E0DEC68
:101390001FF0070EE12624D604C002F001501CE025
:1013A00000501AE001C000F0012A036A910E0026E5
:1013B0000A0E032200C0E9FF03C0EAFF0A0EEF6E27
:1013C0000150E56E800EE56E0A0EE56E910EE56E3B
:1013D00073EC19F0040EE1260250E4CF0EF0E4CFD6
:1013E0000DF0E4CF0CF0E4CF0BF0E4CF0AF0E4CF43
:1013F00009F0E4CF08F0E4CF07F0E4CF06F0E4CF43
:1014000005F0E4CF04F0E4CF03F0E4CF02F0E4CF42
:1014100001F0E4CF00F0E4CFD9FF120000C0E5FFF7
:1014200001C0E5FF02C0E5FF03C0E5FF04C0E5FF22
:1014300005C0E5FF06C0E5FF07C0E5FF08C0E5FF02
:1014400009C0E5FF0AC0E5FF0BC0E5FF0CC0E5FFE2
:101450000DC0E5FF0EC0E5FF000E00B0010F00B2A9
:10146000020F00B4040F00B6080F00B8060F00BA50
:10147000020F00BC040F00BE080F01B0060F01B23E
:10148000020F01B4040F01B6080F01B8060F01BA2C
:10149000020F01BC040F01BE080F02B0060F02B21A
:1014A000020F02B4040F02B6080F02B8060F02BA08
:1014B000020F02BC040F02BE080F056AF60F02E31A
:1014C000052AFCD70A0F046E055000B8010F00BAB8
:1014D000030F00BC060F00BE020F01B0050F01B2E2
:1014E000010F01B4020F01B6040F01B8090F01BAD0
:1014F000090F01BC080F01BE060F02B0030F02B2B4
:10150000070F02B4040F02B6080F02B8070F02BAA1
:10151000050F066AF60F02E3062AFCD70A0F056ECE
:10152000065000BE010F01B0020F01B2050F01BA53
:10153000010F01BC030F01BE070F02B0050F02B47B
:10154000010F02B6020F02B8050F02BA010F02BC6A
:10155000030F02BE060F076AF60F02E3072AFCD745
:101560000A0F066E075001B4010F01B6020F01B851
:10157000040F01BA080F01BC060F01BE020F02B032
:10158000050F02B2010F02B4020F02B6040F02B837
:10159000080F02BA070F02BC040F02BE080F086A48
:1015A000F60F02E3082AFCD70A0F076E085001BCA9
:1015B000010F01BE030F02B0060F02B2030F02B407
:1015C000060F02B6020F02B8040F02BA090F02BCDE
:1015D000090F02BE080F096AF60F02E3092AFCD7B9
:1015E0000A0F086E095002B2010F02B4020F02B6D0
:1015F000050F02BC010F02BE030F0A6AF60F02E3D9
:101600000A2AFCD70A0F096E0A5002B8010F02BA63
:10161000020F02BC040F02BE080F0B6AF60F02E3B2
:101620000B2AFCD70A0F0A6E0B500E6A0EE10A5005
:1016300010E1095012E1085014E1075016E106507C
:1016400018E105501AE104501CD00E2A300FEE6E3E
:101650000A500E2A300FEE6E09500E2A300FEE6E31
:1016600008500E2A300FEE6E07500E2A300FEE6E25
:1016700006500E2A300FEE6E05500E2A300FEE6E19
:1016800004500E2A300FEE6E0E50E4CF0EF0E4CF71
:101690000DF0E4CF0CF0E4CF0BF0E4CF0AF0E4CF90
:1016A00009F0E4CF08F0E4CF07F0E4CF06F0E4CF90
:1016B00005F0E4CF04F0E4CF03F0E4CF02F0E4CF90
:1016C00001F0E4CF00F0120000C0E5FF01C0E5FF2B
:1016D00002C0E5FF03C0E5FF04C0E5FF05C0E5FF6C
:1016E00006C0E5FF07C0E5FF08C0E5FF09C0E5FF4C
:1016F000C2B2F4D00A018F51D8B4ADD00A018E51D4
:10170000020DF450016EF3CF00F0E90E00260A0E30
:10171000012200C0E9FF01C0EAFFEECF02F0EFCFE7
:1017200003F003340330056E0230046E05340532D5
:1017300004320534053204320450025C046E055054
:101740000358056EC3CF06F0076A065004260750FB
:101750000522C4CF06F00650096E086A0850042618
:101760000950052200C0E9FF01C0EAFF04C0EEFFF6
:1017700005C0EFFF0A018B51010A01E06AD00A019E
:101780008E51020DF450016EF3CF00F0E90E0024EB
:10179000046E0A0E0120056E04C0E9FF05C0EAFFD1
:1017A000EECF02F0EFCF03F0200E0026010E012253
:1017B00000C0E9FF01C0EAFFEECF04F0EFCF05F073
:1017C0009C0E0426D8A005060350800FF36E05502A
:1017D000800FF35C02E10450025C0EE20250640FE1
:1017E000046E000E0320056E00C0E9FF01C0EAFF91
:1017F00004C0EEFF05C0EFFF0A018E51020DF45048
:10180000016EF3CF00F0300E0026010E012200C061
:10181000E9FF01C0EAFFEECF04F0EFCF05F0640E60
:101820000426D8B0052A0550800FF36E0350800FB0
:10183000F35C02E10250045C0CE29C0E0226D8A08C
:10184000030600C0E9FF01C0EAFF02C0EEFF03C0CB
:10185000EFFF0A018F6B0A018E2B080E8E5D01E3EC
:101860008E6B0A018E39E8441F0B006E016A9E0ED2
:101870000026010E012200C0E9FF01C0EAFFEFCF00
:1018800000F0070E8E15016E010E026E036A015004
:1018900006E0E86CD89002360336010FFCE3046AD8
:1018A00000500216045003160250031017E0600E99
:1018B0000A018E25006E016A010E012200C0E9FFB7
:1018C00001C0EAFFEFCF00F00044E844FC0B016EDA
:1018D0000128C26EC282010E0A018F6FE4CF09F0A7
:1018E000E4CF08F0E4CF07F0E4CF06F0E4CF05F052
:1018F000E4CF04F0E4CF03F0E4CF02F0E4CF01F052
:10190000E4CF00F01200D9CFE5FFE1CFD9FF00C04E
:10191000E5FF01C0E5FF02C0E5FF03C0E5FF04C02D
:10192000E5FF05C0E5FF06C0E5FF07C0E5FF08C00D
:10193000E5FF09C0E5FF0AC0E5FF0BC0E5FF020EA9
:10194000DBCF00F0030EDBCF01F0040EDBCF02F0A3
:10195000050EDBCF03F0060EDBCF04F0070EDBCF66
:1019600005F0080EDBCF06F0090EDBCF07F006C04E
:1019700008F0060608500EE006500424086EE86AD7
:1019800006BEE8680520096E08C0E9FF09C0EAFF45
:10199000EF6AEDD7005001017C6F01507D6F02505E
:1019A0007E6F03507F6F7CC100F07DC101F07EC16E
:1019B00002F07FC103F0066A086A096A800E031408
:1019C0000A6E065007E1085005E1095003E10A508C
:1019D000800A01E012D0039E005001017C6F01508B
:1019E0007D6F02507E6F03507F6F04C0E9FF05C01A
:1019F000EAFF2D0EEF6E044A052A01017E357F3580
:101A00007E08006E7C51016E7D51026E7F0E7E1548
:101A1000036E066A038E086A096A0A6A0B6A005036
:101A200019E0D88000AED8900EE308500826093699
:101A30000A360B3603BE08800150012602360336F3
:101A40000636002AECD7D890063203320232013231
:101A50000006E5D7085009100A100B1012E00550D7
:101A6000E56E0450E56E0B50E56E0A50E56E0950C8
:101A7000E56E0850E56E6CEC21F0006E060EE12676
:101A800008D004C0E9FF05C0EAFF300EEF6E010E7A
:101A9000006E00500426E86A00BEE8680522075080
:101AA00028E004C0E9FF05C0EAFF2E0EEF6E002A11
:101AB000044A052A07501808E56E0550E56E0450E3
:101AC000E56E0650E56E0350E56E0250E56E01507E
:101AD000E56EADEC20F0016E070EE1260150002608
:101AE00007500426E86A052204C0E9FF05C0EAFFA2
:101AF000EF6A0050E4CF0BF0E4CF0AF0E4CF09F036
:101B0000E4CF08F0E4CF07F0E4CF06F0E4CF05F02F
:101B1000E4CF04F0E4CF03F0E4CF02F0E4CF01F02F
:101B2000E4CF00F0E4CFD9FF1200D9CFE5FFE1CF39
:101B3000D9FF00C0E5FF01C0E5FF02C0E5FF03C01B
:101B4000E5FF04C0E5FF05C0E5FF06C0E5FF07C0EF
:101B5000E5FF020EDBCF00F0030EDBCF01F0040E39
:101B6000DBCF02F0050EDBCF03F0060EDBCF04F077
:101B7000070EDBCF05F0080EDBCF06F0090EDBCF3A
:101B800007F000500101686F0150696F02506A6FE1
:101B900003506B6F045001016C6F05506D6F065060
:101BA0006E6F07506F6F0101685101016E03F4CF32
:101BB00001F0F3CF00F000500101726F0150736F1C
:101BC0000101685101016C03F4CF01F0F3CF00F083
:101BD00000500101706F0150716F01016B510101E3
:101BE0006C03F3CF00F00101735100260050736FB6
:101BF00001016A5101016D03F3CF00F0010173513E
:101C000000260050736F01016A5101016C03F4CF8B
:101C100001F0F3CF00F0010172510026735101224F
:101C20000050726F0150736F0101695101016D0322
:101C3000F4CF01F0F3CF00F001017251002673518F
:101C400001220050726F0150736F0101695101014F
:101C50006E03F3CF00F000500101776F010169516D
:101C600001016C03F4CF01F0F3CF00F0005001014B
:101C7000756F0150766F0101685101016F03F3CF59
:101C800000F0005001017B6F0101685101016D03FB
:101C9000F4CF01F0F3CF00F000500101796F015053
:101CA0007A6F0101746B0101786B010174510101BC
:101CB0007025006E0101755101017121016E010154
:101CC000765101017221026E0101775101017321E8
:101CD000036E0050706F0150716F0250726F0350AD
:101CE000736F0101785101017025006E0101795176
:101CF00001017121016E01017A5101017221026E0F
:101D000001017B5101017321036E03C0E9FF02C091
:101D1000F4FF01C0F3FF0050E4CF07F0E4CF06F07A
:101D2000E4CF05F0E4CF04F0E4CF03F0E4CF02F019
:101D3000E4CF01F0E4CF00F0E4CFD9FF120000C0FF
:101D4000E5FF01C0E5FF9DA81DD09EA81BD00101A5
:101D500096510101931905E112EC25F00101936BF5
:101D6000E7D0A30E01019625006E016A0A0E01223A
:101D700000C0E9FF01C0EAFFEFCF8FF1962B8FC1C2
:101D8000ADFFD6D09EAAD4D0ABA205D001019481DC
:101D900012EC25F0CDD0ABA405D00101948312EC58
:101DA00025F0C6D0ABA03ED0AECF8FF1800E0A0199
:101DB000891101018F1904E101019489AB96B8D012
:101DC00001018F5104E08F510A01891927E10101B6
:101DD0009499AB9601018F5103E00101949702D0D1
:101DE000010194878FC198F191C199F10101910589
:101DF00001019A6F600E01019925006E016A000EC3
:101E0000012200C0E9FF01C0EAFF8FC1EFFF992B5B
:101E10009951800A02E10101996B8AD001019499DC
:101E2000AB8686D0AECF8FF1010194A919D0800E78
:101E30000A01891101018F1911E18B909D9AAB98CC
:101E40000101935104E1AD6A12EC25F007D0A3CA59
:101E5000ADFF010E0101966F9D886AD0AB8668D0F8
:101E600001018F51010198270101995101019A192E
:101E70001BE1010198510CE199C191F1010194B765
:101E800012D08B909D9AAB98AD6A12EC25F00BD0D6
:101E90000101948594B707D08B909D9AAB98010E61
:101EA000AD6E12EC25F044D0010199510101921957
:101EB00008E1010192510101911903E012EC25F0B2
:101EC00037D091C100F0016A004A012AE56A800E0C
:101ED000E56E0150E56E0050E56E65EC1AF0006E9F
:101EE000040EE12600500101906F010199190CE1E7
:101EF0001F0E01018F1501019A6F9A2B9A2B010178
:101F0000915101019A279A9F99C100F00101992BE3
:101F1000016A600E0026000E012200C0E9FF01C028
:101F2000EAFF8FC1EFFF9951800A02E10101996B2D
:101F3000E4CF01F0E4CF00F0120094EC24F0006A4A
:101F4000016A026A240E0124036E0F0E0220046E41
:101F500003C0E9FF04C0EAFFEE6AEF6A020E012641
:101F6000D8B0022A002A0050800F780FEBE38A983D
:101F70008A968A948A928B848B828A8A8A80929E9D
:101F8000006A92BE002A0050010BE840E840F46E5F
:101F90009250BF0BF410926E006A92BC002A00505F
:101FA000010BE844E844F46E9450FB0BF410946E7B
:101FB0009298006A92B8002A0050010BE838E84471
:101FC000F46E9250DF0BF410926E006A92BA002AFF
:101FD0000050010BE844F46E9450FD0BF410946E25
:101FE0009396006A93B6002A0050010BE838F46E0D
:101FF0009350EF0BF410936E006A93B8002A0050D0
:10200000010BE838E844F46E9350DF0BF410936E44
:102010009394006A93B4002A0050010BE844F46ED4
:102020009350FD0BF410936E006A93B2002A005097
:10203000010BF46E9350FE0BF410936E330ECD6EC5
:102040009D809F8010EC21F0B8EC16F0100EE56E2C
:10205000000EE56AC1EC1CF0E652E652110EE56E88
:10206000010EE56EC1EC1CF0E652E652020EE56E82
:10207000E56EC1EC1CF0E652E652010EE56E030E71
:10208000E56EC1EC1CF0E652E652FFEC1DF052EC9E
:1020900025F080CA8CF197EC21F0006EF3CF01F0AF
:1020A000F4CF02F0E9CF03F027EC16F064EC0BF06C
:1020B00027EC16F020EC13F027EC16F046EC1EF09F
:1020C00097EC21F0046EF3CF05F0F4CF06F0E9CFE2
:1020D00007F00050045E0150055A0250065A0350A2
:1020E000075A079E000E075C08E1000E065C05E13A
:1020F000130E055C02E1890E045CD6E397EC21F037
:10210000006EF3CF01F0F4CF02F0E9CF03F0020E3E
:10211000E56EC1EC07F0E65299EC10F08CC104F0CA
:1021200001018C070450D8A4BFD780CA8CF1BCD75A
:10213000120000C0E5FF01C0E5FF02C0E5FF03C0DB
:10214000E5FF04C0E5FF05C0E5FF06C0E5FF07C0E9
:10215000E5FF08C0E5FF09C0E5FF0AC0E5FF006A2A
:10216000016A040E015CD8B0B7D0500E0A019F2559
:10217000026E036A010E032202C0E9FF03C0EAFFF8
:10218000EFCF02F00250D8B4A0D09F39E8441F0B23
:10219000026E8A0E0224036E046A010E042203C03A
:1021A000E9FF04C0EAFFEFCF03F0070E9F15046EAE
:1021B000010E056E000E066E045006E0E86CD89025
:1021C00005360636010FFCE3076A05500316065074
:1021D0000716035005E1075003E1036A032A01D003
:1021E000036A0350D880E866D890036A0336076A0A
:1021F000880E0226010E072202C0E9FF07C0EAFF8F
:10220000EFCF08F008C009F00A6A095005160A5015
:102210000616055005E1065003E1056A052A01D0BE
:10222000056A0550D880E866D890056A05360350DF
:10223000051801E14AD0035012E0010E056E04506A
:1022400005E0E86CD8900536010FFDE30550081253
:1022500002C0E9FF07C0EAFF08C0EFFF17D002C0C5
:10226000E9FF07C0EAFFEFCF05F0010E066E04504C
:1022700005E0E86CD8900636010FFDE3061C051654
:1022800002C0E9FF07C0EAFF05C0EFFF035003E10A
:10229000036A032A01D0036A026A03BE02689FCA66
:1022A00004F00250E56E0350E56EE56A0450E56EF9
:1022B000000EE56E3C0EE56E800EE56E0DEC1FF037
:1022C000070EE126012A01C000F00A019F2B100E23
:1022D0009F5DD8A046D79F6B0050E4CF0AF0E4CFB3
:1022E00009F0E4CF08F0E4CF07F0E4CF06F0E4CF44
:1022F00005F0E4CF04F0E4CF03F0E4CF02F0E4CF44
:1023000001F0E4CF00F01200D9CFE5FFE1CFD9FF13
:1023100000C0E5FF01C0E5FF02C0E5FF03C0E5FF27
:1023200004C0E5FF05C0E5FF06C0E5FF07C0E5FF07
:1023300008C0E5FF09C0E5FF0AC0E5FF0BC0E5FFE7
:102340000CC0E5FF0DC0E5FF0EC0E5FF0FC0E5FFC7
:10235000020EDBCF00F0030EDBCF01F0040EDBCF6B
:1023600002F0050EDBCF03F0060EDBCF04F0070E04
:10237000DBCF05F0080EDBCF06F0200E076E086AF3
:1023800006C009F00A6A0B6A0C6AE56AE56AE56A42
:102390000950E56E0350E56E0250E56E0150E56EA2
:1023A0000050E56E94EC15F00D6E080EE126300E2F
:1023B0000D263A0E0D5C05E30D500E6E270E0E2411
:1023C0000D6EFF0E07260822E00E07240E6E000E8B
:1023D00008200F6E0EC0E9FF0FC0EAFF0DC0EFFF2F
:1023E0000C50E56E0B50E56E0A50E56E0950E56E37
:1023F0000350E56E0250E56E0150E56E0050E56E4B
:10240000D5EC17F0006EF3CF01F0F4CF02F0E9CF76
:1024100003F0080EE1260050011002100310D8A4AA
:10242000AFD707C000F008C001F004C002F005C03B
:1024300003F000C004F001C005F0004A012AE00EDC
:102440000426000E052204C0E9FF05C0EAFFEFCF15
:1024500004F002C0E9FF03C0EAFF04C0EFFF024A34
:10246000032A000E015C02E1200E005CE2E302C0E0
:10247000E9FF03C0EAFF000EEF6AE4CF0FF0E4CFFC
:102480000EF0E4CF0DF0E4CF0CF0E4CF0BF0E4CF8E
:102490000AF0E4CF09F0E4CF08F0E4CF07F0E4CF8E
:1024A00006F0E4CF05F0E4CF04F0E4CF03F0E4CF8E
:1024B00002F0E4CF01F0E4CF00F0E4CFD9FF120046
:1024C000D9CFE5FFE1CFD9FF00C0E5FF01C0E5FFAF
:1024D00002C0E5FF03C0E5FF04C0E5FF05C0E5FF5E
:1024E00006C0E5FF07C0E5FF08C0E5FF09C0E5FF3E
:1024F0000AC0E5FF0BC0E5FF0CC0E5FF020EDBCF15
:1025000000F0030EDBCF01F0040EDBCF02F0050E6E
:10251000DBCF03F0060EDBCF04F00150056E025056
:10252000066E920E076E0F0E086E055007260650B7
:1025300008220F0E0A6E800E075E0A50085A920E8D
:10254000096E0F0E0A6E0550092606500A220F0E5C
:102550000C6E800E095E0C500A5A09C0E9FF0AC0D1
:10256000EAFFEFCF09F0010E0A6E045005E0E86CB7
:10257000D8900A36010FFDE30A50091207C0E9FF9F
:1025800008C0EAFF09C0EFFF380E076E0F0E086E95
:1025900005500726065008220F0E0B6E800E075EB0
:1025A0000B50085A0F0E0B6E380E05260B500622E4
:1025B0000F0E0B6E800E055E0B50065A05C0E9FF2C
:1025C00006C0EAFFEFCF05F00A1E0A50051607C045
:1025D000E9FF08C0EAFF05C0EFFF056A500E0026BC
:1025E000010E0522800E015E070E01160138F00B68
:1025F000026E070E04160450022600C0E9FF05C053
:10260000EAFF02C0EFFFE4CF0CF0E4CF0BF0E4CF21
:102610000AF0E4CF09F0E4CF08F0E4CF07F0E4CF0C
:1026200006F0E4CF05F0E4CF04F0E4CF03F0E4CF0C
:1026300002F0E4CF01F0E4CF00F0E4CFD9FF1200C4
:1026400000C0E5FF01C0E5FF02C0E5FF03C0E5FFF4
:1026500004C0E5FF05C0E5FF006A500E0024016ECE
:10266000026A010E022201C0E9FF02C0EAFFEFCFB9
:1026700001F00150D8B478D001380F0B026E036A14
:10268000800E02260F0E032202C0E9FF03C0EAFFFC
:10269000EFCF02F0070E0116010E036E000E046E5E
:1026A000015006E0E86CD89003360436010FFCE3D5
:1026B000056A0250031605500416035005E1045044
:1026C00003E1036A032A01D0036A0350D880E86655
:1026D000D890036A0336035024E00038E8441F0B07
:1026E000016E026A8A0E0126010E022201C0E9FF74
:1026F00002C0EAFFEFCF03F0070E0014046E010ED4
:10270000056E045005E0E86CD8900536010FFDE336
:102710000550031201C0E9FF02C0EAFF03C0EFFF4A
:1027200023D00038E8441F0B016E026A8A0E01268E
:10273000010E022201C0E9FF02C0EAFFEFCF03F061
:10274000070E0014046E010E056E045005E0E86CDF
:10275000D8900536010FFDE3051C031601C0E9FF03
:1027600002C0EAFF03C0EFFF002A100E005CD8A0F1
:1027700074D7E4CF05F0E4CF04F0E4CF03F0E4CF66
:1027800002F0E4CF01F0E4CF00F01200800EE56E1D
:10279000010EE56E300EE56E18EC1DF0030EE1261D
:1027A000800EE56E010EE56E320EE56E18EC1DF042
:1027B000030EE126800EE56E010EE56E340EE56E29
:1027C00018EC1DF0030EE126800EE56E010EE56E9D
:1027D000360EE56E18EC1DF0030EE126800EE56E58
:1027E000010EE56E380EE56E18EC1DF0030EE126C5
:1027F000800EE56E010EE56E3A0EE56E18EC1DF0EA
:10280000030EE126800EE56E010EE56E3C0EE56ED0
:1028100018EC1DF0030EE126800EE56E010EE56E4C
:102820003E0EE56E18EC1DF0030EE126800EE56EFF
:10283000010EE56E200EE56E18EC1DF0030EE1268C
:10284000800EE56E010EE56E220EE56E18EC1DF0B1
:10285000030EE126800EE56E010EE56E240EE56E98
:1028600018EC1DF0030EE126800EE56E010EE56EFC
:10287000260EE56E18EC1DF0030EE126800EE56EC7
:10288000010EE56E280EE56E18EC1DF0030EE12634
:10289000800EE56E010EE56E2A0EE56E18EC1DF059
:1028A000030EE126800EE56E010EE56E2C0EE56E40
:1028B00018EC1DF0030EE126800EE56E010EE56EAC
:1028C0002E0EE56E18EC1DF0030EE126120000C07E
:1028D000E5FF01C0E5FF02C0E5FF03C0E5FF04C05E
:1028E000E5FF05C0E5FFC1EC21F0006E0A0E005CBB
:1028F00021E3120E005C1EE2C1EC21F0046E036ABB
:10290000C1EC21F0026A032602500422F60E0024D4
:10291000020DF450026EF3CF01F0240E01260F0ECB
:10292000022201C0E9FF02C0EAFF03C0EEFF04C0BB
:10293000EFFF5AD00050010A0EE00050020A10E0EA
:102940000050030A12E00050050A36E00050FF0A6A
:1029500001E148D049D0C1EC21F00A01816F44D097
:10296000C1EC21F00A01806F3FD0C1EC21F0056E6F
:10297000026AC1EC21F0016A0226015005220250D0
:10298000020BE840010BE838E844F46EBD50DF0B61
:10299000F410BD6E0250010B010BE838F46EBD500F
:1029A000EF0BF410BD6E05340532023205340532EA
:1029B00002320250BE6E18D0C1EC21F0046E036AE0
:1029C000C1EC21F0016A032601500422C1EC21F080
:1029D000E56E0450E56E0350E56EEBEC21F0030E5E
:1029E000E12602D03FEC25F0E4CF05F0E4CF04F07F
:1029F000E4CF03F0E4CF02F0E4CF01F0E4CF00F045
:102A0000120000C0E5FF01C0E5FF82CA00F083CAE2
:102A100001F0FF0E0A01822783230050011004E118
:102A2000F40E826F010E836F0A018251006E835192
:102A3000016E0F012551015C02E12451005C02E2AC
:102A4000898C01D0899C0A018251006E8351016EEC
:102A50000F012751015C02E12651005C02E2898EE0
:102A600001D0899E0A018251006E8351016E0F01CF
:102A70002951015C02E12851005C02E2898A01D0FF
:102A8000899A0A018251006E8351016E0F012B5108
:102A9000015C02E12A51005C02E2898801D0899838
:102AA0000A018251006E8351016E0F012D51015CAC
:102AB00002E12C51005C02E28A8801D08A980A0166
:102AC0008251006E8351016E0F012F51015C02E1B2
:102AD0002E51005C02E28A8601D08A960A01825158
:102AE000006E8351016E0F013151015C02E13051E2
:102AF000005C02E28A8401D08A940A018251006E4D
:102B00008351016E0F013351015C02E13251005CCF
:102B100002E28A8201D08A92E4CF01F0E4CF00F091
:102B20001200430025630000D9CFE5FFE1CFD9FFB4
:102B300000C0E5FF01C0E5FF02C0E5FF03C0E5FFFF
:102B400004C0E5FF05C0E5FF06C0E5FF07C0E5FFDF
:102B500008C0E5FF09C0E5FF0AC0E5FF020EDBCFB4
:102B600000F0030EDBCF01F0040EDBCF02F0050E08
:102B7000DBCF03F0060EDBCF04F0070EDBCF05F052
:102B8000080EDBCF06F0090EDBCF07F0086A096AF2
:102B90000750800BE8440A6E0A501BE104500426DB
:102BA0000536063607360750035C08E10650025C1E
:102BB00005E10550015C02E10450005C06E2D8909A
:102BC000073206320532043204D0092A09C008F05F
:102BD000DFD70750035C08E10650025C05E10550B1
:102BE000015C02E10450005C08E30450005E055003
:102BF000015A0650025A0750035AD890073206323B
:102C00000532043208C009F008060950E2E103C0A9
:102C1000E9FF02C0F4FF01C0F3FF0050E4CF0AF067
:102C2000E4CF09F0E4CF08F0E4CF07F0E4CF06F0FA
:102C3000E4CF05F0E4CF04F0E4CF03F0E4CF02F0FA
:102C4000E4CF01F0E4CF00F0E4CFD9FF120000C0E0
:102C5000E5FF01C0E5FF02C0E5FF03C0E5FF04C0DA
:102C6000E5FF010192510101911901E163D092C187
:102C700000F0002A009E600E0024016E026A000E21
:102C8000022201C0E9FF02C0EAFFEFCF9CF11F0E54
:102C900001019C1792C19BF19C5101019B279B2B29
:102CA0009B2B9B9FC1EC21F0016E015003E1016A57
:102CB000012A01D0016AC1EC21F001019C6F800E54
:102CC0009C15026E1F0E9C15036E03C004F003C01A
:102CD0009CF1045003E191C192F13FD0015021E0F9
:102CE00002501CE0C1EC21F0006E01019C07005075
:102CF000420A03E194EC25F01BD000504E0A03E198
:102D00008BEC1EF015D00050460A03E129EC25F0AB
:102D10000FD00050490A0CE1FF000AD093EC25F0D7
:102D200007D0025003E066EC1CF002D067EC14F010
:102D30009BC192F10A0186510A01871906E001013F
:102D4000935103E161EC18F008D08BB006D001017B
:102D5000935103E1ACB212EC25F0E4CF04F0E4CFE0
:102D600003F0E4CF02F0E4CF01F0E4CF00F0120072
:102D700000C0E5FF01C0E5FF02C0E5FF03C0E5FFBD
:102D800004C0E5FF006A9E0E0024016E026A010E77
:102D9000022201C0E9FF02C0EAFFEF6A002A010E29
:102DA000005CF1E3006A016A026AE90E0124036E25
:102DB0000A0E0220046E03C0E9FF04C0EAFFEE6AB7
:102DC000EF6A000E0124036E010E0220046E03C0A0
:102DD000E9FF04C0EAFFEE6AEF6A100E0124036EF9
:102DE000010E0220046E03C0E9FF04C0EAFFEE6A90
:102DF000EF6A200E0124036E010E0220046E03C050
:102E0000E9FF04C0EAFFEE6AEF6A300E0124036EA8
:102E1000010E0220046E03C0E9FF04C0EAFFEE6861
:102E20007F0EEF6E020E0126D8B0022A002A080E8D
:102E3000005CD8A0BAD7AF0EC06EC16A010EC26ED8
:102E4000C282E4CF04F0E4CF03F0E4CF02F0E4CF99
:102E500001F0E4CF00F0120043204120256420253A
:102E6000640A0000432061736D20256420256420DE
:102E700025642025642025640A00432061734D20C9
:102E800025642025642025642025642025640A000B
:102E900000C0E5FF01C0E5FF03C0E5FF04C0E5FF9A
:102EA00005C0E5FF06C0E5FF07C0E5FF08C0E5FF78
:102EB00009C0E5FF0AC0E5FF0BC0E5FF86C100F0D1
:102EC00087C101F00101863F01D0872B0050E56EDC
:102ED000E9EC24F0E652076E046A056A066A86C1C8
:102EE00000F087C101F00101863F01D0872B00501F
:102EF000E56EE9EC24F0E6520B6A0A6E086A0850A7
:102F0000041205120A5006120B50071286C100F077
:102F100087C101F00101863F01D0872B0050E56E8B
:102F2000E9EC24F0E652036E006A03C001F0E86A9F
:102F300003BEFF0E086E096E005004120150051208
:102F4000085006120950071286C100F087C101F02F
:102F50000101863F01D0872B0050E56EE9EC24F09B
:102F6000E652016A0412015005120612071207C048
:102F7000E9FF06C0F4FF05C0F3FF0450E4CF0BF0F7
:102F8000E4CF0AF0E4CF09F0E4CF08F0E4CF07F093
:102F9000E4CF06F0E4CF05F0E4CF04F0E4CF03F093
:102FA000E4CF01F0E4CF00F01200D9CFE5FFE1CF8C
:102FB000D9FF00C0E5FF01C0E5FF02C0E5FF03C087
:102FC000E5FF04C0E5FF05C0E5FF06C0E5FF07C05B
:102FD000E5FF08C0E5FF09C0E5FF0AC0E5FF0BC03B
:102FE000E5FF0CC0E5FF0DC0E5FF020EDBCF00F0F2
:102FF000030EDBCF01F0040EDBCF02F0050EDBCFBA
:1030000003F0060EDBCF04F0070EDBCF05F0080E51
:10301000DBCF06F0090EDBCF07F0086A096A0A6AFF
:103020000B6A200E0C6E0350800BE8440D6E0050AE
:1030300000260136023603360850082609360A36BD
:103040000B360D50D8A4088007500B5C08E10650E1
:103050000A5C05E10550095C02E10450085C09E3E3
:103060000450085E0550095A06500A5A07500B5A78
:1030700000800C2ED8D703C0E9FF02C0F4FF01C0C6
:10308000F3FF0050E4CF0DF0E4CF0CF0E4CF0BF0F1
:10309000E4CF0AF0E4CF09F0E4CF08F0E4CF07F082
:1030A000E4CF06F0E4CF05F0E4CF04F0E4CF03F082
:1030B000E4CF02F0E4CF01F0E4CF00F0E4CFD9FF99
:1030C000120000C0E5FF01C0E5FF02C0E5FF03C03C
:1030D000E5FFACA276D00FEC23F0006E005005E1C6
:1030E0000A01876B0A01866B6CD087CA01F0005019
:1030F00001260FEC23F0026E00060250230A1FE1A6
:10310000010E005CD8A05BD00FEC23F0026E690AC0
:1031100003E13FEC21F053D00250720A03E112ECBC
:1031200025F04DD00250730A01E049D08B80AB8668
:103130009D8A9D98AE50AE50AB98AB8840D002505F
:10314000430A05E00250420A01E039D001D0008E66
:1031500000C095F100500A01A36F010E0101966FA6
:103160000A018751011814E00FEC23F0026E0101EF
:103170009527A30E01019625006E036A0A0E03220D
:1031800000C0E9FF03C0EAFF02C0EFFF962BE8D7BB
:10319000A30E01019625006E026A0A0E02220101A9
:1031A000951D036E032A00C0E9FF02C0EAFF03C0B9
:1031B000EFFF0101962B96C193F101018D6B01C0C8
:1031C00087FAE4CF03F0E4CF02F0E4CF01F0E4CFDC
:1031D00000F01200D9CFE5FFE1CFD9FF00C0E5FF35
:1031E00001C0E5FF02C0E5FF03C0E5FF04C0E5FF45
:1031F00005C0E5FF06C0E5FF07C0E5FF020EDBCF17
:1032000000F0030EDBCF01F0040EDBCF02F0050E61
:10321000DBCF03F002C006F00650046E800A33E1F3
:1032200000C0E9FF01C0F3FF025086EC23F0056EF9
:10323000F3CF06F0F4CF07F003C0E5FF05C0E9FFC8
:1032400006C0F3FF075034EC25F000C0E9FF01C0D1
:10325000F3FF025086EC23F0056EF3CF06F0F4CFB7
:1032600007F0052A02E3064A072A05C0E5FF06C063
:10327000F4FF07C0F6FF00C0E9FF01C0F3FF0250F2
:10328000DAEC24F01DD004AA1BD0047A045004E127
:1032900003506FEC25F014D00450010A04E10350F0
:1032A00002EC00F00DD004500F0A04E10350DFECF3
:1032B00020F006D004500E0A03E1035082EC25F002
:1032C000E4CF07F0E4CF06F0E4CF05F0E4CF04F05C
:1032D000E4CF03F0E4CF02F0E4CF01F0E4CF00F05C
:1032E000E4CFD9FF1200D9CFE5FFE1CFD9FF00C06D
:1032F000E5FF01C0E5FF02C0E5FF03C0E5FF04C034
:10330000E5FF05C0E5FF06C0E5FF07C0E5FF020ECB
:10331000DBCF00F0030EDBCF01F0040EDBCF02F0B9
:10332000050EDBCF03F087CA88FA0A0186510A012D
:10333000885F880703C004F0056A030E0426D8B02E
:10334000052A88CA06F0076A0750800FF36E0550F9
:10335000800FF35C02E10450065C02E2E8682BD0C7
:10336000020E035C02E2E86A26D003060350E56E13
:10337000C9EC1FF0E652046A0350045C14E20450E6
:103380000024056EE86A0120066EE86A022005C086
:10339000E9FF06C0F3FFB8EC24F0042AE56EC9EC9F
:1033A0001FF0E652E9D787CA88FA0A0186510A0156
:1033B000885F8807E86AE4CF07F0E4CF06F0E4CF3F
:1033C00005F0E4CF04F0E4CF03F0E4CF02F0E4CF63
:1033D00001F0E4CF00F0E4CFD9FF1200D9CFE5FF30
:1033E000E1CFD9FF00C0E5FF01C0E5FF02C0E5FF66
:1033F00003C0E5FF04C0E5FF05C0E5FF020EDBCF1B
:1034000000F0030EDBCF01F0040EDBCF02F0005022
:10341000020DF450036EF3CF00F0000E0024046E92
:10342000010E0320056E04C0E9FF05C0EAFF01C0DC
:10343000EEFF02C0EFFF100E0024046E010E032009
:10344000056E04C0E9FF05C0EAFFEECF04F0EFCF40
:1034500005F00150045C016E02500558026E400EEA
:103460000026010E032200C0E9FF03C0EAFF01C0ED
:10347000EEFF02C0EFFFD88002AED89004E3021E38
:10348000016CD8B4022A0250800F800F02E1030EB3
:10349000015C02E2016A026A0150021007E100C009
:1034A000E9FF03C0EAFF000EEE6AEF6AE4CF05F021
:1034B000E4CF04F0E4CF03F0E4CF02F0E4CF01F076
:1034C000E4CF00F0E4CFD9FF1200D9CFE5FFE1CF80
:1034D000D9FF00C0E5FF01C0E5FF02C0E5FF03C062
:1034E000E5FF04C0E5FF05C0E5FF06C0E5FF020EED
:1034F000DBCF00F0030EDBCF01F0040EDBCF02F0D8
:10350000050EDBCF03F0D88001AED890046A0436F4
:10351000045007E0011C066E001C056E054A062AD1
:1035200004D000C005F001C006F0D88003AED890EA
:1035300007E3031C016E021C006E004A012A04D03E
:1035400002C000F003C001F00150E56E0050E56ECE
:103550000650E56E0550E56E09EC1CF0006EF3CFE9
:1035600001F0040EE12604500AE0011C036E001C69
:10357000026E024A032A03C0F3FF025003D001C0C7
:10358000F3FF0050E4CF06F0E4CF05F0E4CF04F001
:10359000E4CF03F0E4CF02F0E4CF01F0E4CF00F099
:1035A000E4CFD9FF1200D9CFE5FFE1CFD9FF00C0AA
:1035B000E5FF01C0E5FF02C0E5FF03C0E5FF04C071
:1035C000E5FF05C0E5FF020EDBCF00F0030EDBCF09
:1035D00001F0040EDBCF02F0050EDBCF03F086C155
:1035E00004F087C105F00101863F01D0872B03500D
:1035F000E56E0450E56E3BEC22F0E652E65286C1E1
:1036000004F087C105F00101863F01D0872B0250ED
:10361000056EE56E0450E56E3BEC22F0E652E65294
:1036200086C104F087C105F00101863F01D0872BD8
:103630000150056EE56E0450E56E3BEC22F0E6525B
:10364000E65286C104F087C105F00101863F01D032
:10365000872B0050E56E0450E56E3BEC22F0E652FD
:10366000E652E4CF05F0E4CF04F0E4CF03F0E4CF7A
:1036700002F0E4CF01F0E4CF00F0E4CFD9FF120074
:10368000D9CFE5FFE1CFD9FF00C0E5FF01C0E5FFDD
:1036900002C0E5FF03C0E5FF04C0E5FF05C0E5FF8C
:1036A00006C0E5FF020EDBCF00F0030EDBCF01F01A
:1036B000040EDBCF02F001019D5119E148EC17F037
:1036C000036EF3CF04F0F4CF05F0E9CF06F003C0AA
:1036D000E5FF04C0F4FF05C0F6FF06C0F7FF00C019
:1036E000E9FF01C0F3FF0250C9EC24F01ED0010134
:1036F0009D51010A1AE100C0E9FF01C0F3FF025029
:10370000EFEC22F0006EF3CF01F0F4CF02F0E9CF3E
:1037100003F00350E56E0250E56E0150E56E005077
:10372000E56ED3EC1AF0040EE126E4CF06F0E4CF08
:1037300005F0E4CF04F0E4CF03F0E4CF02F0E4CFEF
:1037400001F0E4CF00F0E4CFD9FF1200D9CFE5FFBC
:10375000E1CFD9FF00C0E5FF01C0E5FF02C0E5FFF2
:1037600003C0E5FF04C0E5FF05C0E5FF06C0E5FFB7
:10377000020EDBCF00F0030EDBCF01F0040EDBCF37
:1037800002F0050EDBCF03F0060EDBCF04F0070ED0
:10379000DBCF05F0080EDBCF06F0D88003AED89063
:1037A00015E306500A0A12E104C0E9FF05C0EAFF6A
:1037B0002D0EEF6E044A052A031E021E011E006C28
:1037C00005E1012A03E1022AD8B4032A0650E56E76
:1037D0000550E56E0450E56E0350E56E0250E56E4F
:1037E0000150E56E0050E56E84EC11F0070EE12605
:1037F000E4CF06F0E4CF05F0E4CF04F0E4CF03F02B
:10380000E4CF02F0E4CF01F0E4CF00F0E4CFD9FF41
:103810001200D9CFE5FFE1CFD9FF00C0E5FF01C01D
:10382000E5FF02C0E5FF03C0E5FF04C0E5FF05C0FA
:10383000E5FF06C0E5FF020EDBCF00F0030EDBCF95
:1038400001F0040EDBCF02F0050EDBCF03F0046ABB
:10385000056A0350800BE844066E065011E10250E1
:10386000022603360350015C02E10250005C04E2D0
:10387000D8900332023204D0052A05C004F0E9D7FB
:103880000350015C02E10250005C04E30250005E60
:103890000350015AD8900332023204C005F00406E6
:1038A0000550EEE101C0F3FF0050E4CF06F0E4CF95
:1038B00005F0E4CF04F0E4CF03F0E4CF02F0E4CF6E
:1038C00001F0E4CF00F0E4CFD9FF120000C0E5FF23
:1038D00001C0E5FF02C0E5FFC1EC21F0006E4C0A1B
:1038E00003E1C1EC21F046D00050450A27E1000E6B
:1038F000E56E2B0EE56E220EE56E0DEC1FF0030E4D
:10390000E12679EC25F0006E00C001F001C002F064
:10391000010602500FE0C1EC21F0E56AE56E000EF1
:10392000E56E2B0EE56E240EE56E0DEC1FF0050E18
:10393000E126ECD70A0EDFEC20F01CD00050530A31
:1039400019E1C1EC21F0016ED00E0124006E016A74
:10395000005001E1012A0150D880E866D890016A40
:1039600001360150E56EB4EC1DF0E6520050D8B4BB
:103970003FEC25F0E4CF02F0E4CF01F0E4CF00F01B
:103980001200D9CFE5FFE1CFD9FF00C0E5FF01C0AC
:10399000E5FF02C0E5FF03C0E5FF04C0E5FF05C089
:1039A000E5FF06C0E5FF020EDBCF00F0030EDBCF24
:1039B00001F00038E8441F0B026E036A9E0E0226D7
:1039C000010E032202C0E9FF03C0EAFFEFCF04F0BB
:1039D000070E0014056E010E066E055005E0E86C3A
:1039E000D8900636010FFDE30650041202C0E9FF2D
:1039F00003C0EAFF04C0EFFF026A600E0026010E5A
:103A0000022200C0E9FF02C0EAFF01C0EFFFE4CFDD
:103A100006F0E4CF05F0E4CF04F0E4CF03F0E4CF08
:103A200002F0E4CF01F0E4CF00F0E4CFD9FF1200C0
:103A3000D9CFE5FFE1CFD9FF00C0E5FF01C0E5FF29
:103A400002C0E5FF03C0E5FF04C0E5FF020EDBCFC7
:103A500000F0030EDBCF01F0040EDBCF02F001011A
:103A60009D5111E179EC20F0036EF3CF04F003C017
:103A7000E5FF04C0F4FF00C0E9FF01C0F3FF0250FE
:103A800005EC25F016D001019D51010A12E100C09C
:103A9000E9FF01C0F3FF02502FEC24F0006EF3CFDA
:103AA00001F00150E56E0050E56E8CEC1FF0E6521F
:103AB000E652E4CF04F0E4CF03F0E4CF02F0E4CF29
:103AC00001F0E4CF00F0E4CFD9FF1200C80EF66E8B
:103AD0004A0EF76E000EF86E0900F550056E0900EB
:103AE000F550066E04E1056702D0B3EF1DF0090042
:103AF000F550006E0900F550016E0900F550026E98
:103B000009000900F550E96E0900F550EA6E090058
:103B100009000900F550036E0900F550046E090014
:103B20000900F6CF07F0F7CF08F0F8CF09F000C092
:103B3000F6FF01C0F7FF02C0F8FF035002E1045096
:103B400007E00900F550EE6E0306F8E20406F9D727
:103B500007C0F6FF08C0F7FF09C0F8FF050601E23D
:103B6000060672EF1DF01200D9CFE5FFE1CFD9FFB5
:103B700000C0E5FF01C0E5FF02C0E5FF03C0E5FFAF
:103B800004C0E5FF05C0E5FF020EDBCF00F00050EA
:103B9000010A24E1016A026A036A200E0224046E0B
:103BA000010E0320056E04C0E9FF05C0EAFFEE68C0
:103BB0007F0EEF6E300E0224046E010E0320056EA0
:103BC00004C0E9FF05C0EAFFEE6AEF6A020E0226B2
:103BD000D8B0032A012A080E015CDFE300C08BFA8B
:103BE000E4CF05F0E4CF04F0E4CF03F0E4CF02F03B
:103BF000E4CF01F0E4CF00F0E4CFD9FF120000C021
:103C0000E5FF01C0E5FF02C0E5FF03C0E5FF04C01A
:103C1000E5FF006A880E0024016E026A010E02228E
:103C20008A0E0024036E046A010E042203C0E9FF19
:103C300004C0EAFF010EEF6E01C0E9FF02C0EAFF17
:103C4000EF6E002A020E005CE5E3006A500E0024CD
:103C5000016E026A010E022201C0E9FF02C0EAFF02
:103C6000EF6A002A100E005CF1E3E4CF04F0E4CF29
:103C700003F0E4CF02F0E4CF01F0E4CF00F0120053
:103C80004320732025642025640A000000C0E5FF5E
:103C900001C0E5FF72A23AD0A4A838D00A01A05111
:103CA000FF0A03E1A151FF0A01E007D006EC00F092
:103CB000736A0A01A06BA16B29D00A01A051A1115E
:103CC00008E16BEC25F0736A010E0A01A06FA16B8D
:103CD0001DD0A0CA00F0A1CA01F00A01A03F01D086
:103CE000A12B000E00260A0E012200C0E9FF01C030
:103CF000EAFFEFCF73FF0A01A051800A02E1A15150
:103D000001E004D0FF0E0A01A069A169E4CF01F02F
:103D1000E4CF00F0120000C0E5FF01C0E5FF02C0E3
:103D2000E5FFC1EC21F0006EC1EC21F0016E005006
:103D3000026ED00E0224006E0A0E005C05E30050F5
:103D4000026EF90E0224006E0150026ED00E0224A3
:103D5000016E0A0E015C05E30150026EF90E0224A9
:103D6000016E080E005C12E2100E015CD8B00ED09D
:103D70000038F00B0124006E3FEC20F0016E015082
:103D800005E10050E56EBBEC23F0E652E4CF02F013
:103D9000E4CF01F0E4CF00F01200D9CFE5FFE1CF8E
:103DA000D9FF00C0E5FF01C0E5FF02C0E5FF03C089
:103DB000E5FF04C0E5FF020EDBCF00F00038E84469
:103DC0001F0B016E026A9E0E0126010E022201C027
:103DD000E9FF02C0EAFFEFCF03F0070E0016010E65
:103DE000046E005005E0E86CD8900436010FFDE346
:103DF000041C031601C0E9FF02C0EAFF03C0EFFF85
:103E0000E4CF04F0E4CF03F0E4CF02F0E4CF01F01C
:103E1000E4CF00F0E4CFD9FF1200D9CFE5FFE1CF26
:103E2000D9FF00C0E5FF01C0E5FF02C0E5FF020EBB
:103E3000D924006E000EDA20016E800E026E030E91
:103E40000026000E012202220250E56E0150E56EAE
:103E50000050E56E040EDBCFE5FF030EDBCFE5FF80
:103E6000020EDBCFE5FF0A01FF51E56EFE51E56E64
:103E7000FD51E56E0EEC00F0006EF3CF01F0090E7F
:103E8000E12601C0F3FF0050E4CF02F0E4CF01F0DF
:103E9000E4CF00F0E4CFD9FF1200D9CFE5FFE1CFA6
:103EA000D9FF00C0E5FF01C0E5FF02C0E5FF03C088
:103EB000E5FF020EDBCF00F0030EDBCF01F0040EB6
:103EC000DBCF02F001019D510DE119EC24F0036EEE
:103ED00003C0E5FF00C0E9FF01C0F3FF025034EC6E
:103EE00025F00FD001019D51010A0BE100C0E9FF4F
:103EF00001C0F3FF0250B8EC24F0E56E89EC22F02B
:103F0000E652E4CF03F0E4CF02F0E4CF01F0E4CFD7
:103F100000F0E4CFD9FF1200D9CFE5FFE1CFD9FF00
:103F200000C0E5FF01C0E5FF02C0E5FF03C0E5FFFB
:103F3000020EDBCF00F0030EDBCF01F086C102F0F2
:103F400087C103F00101863F01D0872B0150E56E48
:103F50000250E56E3BEC22F0E652E65286C102F0DA
:103F600087C103F00101863F01D0872B0050E56E29
:103F70000250E56E3BEC22F0E652E652E4CF03F04D
:103F8000E4CF02F0E4CF01F0E4CF00F0E4CFD9FFBA
:103F90001200D9CFE5FFE1CFD9FF00C0E5FF01C096
:103FA000E5FF02C0E5FF03C0E5FF04C0E5FF020E28
:103FB000DBCF00F086CA01F0026A014A022A87CAF2
:103FC00003F0046A0150031803E10250041801E0F1
:103FD00001D00ED0000E0A018625016E026A070E7E
:103FE000022201C0E9FF02C0EAFF00C0EFFF862BFA
:103FF000E4CF04F0E4CF03F0E4CF02F0E4CF01F02B
:10400000E4CF00F0E4CFD9FF1200F3CFE5FFF4CF07
:10401000E5FFE9CFE5FFEACFE5FFFACFE5FFFBCF0C
:10402000E5FF0A0184510F01366F0A0185510F0126
:10403000376FD650346FD750356FF2A411D00A01C4
:10404000843F01D0852BF2940A0184510F01366F11
:104050000A0185510F01376FD650346FD750356F35
:1040600049EC25F0E4CFFBFFE4CFFAFFE4CFEAFF11
:10407000E4CFE9FFE4CFF4FFE4CFF3FF110000C089
:10408000E5FF01C0E5FF02C0E5FF010E006EC1ECD7
:1040900021F0016E01C002F0015023E00050E56EF6
:1040A000E9EC24F0016EE652015010E10A0E005CCA
:1040B0000BE20A0E006EE56EE9EC24F0016EE652AA
:1040C000015004E1E8680ED0E8680CD001500218F5
:1040D00002E0E86807D0002A1B0E005CD8E3E8681D
:1040E00001D0E86AE4CF02F0E4CF01F0E4CF00F0C1
:1040F000120000C0E5FF01C0E5FF02C0E5FF03C0FC
:10410000E5FF86C100F087C101F00101863F01D0C3
:10411000872B0050E56EE9EC24F0E652036E026A4C
:1041200086C100F087C101F00101863F01D0872BD5
:104130000050E56EE9EC24F0E652016A02120150EB
:10414000031203C0F3FF0250E4CF03F0E4CF02F008
:10415000E4CF01F0E4CF00F01200D9CFE5FFE1CFCA
:10416000D9FF00C0E5FF01C0E5FF02C0E5FF03C0C5
:10417000E5FF04C0E5FF020EDBCF00F0030EDBCF4E
:1041800001F0040EDBCF02F0050EDBCF03F0060ECC
:10419000DBCFE9FF070EDBCFEAFF080EDBCF04F031
:1041A00040EC04F0E4CF04F0E4CF03F0E4CF02F0FD
:1041B000E4CF01F0E4CF00F0E4CFD9FF120000C05B
:1041C000E5FF01C0E5FF02C0E5FF006EC60E0A0173
:1041D0008A25016E026A0A0E022201C0E9FF02C0AE
:1041E000EAFF00C0EFFF220E8A5D01E28A2B005039
:1041F0000A0A0FE10A018A51E56E800EE56E0A0E89
:10420000E56EC60EE56E73EC19F0040EE1260A01A8
:104210008A6BE4CF02F0E4CF01F0E4CF00F01200AB
:1042200000C0E5FF01C0E5FF02C0E5FF03C0E5FFF8
:10423000006A016A000E0024026E0A0E0120036E5D
:1042400002C0E9FF03C0EAFFEF6A004A012A0150F9
:10425000800F800F02E1800E005CECE38A8C939C5F
:104260007086728A7284728C7280718EE4CF03F0D1
:10427000E4CF02F0E4CF01F0E4CF00F012000A0135
:10428000866B0A01876B0A0188698B809490B06AFB
:104290003F0EAF6EB886AC8AAC84AC8CAC90AB8C65
:1042A000AB8E0101946B01018E6B0101916B0101D9
:1042B000926B0101936B000EE56AE9EC24F00A01B0
:1042C000896FE6529F989F9A0A01FD6BFE6B2F0E35
:1042D000FF6F12EC25F01200D9CFE5FFE1CFD9FF37
:1042E00000C0E5FF01C0E5FF02C0E5FF03C0E5FF38
:1042F000020EDBCF00F0030EDBCF01F0040EDBCFAC
:1043000002F0050EDBCF03F0060EDBCFE9FF070E50
:10431000DBCFEAFF0EEC0AF0E4CF03F0E4CF02F0CB
:10432000E4CF01F0E4CF00F0E4CFD9FF12000A019E
:1043300084510A01FB6F0A0185510A01FC6FD650B6
:10434000F96FD750FA6FFB510A01841905E10A0190
:10435000FC510A0185190CE00A0184510A01FB6F26
:104360000A0185510A01FC6FD650F96FD750FA6FD8
:10437000FCCAE9FFFBCAF4FFFACAF3FF0A01F951CC
:10438000120000C0E5FF01C0E5FF010192510101EB
:104390009B1905E0010192510101911902E1E86ABE
:1043A00015D092C100F00101922B016A600E002627
:1043B000000E012200C0E9FF01C0EAFFEFCF00F0CC
:1043C0009251800A02E10101926B0050E4CF01F0AA
:1043D000E4CF00F01200D9CFE5FFE1CFD9FF00C054
:1043E000E5FF01C0E5FF02C0E5FF020EDBCF00F0F4
:1043F000030EDBCF01F0040EDBCF02F00050011002
:104400000AE0000E00260A0E012200C0E9FF01C0EA
:10441000EAFF02C0EFFFE4CF02F0E4CF01F0E4CF07
:1044200000F0E4CFD9FF1200D8CFE5FFE0CFE5FFE1
:10443000E56EF3CFE5FFF4CFE5FFE9CFE5FFEACF87
:10444000E5FFFACFE5FFFBCFE5FF9FEC0EF095EC23
:1044500025F0E4CFFBFFE4CFFAFFE4CFEAFFE4CF9F
:10446000E9FFE4CFF4FFE4CFF3FFE450E4CFE0FF53
:10447000E4CFD8FF1000D9CFE5FFE1CFD9FF00C0CE
:10448000E5FF020EDBCF00F0030EDBCFA8FF00C07C
:10449000A9FFA69EA69CA684F29EF29C550EA76E2E
:1044A000AA0EA76EA682A6A202D00000FCD7E86AD8
:1044B000A6B6E82AA694F28EF28CE4CF00F0E4CF00
:1044C000D9FF1200D9CFE5FFE1CFD9FF00C0E5FF4A
:1044D00001C0E5FF020EDBCF00F00050020DF450EA
:1044E000016EF3CF00F0400E0026010E012200C045
:1044F000E9FF01C0EAFFEECF00F0EFCF01F001C00D
:10450000F3FF0050E4CF01F0E4CF00F0E4CFD9FF97
:104510001200D9CFE5FFE1CFD9FF00C0E5FF01C010
:10452000E5FF02C0E5FF020EDBCF00F086C101F01F
:1045300087C102F00101863F01D0872B0050E56E54
:104540000150E56E3BEC22F0E652E652E4CF02F079
:10455000E4CF01F0E4CF00F0E4CFD9FF1200010175
:104560003951E56E3851E56E3751E56E3651E56EDD
:104570003551E56E3451E56E3351E56E3251E56EDD
:104580003151E56E3051E56E000EE56E2E0EE56E92
:104590007A0EE56E0DEC1FF00D0EE1261200010102
:1045A0002951E56E2851E56E2751E56E2651E56EDD
:1045B0002551E56E2451E56E2351E56E2251E56EDD
:1045C0002151E56E2051E56E000EE56E2E0EE56E72
:1045D000640EE56E0DEC1FF00D0EE1261200E8AE44
:1045E0000AD0F3CFEAFFEE50EECFF3FFEECFF4FFA9
:1045F000EECFE9FF1200E8BC8DEF25F0E9CFF6FF22
:10460000F3CFF7FFF86E0900F5500900F5CFF3FF7F
:104610000900F5CFF4FF0900F5CFE9FF120000C053
:10462000E5FF01C0E5FF0A0186510A01871902E191
:10463000E86A0FD0000E0A018725006E016A070E96
:10464000012200C0E9FF01C0EAFFEFCF00F0872B95
:104650000050E4CF01F0E4CF00F01200F2CFEAFF07
:10466000F29EA69EA69CA684E9CFA9FFF3CFAAFF3F
:10467000E4CFA8FF5BEC25F0F4CFA8FF5BEC25F0BE
:10468000F6CFA8FF5BEC25F0F7CFA8FF5BEC25F099
:10469000A694EABEF28E1200D9CFE5FFE1CFD9FF92
:1046A00000C0E5FF01C0E5FF020EDBCF00F0016AAC
:1046B000500E0026010E012200C0E9FF01C0EAFFF2
:1046C000000EEF6AE4CF01F0E4CF00F0E4CFD9FFB1
:1046D0001200F2CFF6FFF29EA69EA69CE9CFA9FF9C
:1046E000F3CFAAFFA680A850A94AAA2AA680A8CFDD
:1046F000F3FFA94AAA2AA680A8CFF4FFA94AAA2AAA
:10470000A680A8CFEAFFF6BEF28E1200E8AE08D06F
:10471000F3CFEAFFEE50EECFF3FFEECFF4FF12003F
:10472000E8BC8FEF25F0E9CFF6FFF3CFF7FFF86E87
:104730000900F5500900F5CFF3FF0900F5CFF4FFAC
:104740001200F2CFEAFFF29EA69EA69CA684E9CFB5
:10475000A9FFF3CFAAFFE4CFA8FF5BEC25F0F4CFCD
:10476000A8FF5BEC25F0F6CFA8FF5BEC25F0A69444
:10477000EABEF28E1200D9CFE5FFE1CFD9FF00C02B
:10478000E5FF020EDBCF00F000C089FA0050E56EB5
:10479000000EE56A3BEC22F0E652E652E4CF00F070
:1047A000E4CFD9FF1200F2CFF6FFF29EA69EA69CA0
:1047B000E9CFA9FFF3CFAAFFA680A850A94AAA2A49
:1047C000A680A8CFF3FFA94AAA2AA680A8CFF4FF03
:1047D000F6BEF28E120000C0E5FF01C0E5FF600EDC
:1047E00001019225006E016A000E012200C0E9FF5E
:1047F00001C0EAFFEFCF00F00050E4CF01F0E4CFBA
:1048000000F01200D9CFE5FFE1CFD9FF00C0E5FFEE
:10481000020EDBCF00F0610E005C05E37B0E005C56
:1048200002E2010E01D0E86AE4CF00F0E4CFD9FF44
:10483000120000C0E5FF01C0E5FF86C100F087C19E
:1048400001F00101863F01D0872B0050E56EE9ECB5
:1048500024F0E652E4CF01F0E4CF00F01200E8AE1D
:1048600006D0F3CFEAFFEE50EECFF3FF1200E8BC24
:104870008BEF25F0E9CFF6FFF3CFF7FFF86E0900D5
:10488000F5500900F5CFF3FF1200F2CFEAFFF29ED8
:10489000A69EA69CA684E9CFA9FFF3CFAAFFE4CFEA
:1048A000A8FF5BEC25F0F4CFA8FF5BEC25F0A69405
:1048B000EABEF28E120018EEFFF028EEFFF0F86A62
:1048C000A68EA69CE9680E0EEA6E0068000EED6AE0
:1048D0000050FDE166EC1DF09DEC0FF0FFD7F2CF2C
:1048E000F6FFF29EA69EA69CE9CFA9FFF3CFAAFFF2
:1048F000A680A850A94AAA2AA680A8CFF3FFF6BE90
:10490000F28E1200FF00FA0000000000FF0000001D
:104910001400000000420000000000000000000041
:1049200000000000FFFF000073EC25F03FEC21F0D9
:10493000D58ED59CD59AD588D596D594D582D58057
:10494000F28AF184D08EF28EF28C1200F2CFEAFF5E
:10495000F29EA69EA69CA684E9CFA9FFF3CFAAFF4C
:10496000E4CFA8FF5BEC25F0A694EABEF28E12001D
:10497000E8AE04D0F3CFEAFFEE501200E8BC0AEF35
:1049800000F0E9CFF6FFF3CFF7FFF86E0900F5501E
:104990001200E8AE0BD0F3CFEAFFE4CFEEFFF4CF86
:1049A000EEFFF6CFEEFFF7CFEEFF1200E8BC87EF89
:1049B00025F01200E8AE09D0F3CFEAFFE4CFEEFF16
:1049C000F4CFEEFFF6CFEEFF1200E8BC91EF25F03A
:1049D0001200D9CFE5FFE1CFD9FF020EDBCFA9FF4F
:1049E000A69CA69EA680A850E4CFD9FF1200F2CFC5
:1049F000F6FFF29EA69EA69CE9CFA9FFF3CFAAFFE1
:104A0000A680A850F6BEF28E1200E8AE07D0F3CF13
:104A1000EAFFE4CFEEFFF4CFEEFF1200E8BC85EF33
:104A200025F01200ACA2FED78B80AE500000AE5035
:104A3000AB98AB88AB869D8A9D981200700ED36EA2
:104A40009B8CFF0E9268936894689668626AF19EE8
:104A5000120000C0E5FF3FEC20F0006E005001E1C5
:104A6000FF00E4CF00F01200E8AE05D0F3CFEAFF7C
:104A7000E4CFEEFF1200E8BC89EF25F01200010E32
:104A800001019D6F1C0E0101866F876B76EC25F08E
:104A900012009EA006D001EC15F0CF68E70ECE6E96
:104AA0009E90120001019D6B1C0E0101866F876BA9
:104AB00076EC25F01200550EA76EAA0EA76EA68200
:104AC000A6B2FED7A94AAA2A010004490000800A1A
:104AD000000023000000766A3F0E756E1200ACA243
:104AE000FED7AD6E12001EEC25F01200C6EC13F0DE
:104AF000120001019C511200C1EC21F01200C1EC26
:104B000021F01200E8CF7FFF120045EF24F02EEFD6
:104B100023F0A6EF24F06FEF24F069EF23F0D3EF3A
:0C4B200023F0A1EF23F01200120012009D
:00000001FF
